{
  "contractName": "Election",
  "abi": [
    {
      "inputs": [
        {
          "internalType": "address",
          "name": "_trustedForwarder",
          "type": "address"
        }
      ],
      "stateMutability": "nonpayable",
      "type": "constructor"
    },
    {
      "inputs": [],
      "name": "cand1Count",
      "outputs": [
        {
          "internalType": "uint256",
          "name": "",
          "type": "uint256"
        }
      ],
      "stateMutability": "view",
      "type": "function",
      "constant": true
    },
    {
      "inputs": [],
      "name": "cand2Count",
      "outputs": [
        {
          "internalType": "uint256",
          "name": "",
          "type": "uint256"
        }
      ],
      "stateMutability": "view",
      "type": "function",
      "constant": true
    },
    {
      "inputs": [
        {
          "internalType": "uint256",
          "name": "",
          "type": "uint256"
        }
      ],
      "name": "candidates",
      "outputs": [
        {
          "internalType": "uint256",
          "name": "candidateID",
          "type": "uint256"
        },
        {
          "internalType": "uint256",
          "name": "voteCount",
          "type": "uint256"
        },
        {
          "internalType": "string",
          "name": "name",
          "type": "string"
        },
        {
          "internalType": "string",
          "name": "info",
          "type": "string"
        },
        {
          "internalType": "string",
          "name": "image",
          "type": "string"
        }
      ],
      "stateMutability": "view",
      "type": "function",
      "constant": true
    },
    {
      "inputs": [],
      "name": "candidatesCount",
      "outputs": [
        {
          "internalType": "uint256",
          "name": "",
          "type": "uint256"
        }
      ],
      "stateMutability": "view",
      "type": "function",
      "constant": true
    },
    {
      "inputs": [],
      "name": "electionCount",
      "outputs": [
        {
          "internalType": "uint256",
          "name": "",
          "type": "uint256"
        }
      ],
      "stateMutability": "view",
      "type": "function",
      "constant": true
    },
    {
      "inputs": [
        {
          "internalType": "uint256",
          "name": "",
          "type": "uint256"
        }
      ],
      "name": "elections",
      "outputs": [
        {
          "internalType": "string",
          "name": "elecName",
          "type": "string"
        },
        {
          "internalType": "uint256",
          "name": "elecID",
          "type": "uint256"
        }
      ],
      "stateMutability": "view",
      "type": "function",
      "constant": true
    },
    {
      "inputs": [
        {
          "internalType": "address",
          "name": "forwarder",
          "type": "address"
        }
      ],
      "name": "isTrustedForwarder",
      "outputs": [
        {
          "internalType": "bool",
          "name": "",
          "type": "bool"
        }
      ],
      "stateMutability": "view",
      "type": "function",
      "constant": true
    },
    {
      "inputs": [],
      "name": "owner",
      "outputs": [
        {
          "internalType": "address",
          "name": "",
          "type": "address"
        }
      ],
      "stateMutability": "view",
      "type": "function",
      "constant": true
    },
    {
      "inputs": [],
      "name": "trustedForwarder",
      "outputs": [
        {
          "internalType": "address",
          "name": "",
          "type": "address"
        }
      ],
      "stateMutability": "view",
      "type": "function",
      "constant": true
    },
    {
      "inputs": [],
      "name": "voteID",
      "outputs": [
        {
          "internalType": "uint256",
          "name": "",
          "type": "uint256"
        }
      ],
      "stateMutability": "view",
      "type": "function",
      "constant": true
    },
    {
      "inputs": [
        {
          "internalType": "uint256",
          "name": "",
          "type": "uint256"
        }
      ],
      "name": "votes",
      "outputs": [
        {
          "internalType": "string",
          "name": "voteID",
          "type": "string"
        },
        {
          "internalType": "bool",
          "name": "hasVoted",
          "type": "bool"
        },
        {
          "internalType": "uint256",
          "name": "candidateID",
          "type": "uint256"
        }
      ],
      "stateMutability": "view",
      "type": "function",
      "constant": true
    },
    {
      "inputs": [
        {
          "internalType": "address",
          "name": "_trustedForwarder",
          "type": "address"
        }
      ],
      "name": "setTrustForwarder",
      "outputs": [],
      "stateMutability": "nonpayable",
      "type": "function"
    },
    {
      "inputs": [],
      "name": "versionRecipient",
      "outputs": [
        {
          "internalType": "string",
          "name": "",
          "type": "string"
        }
      ],
      "stateMutability": "pure",
      "type": "function",
      "constant": true
    },
    {
      "inputs": [
        {
          "internalType": "string",
          "name": "a",
          "type": "string"
        },
        {
          "internalType": "string",
          "name": "b",
          "type": "string"
        }
      ],
      "name": "compareStrings",
      "outputs": [
        {
          "internalType": "bool",
          "name": "",
          "type": "bool"
        }
      ],
      "stateMutability": "view",
      "type": "function",
      "constant": true
    },
    {
      "inputs": [
        {
          "internalType": "uint256",
          "name": "_elecID",
          "type": "uint256"
        }
      ],
      "name": "getCandidates",
      "outputs": [
        {
          "internalType": "string[]",
          "name": "",
          "type": "string[]"
        },
        {
          "internalType": "uint256[]",
          "name": "",
          "type": "uint256[]"
        },
        {
          "internalType": "string[]",
          "name": "",
          "type": "string[]"
        },
        {
          "internalType": "string[]",
          "name": "",
          "type": "string[]"
        }
      ],
      "stateMutability": "view",
      "type": "function",
      "constant": true
    },
    {
      "inputs": [
        {
          "internalType": "uint256",
          "name": "_elecID",
          "type": "uint256"
        },
        {
          "internalType": "string",
          "name": "_voteID",
          "type": "string"
        }
      ],
      "name": "getElection",
      "outputs": [
        {
          "internalType": "uint256[]",
          "name": "",
          "type": "uint256[]"
        },
        {
          "internalType": "string[]",
          "name": "",
          "type": "string[]"
        }
      ],
      "stateMutability": "view",
      "type": "function",
      "constant": true
    },
    {
      "inputs": [
        {
          "internalType": "string",
          "name": "_voteID",
          "type": "string"
        }
      ],
      "name": "getElectionCount",
      "outputs": [
        {
          "internalType": "uint256",
          "name": "",
          "type": "uint256"
        }
      ],
      "stateMutability": "view",
      "type": "function",
      "constant": true
    },
    {
      "inputs": [
        {
          "internalType": "string",
          "name": "_elecName",
          "type": "string"
        },
        {
          "internalType": "string[]",
          "name": "_name",
          "type": "string[]"
        },
        {
          "internalType": "string[]",
          "name": "_info",
          "type": "string[]"
        },
        {
          "internalType": "string[]",
          "name": "_image",
          "type": "string[]"
        }
      ],
      "name": "createElection",
      "outputs": [],
      "stateMutability": "nonpayable",
      "type": "function"
    },
    {
      "inputs": [
        {
          "internalType": "uint256",
          "name": "_elecID",
          "type": "uint256"
        },
        {
          "internalType": "uint256",
          "name": "_candID",
          "type": "uint256"
        },
        {
          "internalType": "string",
          "name": "_voterID",
          "type": "string"
        }
      ],
      "name": "createVote",
      "outputs": [],
      "stateMutability": "nonpayable",
      "type": "function"
    },
    {
      "inputs": [
        {
          "internalType": "uint256",
          "name": "_elecID",
          "type": "uint256"
        },
        {
          "internalType": "string",
          "name": "_voteID",
          "type": "string"
        }
      ],
      "name": "hasVoted",
      "outputs": [
        {
          "internalType": "bool",
          "name": "",
          "type": "bool"
        }
      ],
      "stateMutability": "view",
      "type": "function",
      "constant": true
    }
  ],
  "bytecode": "0x60806040526000600255600060035560006004556000600855600060095534801561002957600080fd5b50604051611c3b380380611c3b8339810160408190526100489161007b565b600080546001600160a01b0319166001600160a01b03831617905550600180546001600160a01b031916331790556100ab565b60006020828403121561008d57600080fd5b81516001600160a01b03811681146100a457600080fd5b9392505050565b611b81806100ba6000396000f3fe608060405234801561001057600080fd5b506004361061012c5760003560e01c80635df81330116100ad578063bed34bba11610071578063bed34bba146102c6578063c53eeb2e146102d9578063ddeea51d146102ee578063ddf0b3da146102f7578063e77879fe1461030a57600080fd5b80635df81330146102425780635e6fef01146102645780637da0a877146102855780638da5cb5b146102aa578063997d2830146102bd57600080fd5b80633477ee2e116100f45780633477ee2e146101935780633e39a7a5146101b7578063486ff0cd146101da578063572b6c05146101fd57806357a834e01461022f57600080fd5b8063066d5dc7146101315780631290bf951461014d578063167054fe1461015657806323c624de146101695780632d35a8a21461018a575b600080fd5b61013a60045481565b6040519081526020015b60405180910390f35b61013a60035481565b61013a6101643660046115e7565b61031d565b61017c610177366004611623565b610475565b604051610144929190611755565b61013a60085481565b6101a66101a1366004611783565b610763565b60405161014495949392919061179c565b6101ca6101c5366004611783565b61092a565b60405161014494939291906117ed565b60408051808201825260018152603160f81b602082015290516101449190611845565b61021f61020b36600461185f565b6000546001600160a01b0391821691161490565b6040519015158152602001610144565b61021f61023d366004611623565b610e80565b610255610250366004611783565b610fb0565b60405161014493929190611888565b610277610272366004611783565b61105e565b6040516101449291906118ad565b6000546001600160a01b03165b6040516001600160a01b039091168152602001610144565b600154610292906001600160a01b031681565b61013a60095481565b61021f6102d43660046118cf565b61111a565b6102ec6102e7366004611928565b611173565b005b61013a60025481565b6102ec61030536600461185f565b6112bb565b6102ec610318366004611a09565b61130d565b600080805b60075481101561046e5760005b6007828154811061034257610342611ab5565b90600052602060002090600402016003018054905081101561045b576104366007838154811061037457610374611ab5565b9060005260206000209060040201600301828154811061039657610396611ab5565b906000526020600020906003020160000180546103b290611acb565b80601f01602080910402602001604051908101604052809291908181526020018280546103de90611acb565b801561042b5780601f106104005761010080835404028352916020019161042b565b820191906000526020600020905b81548152906001019060200180831161040e57829003601f168201915b50505050508661111a565b15610449578261044581611b06565b9350505b8061045381611b06565b91505061032f565b508061046681611b06565b915050610322565b5092915050565b60608060006104838461031d565b90506000816001600160401b0381111561049f5761049f611532565b6040519080825280602002602001820160405280156104c8578160200160208202803683370190505b5090506000826001600160401b038111156104e5576104e5611532565b60405190808252806020026020018201604052801561051857816020015b60608152602001906001900390816105035790505b5090506000805b6007548110156107555760005b6007828154811061053f5761053f611ab5565b906000526020600020906004020160030180549050811015610742576106336007838154811061057157610571611ab5565b9060005260206000209060040201600301828154811061059357610593611ab5565b906000526020600020906003020160000180546105af90611acb565b80601f01602080910402602001604051908101604052809291908181526020018280546105db90611acb565b80156106285780601f106105fd57610100808354040283529160200191610628565b820191906000526020600020905b81548152906001019060200180831161060b57829003601f168201915b50505050508a61111a565b15610730578185848151811061064b5761064b611ab5565b6020026020010181815250506007828154811061066a5761066a611ab5565b9060005260206000209060040201600001805461068690611acb565b80601f01602080910402602001604051908101604052809291908181526020018280546106b290611acb565b80156106ff5780601f106106d4576101008083540402835291602001916106ff565b820191906000526020600020905b8154815290600101906020018083116106e257829003601f168201915b505050505084848151811061071657610716611ab5565b6020026020010181905250828061072c90611b06565b9350505b8061073a81611b06565b91505061052c565b508061074d81611b06565b91505061051f565b509197909650945050505050565b6006602052600090815260409020805460018201546002830180549293919261078b90611acb565b80601f01602080910402602001604051908101604052809291908181526020018280546107b790611acb565b80156108045780601f106107d957610100808354040283529160200191610804565b820191906000526020600020905b8154815290600101906020018083116107e757829003601f168201915b50505050509080600301805461081990611acb565b80601f016020809104026020016040519081016040528092919081815260200182805461084590611acb565b80156108925780601f1061086757610100808354040283529160200191610892565b820191906000526020600020905b81548152906001019060200180831161087557829003601f168201915b5050505050908060040180546108a790611acb565b80601f01602080910402602001604051908101604052809291908181526020018280546108d390611acb565b80156109205780601f106108f557610100808354040283529160200191610920565b820191906000526020600020905b81548152906001019060200180831161090357829003601f168201915b5050505050905085565b60608060608060006007868154811061094557610945611ab5565b9060005260206000209060040201600201805490506001600160401b0381111561097157610971611532565b6040519080825280602002602001820160405280156109a457816020015b606081526020019060019003908161098f5790505b5090506000600787815481106109bc576109bc611ab5565b9060005260206000209060040201600201805490506001600160401b038111156109e8576109e8611532565b604051908082528060200260200182016040528015610a11578160200160208202803683370190505b509050600060078881548110610a2957610a29611ab5565b9060005260206000209060040201600201805490506001600160401b03811115610a5557610a55611532565b604051908082528060200260200182016040528015610a8857816020015b6060815260200190600190039081610a735790505b509050600060078981548110610aa057610aa0611ab5565b9060005260206000209060040201600201805490506001600160401b03811115610acc57610acc611532565b604051908082528060200260200182016040528015610aff57816020015b6060815260200190600190039081610aea5790505b50905060005b60078a81548110610b1857610b18611ab5565b906000526020600020906004020160020180549050811015610e705760078a81548110610b4757610b47611ab5565b90600052602060002090600402016002018181548110610b6957610b69611ab5565b90600052602060002090600502016002018054610b8590611acb565b80601f0160208091040260200160405190810160405280929190818152602001828054610bb190611acb565b8015610bfe5780601f10610bd357610100808354040283529160200191610bfe565b820191906000526020600020905b815481529060010190602001808311610be157829003601f168201915b5050505050858281518110610c1557610c15611ab5565b602002602001018190525060078a81548110610c3357610c33611ab5565b90600052602060002090600402016002018181548110610c5557610c55611ab5565b906000526020600020906005020160010154848281518110610c7957610c79611ab5565b60200260200101818152505060078a81548110610c9857610c98611ab5565b90600052602060002090600402016002018181548110610cba57610cba611ab5565b90600052602060002090600502016003018054610cd690611acb565b80601f0160208091040260200160405190810160405280929190818152602001828054610d0290611acb565b8015610d4f5780601f10610d2457610100808354040283529160200191610d4f565b820191906000526020600020905b815481529060010190602001808311610d3257829003601f168201915b5050505050838281518110610d6657610d66611ab5565b602002602001018190525060078a81548110610d8457610d84611ab5565b90600052602060002090600402016002018181548110610da657610da6611ab5565b90600052602060002090600502016004018054610dc290611acb565b80601f0160208091040260200160405190810160405280929190818152602001828054610dee90611acb565b8015610e3b5780601f10610e1057610100808354040283529160200191610e3b565b820191906000526020600020905b815481529060010190602001808311610e1e57829003601f168201915b5050505050828281518110610e5257610e52611ab5565b60200260200101819052508080610e6890611b06565b915050610b05565b5092989197509550909350915050565b600080805b60078581548110610e9857610e98611ab5565b906000526020600020906004020160030180549050811015610fa857610f8c60078681548110610eca57610eca611ab5565b90600052602060002090600402016003018281548110610eec57610eec611ab5565b90600052602060002090600302016000018054610f0890611acb565b80601f0160208091040260200160405190810160405280929190818152602001828054610f3490611acb565b8015610f815780601f10610f5657610100808354040283529160200191610f81565b820191906000526020600020905b815481529060010190602001808311610f6457829003601f168201915b50505050508561111a565b15610f9657600191505b80610fa081611b06565b915050610e85565b509392505050565b600560205260009081526040902080548190610fcb90611acb565b80601f0160208091040260200160405190810160405280929190818152602001828054610ff790611acb565b80156110445780601f1061101957610100808354040283529160200191611044565b820191906000526020600020905b81548152906001019060200180831161102757829003601f168201915b505050506001830154600290930154919260ff1691905083565b6007818154811061106e57600080fd5b906000526020600020906004020160009150905080600001805461109190611acb565b80601f01602080910402602001604051908101604052809291908181526020018280546110bd90611acb565b801561110a5780601f106110df5761010080835404028352916020019161110a565b820191906000526020600020905b8154815290600101906020018083116110ed57829003601f168201915b5050505050908060010154905082565b60008160405160200161112d9190611b2f565b60405160208183030381529060405280519060200120836040516020016111549190611b2f565b6040516020818303038152906040528051906020012014905092915050565b61117d8382610e80565b156111cf5760405162461bcd60e51b815260206004820152601e60248201527f416c726561647920766f74656420696e207468697320656c656374696f6e000060448201526064015b60405180910390fd5b600783815481106111e2576111e2611ab5565b9060005260206000209060040201600201828154811061120457611204611ab5565b60009182526020822060016005909202010180549161122283611b06565b91905055506007838154811061123a5761123a611ab5565b60009182526020808320604080516060810182528681526001818501819052918101889052600360049095029092018401805491820181558552938290208151805192959094020192611291928492910190611499565b50602082015160018201805460ff1916911515919091179055604090910151600290910155505050565b6001546001600160a01b031633146112ef5760405162461bcd60e51b815260206004820152600060248201526044016111c6565b600080546001600160a01b0319166001600160a01b03831617905550565b600780546001018082556000828152600954909291811061133057611330611ab5565b90600052602060002090600402019050600954816001018190555084816000019080519060200190611363929190611499565b5060005b845181101561147c57816002016040518060a00160405280600181526020016000815260200187848151811061139f5761139f611ab5565b602002602001015181526020018684815181106113be576113be611ab5565b602002602001015181526020018584815181106113dd576113dd611ab5565b602090810291909101810151909152825460018181018555600094855293829020835160059092020190815582820151938101939093556040820151805192939261142e9260028501920190611499565b506060820151805161144a916003840191602090910190611499565b5060808201518051611466916004840191602090910190611499565b505050808061147490611b06565b915050611367565b506009805490600061148d83611b06565b91905055505050505050565b8280546114a590611acb565b90600052602060002090601f0160209004810192826114c7576000855561150d565b82601f106114e057805160ff191683800117855561150d565b8280016001018555821561150d579182015b8281111561150d5782518255916020019190600101906114f2565b5061151992915061151d565b5090565b5b80821115611519576000815560010161151e565b634e487b7160e01b600052604160045260246000fd5b604051601f8201601f191681016001600160401b038111828210171561157057611570611532565b604052919050565b600082601f83011261158957600080fd5b81356001600160401b038111156115a2576115a2611532565b6115b5601f8201601f1916602001611548565b8181528460208386010111156115ca57600080fd5b816020850160208301376000918101602001919091529392505050565b6000602082840312156115f957600080fd5b81356001600160401b0381111561160f57600080fd5b61161b84828501611578565b949350505050565b6000806040838503121561163657600080fd5b8235915060208301356001600160401b0381111561165357600080fd5b61165f85828601611578565b9150509250929050565b600081518084526020808501945080840160005b838110156116995781518752958201959082019060010161167d565b509495945050505050565b60005b838110156116bf5781810151838201526020016116a7565b838111156116ce576000848401525b50505050565b600081518084526116ec8160208601602086016116a4565b601f01601f19169290920160200192915050565b600081518084526020808501808196508360051b8101915082860160005b858110156117485782840389526117368483516116d4565b9885019893509084019060010161171e565b5091979650505050505050565b6040815260006117686040830185611669565b828103602084015261177a8185611700565b95945050505050565b60006020828403121561179557600080fd5b5035919050565b85815284602082015260a0604082015260006117bb60a08301866116d4565b82810360608401526117cd81866116d4565b905082810360808401526117e181856116d4565b98975050505050505050565b6080815260006118006080830187611700565b82810360208401526118128187611669565b905082810360408401526118268186611700565b9050828103606084015261183a8185611700565b979650505050505050565b60208152600061185860208301846116d4565b9392505050565b60006020828403121561187157600080fd5b81356001600160a01b038116811461185857600080fd5b60608152600061189b60608301866116d4565b93151560208301525060400152919050565b6040815260006118c060408301856116d4565b90508260208301529392505050565b600080604083850312156118e257600080fd5b82356001600160401b03808211156118f957600080fd5b61190586838701611578565b9350602085013591508082111561191b57600080fd5b5061165f85828601611578565b60008060006060848603121561193d57600080fd5b833592506020840135915060408401356001600160401b0381111561196157600080fd5b61196d86828701611578565b9150509250925092565b600082601f83011261198857600080fd5b813560206001600160401b03808311156119a4576119a4611532565b8260051b6119b3838201611548565b93845285810183019383810190888611156119cd57600080fd5b84880192505b858310156117e1578235848111156119eb5760008081fd5b6119f98a87838c0101611578565b83525091840191908401906119d3565b60008060008060808587031215611a1f57600080fd5b84356001600160401b0380821115611a3657600080fd5b611a4288838901611578565b95506020870135915080821115611a5857600080fd5b611a6488838901611977565b94506040870135915080821115611a7a57600080fd5b611a8688838901611977565b93506060870135915080821115611a9c57600080fd5b50611aa987828801611977565b91505092959194509250565b634e487b7160e01b600052603260045260246000fd5b600181811c90821680611adf57607f821691505b60208210811415611b0057634e487b7160e01b600052602260045260246000fd5b50919050565b6000600019821415611b2857634e487b7160e01b600052601160045260246000fd5b5060010190565b60008251611b418184602087016116a4565b919091019291505056fea2646970667358221220b333d8cbeb7714dd1802806f65c46b72ff3fd9538ac9e0a5f09647114ab5114664736f6c63430008090033",
  "immutableReferences": {},
  "source": "pragma solidity ^0.8.2;\r\n\r\nimport \"@opengsn/contracts/src/BaseRelayRecipient.sol\";\r\n\r\ncontract Election is BaseRelayRecipient{\r\n    //Vote[] public votes;\r\n    address public owner;\r\n\r\n    uint256 public cand1Count = 0;\r\n    uint256 public cand2Count = 0;\r\n    uint256 public voteID = 0;\r\n\r\n    struct Vote {\r\n        string voteID;\r\n        bool hasVoted;\r\n        uint256 candidateID;\r\n    }\r\n\r\n    struct Candidate {\r\n        uint256 candidateID;\r\n        uint256 voteCount;\r\n        string name;\r\n        string info;\r\n        string image;\r\n        \r\n    }\r\n\r\n    struct Elections {\r\n        string elecName;\r\n        uint256 elecID;\r\n        Candidate[] candidates;\r\n        Vote[] voters;\r\n    }\r\n\r\n    mapping(uint256 => Vote) public votes;\r\n    mapping(uint256 => Candidate) public candidates;\r\n    //mapping(uint256 => Elections) public elections;\r\n\r\n    modifier onlyOwner() {\r\n        require(owner == msg.sender, \"\");\r\n        _;\r\n    }\r\n\r\n    //mapping(Elections=>mapping(uint=>Candidate public elections)) elect;\r\n\r\n    Elections[] public elections;\r\n\r\n    uint256 public candidatesCount = 0;\r\n    uint256 public electionCount = 0;\r\n\r\n    //constructor() public {}\r\n\r\n    /**\r\n     * Set the trustedForwarder address either in constructor or\r\n     * in other init function in your contract\r\n     */\r\n    constructor(address _trustedForwarder) {\r\n        _setTrustedForwarder(_trustedForwarder);\r\n        //data = \"Hello Metatransaction\";\r\n        owner = msg.sender;\r\n    }\r\n\r\n    /**\r\n     * OPTIONAL\r\n     * You should add one setTrustedForwarder(address _trustedForwarder)\r\n     * method with onlyOwner modifier so you can change the trusted\r\n     * forwarder address to switch to some other meta transaction protocol\r\n     * if any better protocol comes tomorrow or current one is upgraded.\r\n     */\r\n    function setTrustForwarder(address _trustedForwarder) public onlyOwner {\r\n        _setTrustedForwarder(_trustedForwarder);\r\n    }\r\n\r\n    /**\r\n     * Override this function.\r\n     * This version is to keep track of BaseRelayRecipient you are using\r\n     * in your contract.\r\n     */\r\n    function versionRecipient() external pure override returns (string memory) {\r\n        return \"1\";\r\n    }\r\n\r\n    //Return arrays of candidate details\r\n\r\n    function compareStrings(string memory a, string memory b) public view returns (bool) {\r\n        return (keccak256(abi.encodePacked((a))) == keccak256(abi.encodePacked((b))));\r\n    }\r\n\r\n    //Return arrays of candidate details\r\n\r\n    function getCandidates(uint256 _elecID) public view returns (string[] memory, uint256[] memory, string[] memory, string[] memory) {\r\n\r\n        string[] memory names = new string[](elections[_elecID].candidates.length);\r\n        uint256[] memory voteCounts = new uint256[](elections[_elecID].candidates.length);\r\n        string[] memory info = new string[](elections[_elecID].candidates.length);\r\n        string[] memory image = new string[](elections[_elecID].candidates.length);\r\n\r\n        for(uint i = 0; i < elections[_elecID].candidates.length; i++){\r\n            names[i] = elections[_elecID].candidates[i].name;\r\n            voteCounts[i] = elections[_elecID].candidates[i].voteCount;\r\n            info[i] = elections[_elecID].candidates[i].info;\r\n            image[i] = elections[_elecID].candidates[i].image;\r\n            \r\n        }\r\n        return (names, voteCounts, info, image);\r\n    }\r\n\r\n    function getElection(uint256 _elecID, string memory _voteID) public view returns (uint256[] memory, string[] memory) {\r\n\r\n        uint256 numElections = getElectionCount(_voteID);\r\n\r\n        uint256[] memory elecIDs = new uint256[](numElections);\r\n        string[] memory elecNames = new string[](numElections);\r\n\r\n        uint256 count = 0;\r\n\r\n        for(uint i = 0; i < elections.length; i++){\r\n            \r\n            for(uint256 j=0; j < elections[i].voters.length; j++) {\r\n            //elections[_elecID].voters[i]\r\n\r\n                if(compareStrings(elections[i].voters[j].voteID, _voteID)){\r\n                    elecIDs[count] = i;\r\n                    elecNames[count] = elections[i].elecName;\r\n                    count++;\r\n                } \r\n        }\r\n        }\r\n            \r\n        \r\n        \r\n        return (elecIDs, elecNames);\r\n    }\r\n\r\n    function getElectionCount(string memory _voteID) public view returns (uint256) {\r\n\r\n        //uint256[] memory elecIDs = new uint256[](elections.length);\r\n        //string[] memory elecNames = new string[](elections.length);\r\n\r\n        uint256 count = 0;\r\n\r\n        for(uint i = 0; i < elections.length; i++){\r\n            \r\n            for(uint256 j=0; j < elections[i].voters.length; j++) {\r\n            //elections[_elecID].voters[i]\r\n\r\n                if(compareStrings(elections[i].voters[j].voteID, _voteID)){\r\n\r\n                    count++;\r\n                } \r\n        }\r\n        }\r\n            \r\n        \r\n        \r\n        return (count);\r\n    }\r\n\r\n    \r\n\r\n\r\n    function createElection(string memory _elecName, string[] memory _name, string[] memory _info, string[] memory _image) public {\r\n        elections.push();\r\n        \r\n        Elections storage e = elections[electionCount];\r\n        e.elecID = electionCount;\r\n        e.elecName = _elecName;\r\n\r\n        for(uint256 i=0; i < _name.length; i++) {\r\n            e.candidates.push(Candidate(1, 0, _name[i], _info[i], _image[i]));\r\n        }\r\n\r\n        electionCount++;\r\n    }\r\n\r\n    function createVote(uint256 _elecID, uint256 _candID, string memory _voterID) public {\r\n\r\n        require(hasVoted(_elecID, _voterID) == false, \"Already voted in this election\");\r\n        \r\n        elections[_elecID].candidates[_candID].voteCount++; \r\n\r\n        elections[_elecID].voters.push(Vote(_voterID, true, _candID));    \r\n    }\r\n\r\n    function hasVoted(uint256 _elecID, string memory _voteID) public view returns (bool) {\r\n\r\n        bool valid = false;\r\n        \r\n        for(uint256 i=0; i < elections[_elecID].voters.length; i++) {\r\n            //elections[_elecID].voters[i]\r\n\r\n            if(compareStrings(elections[_elecID].voters[i].voteID, _voteID)){\r\n                valid = true;\r\n            } \r\n        }\r\n\r\n        return valid;\r\n    }\r\n\r\n    //function \r\n}\r\n\r\n",
  "sourcePath": "C:\\Users\\David\\Desktop\\PROJECT\\Blockchain-E-Voting\\Truffle\\contracts\\election.sol",
  "compiler": {
    "name": "solc",
    "version": "0.8.9+commit.e5eed63a.Emscripten.clang"
  },
  "schemaVersion": "3.4.6",
  "updatedAt": "2022-04-09T20:06:40.205Z",
  "networkType": "ethereum",
  "devdoc": {
    "kind": "dev",
    "methods": {},
    "version": 1
  },
  "userdoc": {
    "kind": "user",
    "methods": {
      "constructor": {
        "notice": "Set the trustedForwarder address either in constructor or in other init function in your contract"
      },
      "isTrustedForwarder(address)": {
        "notice": "return if the forwarder is trusted to forward relayed transactions to us. the forwarder is required to verify the sender's signature, and verify the call is not a replay."
      },
      "setTrustForwarder(address)": {
        "notice": "OPTIONAL You should add one setTrustedForwarder(address _trustedForwarder) method with onlyOwner modifier so you can change the trusted forwarder address to switch to some other meta transaction protocol if any better protocol comes tomorrow or current one is upgraded."
      },
      "versionRecipient()": {
        "notice": "Override this function. This version is to keep track of BaseRelayRecipient you are using in your contract."
      }
    },
    "version": 1
  }
}