{
  "contractName": "Election",
  "abi": [
    {
      "inputs": [
        {
          "internalType": "address",
          "name": "_trustedForwarder",
          "type": "address"
        }
      ],
      "stateMutability": "nonpayable",
      "type": "constructor"
    },
    {
      "inputs": [],
      "name": "cand1Count",
      "outputs": [
        {
          "internalType": "uint256",
          "name": "",
          "type": "uint256"
        }
      ],
      "stateMutability": "view",
      "type": "function",
      "constant": true
    },
    {
      "inputs": [],
      "name": "cand2Count",
      "outputs": [
        {
          "internalType": "uint256",
          "name": "",
          "type": "uint256"
        }
      ],
      "stateMutability": "view",
      "type": "function",
      "constant": true
    },
    {
      "inputs": [
        {
          "internalType": "uint256",
          "name": "",
          "type": "uint256"
        }
      ],
      "name": "candidates",
      "outputs": [
        {
          "internalType": "uint256",
          "name": "candidateID",
          "type": "uint256"
        },
        {
          "internalType": "uint256",
          "name": "voteCount",
          "type": "uint256"
        },
        {
          "internalType": "string",
          "name": "name",
          "type": "string"
        },
        {
          "internalType": "string",
          "name": "info",
          "type": "string"
        },
        {
          "internalType": "string",
          "name": "image",
          "type": "string"
        }
      ],
      "stateMutability": "view",
      "type": "function",
      "constant": true
    },
    {
      "inputs": [],
      "name": "candidatesCount",
      "outputs": [
        {
          "internalType": "uint256",
          "name": "",
          "type": "uint256"
        }
      ],
      "stateMutability": "view",
      "type": "function",
      "constant": true
    },
    {
      "inputs": [],
      "name": "electionCount",
      "outputs": [
        {
          "internalType": "uint256",
          "name": "",
          "type": "uint256"
        }
      ],
      "stateMutability": "view",
      "type": "function",
      "constant": true
    },
    {
      "inputs": [
        {
          "internalType": "uint256",
          "name": "",
          "type": "uint256"
        }
      ],
      "name": "elections",
      "outputs": [
        {
          "internalType": "string",
          "name": "elecName",
          "type": "string"
        },
        {
          "internalType": "uint256",
          "name": "startTime",
          "type": "uint256"
        },
        {
          "internalType": "uint256",
          "name": "endTime",
          "type": "uint256"
        },
        {
          "internalType": "uint256",
          "name": "elecID",
          "type": "uint256"
        }
      ],
      "stateMutability": "view",
      "type": "function",
      "constant": true
    },
    {
      "inputs": [
        {
          "internalType": "address",
          "name": "forwarder",
          "type": "address"
        }
      ],
      "name": "isTrustedForwarder",
      "outputs": [
        {
          "internalType": "bool",
          "name": "",
          "type": "bool"
        }
      ],
      "stateMutability": "view",
      "type": "function",
      "constant": true
    },
    {
      "inputs": [],
      "name": "owner",
      "outputs": [
        {
          "internalType": "address",
          "name": "",
          "type": "address"
        }
      ],
      "stateMutability": "view",
      "type": "function",
      "constant": true
    },
    {
      "inputs": [],
      "name": "trustedForwarder",
      "outputs": [
        {
          "internalType": "address",
          "name": "",
          "type": "address"
        }
      ],
      "stateMutability": "view",
      "type": "function",
      "constant": true
    },
    {
      "inputs": [],
      "name": "voteID",
      "outputs": [
        {
          "internalType": "uint256",
          "name": "",
          "type": "uint256"
        }
      ],
      "stateMutability": "view",
      "type": "function",
      "constant": true
    },
    {
      "inputs": [
        {
          "internalType": "uint256",
          "name": "",
          "type": "uint256"
        }
      ],
      "name": "votes",
      "outputs": [
        {
          "internalType": "string",
          "name": "voteID",
          "type": "string"
        },
        {
          "internalType": "bool",
          "name": "hasVoted",
          "type": "bool"
        },
        {
          "internalType": "uint256",
          "name": "candidateID",
          "type": "uint256"
        }
      ],
      "stateMutability": "view",
      "type": "function",
      "constant": true
    },
    {
      "inputs": [
        {
          "internalType": "address",
          "name": "_trustedForwarder",
          "type": "address"
        }
      ],
      "name": "setTrustForwarder",
      "outputs": [],
      "stateMutability": "nonpayable",
      "type": "function"
    },
    {
      "inputs": [],
      "name": "versionRecipient",
      "outputs": [
        {
          "internalType": "string",
          "name": "",
          "type": "string"
        }
      ],
      "stateMutability": "pure",
      "type": "function",
      "constant": true
    },
    {
      "inputs": [
        {
          "internalType": "string",
          "name": "a",
          "type": "string"
        },
        {
          "internalType": "string",
          "name": "b",
          "type": "string"
        }
      ],
      "name": "compareStrings",
      "outputs": [
        {
          "internalType": "bool",
          "name": "",
          "type": "bool"
        }
      ],
      "stateMutability": "view",
      "type": "function",
      "constant": true
    },
    {
      "inputs": [
        {
          "internalType": "uint256",
          "name": "_elecID",
          "type": "uint256"
        }
      ],
      "name": "isElectionLive",
      "outputs": [
        {
          "internalType": "bool",
          "name": "",
          "type": "bool"
        }
      ],
      "stateMutability": "view",
      "type": "function",
      "constant": true
    },
    {
      "inputs": [
        {
          "internalType": "uint256",
          "name": "_elecID",
          "type": "uint256"
        }
      ],
      "name": "getCandidates",
      "outputs": [
        {
          "internalType": "string[]",
          "name": "",
          "type": "string[]"
        },
        {
          "internalType": "uint256[]",
          "name": "",
          "type": "uint256[]"
        },
        {
          "internalType": "string[]",
          "name": "",
          "type": "string[]"
        },
        {
          "internalType": "string[]",
          "name": "",
          "type": "string[]"
        },
        {
          "internalType": "string",
          "name": "",
          "type": "string"
        },
        {
          "internalType": "uint256",
          "name": "",
          "type": "uint256"
        }
      ],
      "stateMutability": "view",
      "type": "function",
      "constant": true
    },
    {
      "inputs": [
        {
          "internalType": "uint256",
          "name": "_elecID",
          "type": "uint256"
        },
        {
          "internalType": "string",
          "name": "_voteID",
          "type": "string"
        }
      ],
      "name": "getElection",
      "outputs": [
        {
          "internalType": "uint256[]",
          "name": "",
          "type": "uint256[]"
        },
        {
          "internalType": "string[]",
          "name": "",
          "type": "string[]"
        },
        {
          "internalType": "string[]",
          "name": "",
          "type": "string[]"
        },
        {
          "internalType": "uint256[]",
          "name": "",
          "type": "uint256[]"
        }
      ],
      "stateMutability": "view",
      "type": "function",
      "constant": true
    },
    {
      "inputs": [
        {
          "internalType": "string",
          "name": "_voteID",
          "type": "string"
        }
      ],
      "name": "getElectionCount",
      "outputs": [
        {
          "internalType": "uint256",
          "name": "",
          "type": "uint256"
        }
      ],
      "stateMutability": "view",
      "type": "function",
      "constant": true
    },
    {
      "inputs": [
        {
          "internalType": "string",
          "name": "_elecName",
          "type": "string"
        },
        {
          "internalType": "uint256",
          "name": "_startDate",
          "type": "uint256"
        },
        {
          "internalType": "uint256",
          "name": "_endDate",
          "type": "uint256"
        },
        {
          "internalType": "string[]",
          "name": "_name",
          "type": "string[]"
        },
        {
          "internalType": "string[]",
          "name": "_info",
          "type": "string[]"
        },
        {
          "internalType": "string[]",
          "name": "_image",
          "type": "string[]"
        },
        {
          "internalType": "string[]",
          "name": "_voters",
          "type": "string[]"
        }
      ],
      "name": "createElection",
      "outputs": [],
      "stateMutability": "nonpayable",
      "type": "function"
    },
    {
      "inputs": [
        {
          "internalType": "uint256",
          "name": "_elecID",
          "type": "uint256"
        },
        {
          "internalType": "uint256",
          "name": "_candID",
          "type": "uint256"
        },
        {
          "internalType": "string",
          "name": "_voterID",
          "type": "string"
        }
      ],
      "name": "createVote",
      "outputs": [],
      "stateMutability": "nonpayable",
      "type": "function"
    },
    {
      "inputs": [
        {
          "internalType": "uint256",
          "name": "_elecID",
          "type": "uint256"
        },
        {
          "internalType": "string",
          "name": "_voteID",
          "type": "string"
        }
      ],
      "name": "hasVoted",
      "outputs": [
        {
          "internalType": "bool",
          "name": "",
          "type": "bool"
        }
      ],
      "stateMutability": "view",
      "type": "function",
      "constant": true
    }
  ],
  "bytecode": "0x60806040526000600255600060035560006004556000600855600060095534801561002957600080fd5b50604051620022683803806200226883398101604081905261004a9161007d565b600080546001600160a01b0319166001600160a01b03831617905550600180546001600160a01b031916331790556100ad565b60006020828403121561008f57600080fd5b81516001600160a01b03811681146100a657600080fd5b9392505050565b6121ab80620000bd6000396000f3fe608060405234801561001057600080fd5b50600436106101375760003560e01c80635df81330116100b8578063997d28301161007c578063997d2830146102e1578063a9f9fb5f146102ea578063bed34bba146102ff578063c53eeb2e14610312578063ddeea51d14610325578063ddf0b3da1461032e57600080fd5b80635df81330146102515780635e6fef01146102735780637da0a877146102965780638641a21b146102bb5780638da5cb5b146102ce57600080fd5b80633477ee2e116100ff5780633477ee2e146101a05780633e39a7a5146101c4578063486ff0cd146101e9578063572b6c051461020c57806357a834e01461023e57600080fd5b8063066d5dc71461013c5780631290bf9514610158578063167054fe1461016157806323c624de146101745780632d35a8a214610197575b600080fd5b61014560045481565b6040519081526020015b60405180910390f35b61014560035481565b61014561016f366004611b8c565b610341565b610187610182366004611bc8565b610499565b60405161014f9493929190611cf3565b61014560085481565b6101b36101ae366004611d4b565b61093d565b60405161014f959493929190611d64565b6101d76101d2366004611d4b565b610b04565b60405161014f96959493929190611db5565b60408051808201825260018152603160f81b6020820152905161014f9190611e2a565b61022e61021a366004611e44565b6000546001600160a01b0391821691161490565b604051901515815260200161014f565b61022e61024c366004611bc8565b61113c565b61026461025f366004611d4b565b6112c0565b60405161014f93929190611e6d565b610286610281366004611d4b565b61136e565b60405161014f9493929190611e92565b6000546001600160a01b03165b6040516001600160a01b03909116815260200161014f565b61022e6102c9366004611d4b565b611436565b6001546102a3906001600160a01b031681565b61014560095481565b6102fd6102f8366004611f53565b6114a6565b005b61022e61030d366004612037565b6116ef565b6102fd610320366004612090565b611748565b61014560025481565b6102fd61033c366004611e44565b6119ec565b600080805b6007548110156104925760005b60078281548110610366576103666120df565b90600052602060002090600602016005018054905081101561047f5761045a60078381548110610398576103986120df565b906000526020600020906006020160050182815481106103ba576103ba6120df565b906000526020600020906003020160000180546103d6906120f5565b80601f0160208091040260200160405190810160405280929190818152602001828054610402906120f5565b801561044f5780601f106104245761010080835404028352916020019161044f565b820191906000526020600020905b81548152906001019060200180831161043257829003601f168201915b5050505050866116ef565b1561046d578261046981612130565b9350505b8061047781612130565b915050610353565b508061048a81612130565b915050610346565b5092915050565b60608060608060006104aa86610341565b90506000816001600160401b038111156104c6576104c6611ad7565b6040519080825280602002602001820160405280156104ef578160200160208202803683370190505b5090506000826001600160401b0381111561050c5761050c611ad7565b60405190808252806020026020018201604052801561053f57816020015b606081526020019060019003908161052a5790505b506007549091506000906001600160401b0381111561056057610560611ad7565b60405190808252806020026020018201604052801561059357816020015b606081526020019060019003908161057e5790505b506007549091506000906001600160401b038111156105b4576105b4611ad7565b6040519080825280602002602001820160405280156105dd578160200160208202803683370190505b5090506000805b60075481101561092a5760078181548110610601576106016120df565b9060005260206000209060060201600001805461061d906120f5565b80601f0160208091040260200160405190810160405280929190818152602001828054610649906120f5565b80156106965780601f1061066b57610100808354040283529160200191610696565b820191906000526020600020905b81548152906001019060200180831161067957829003601f168201915b50505050508482815181106106ad576106ad6120df565b6020026020010181905250600781815481106106cb576106cb6120df565b9060005260206000209060060201600501805490508382815181106106f2576106f26120df565b60200260200101818152505060005b60078281548110610714576107146120df565b9060005260206000209060060201600501805490508110156109175761080860078381548110610746576107466120df565b90600052602060002090600602016005018281548110610768576107686120df565b90600052602060002090600302016000018054610784906120f5565b80601f01602080910402602001604051908101604052809291908181526020018280546107b0906120f5565b80156107fd5780601f106107d2576101008083540402835291602001916107fd565b820191906000526020600020905b8154815290600101906020018083116107e057829003601f168201915b50505050508e6116ef565b156109055781878481518110610820576108206120df565b6020026020010181815250506007828154811061083f5761083f6120df565b9060005260206000209060060201600001805461085b906120f5565b80601f0160208091040260200160405190810160405280929190818152602001828054610887906120f5565b80156108d45780601f106108a9576101008083540402835291602001916108d4565b820191906000526020600020905b8154815290600101906020018083116108b757829003601f168201915b50505050508684815181106108eb576108eb6120df565b6020026020010181905250828061090190612130565b9350505b8061090f81612130565b915050610701565b508061092281612130565b9150506105e4565b50939b929a509098509650945050505050565b60066020526000908152604090208054600182015460028301805492939192610965906120f5565b80601f0160208091040260200160405190810160405280929190818152602001828054610991906120f5565b80156109de5780601f106109b3576101008083540402835291602001916109de565b820191906000526020600020905b8154815290600101906020018083116109c157829003601f168201915b5050505050908060030180546109f3906120f5565b80601f0160208091040260200160405190810160405280929190818152602001828054610a1f906120f5565b8015610a6c5780601f10610a4157610100808354040283529160200191610a6c565b820191906000526020600020905b815481529060010190602001808311610a4f57829003601f168201915b505050505090806004018054610a81906120f5565b80601f0160208091040260200160405190810160405280929190818152602001828054610aad906120f5565b8015610afa5780601f10610acf57610100808354040283529160200191610afa565b820191906000526020600020905b815481529060010190602001808311610add57829003601f168201915b5050505050905085565b606080606080606060008060078881548110610b2257610b226120df565b9060005260206000209060060201600401805490506001600160401b03811115610b4e57610b4e611ad7565b604051908082528060200260200182016040528015610b8157816020015b6060815260200190600190039081610b6c5790505b509050600060078981548110610b9957610b996120df565b9060005260206000209060060201600401805490506001600160401b03811115610bc557610bc5611ad7565b604051908082528060200260200182016040528015610bee578160200160208202803683370190505b509050600060078a81548110610c0657610c066120df565b9060005260206000209060060201600401805490506001600160401b03811115610c3257610c32611ad7565b604051908082528060200260200182016040528015610c6557816020015b6060815260200190600190039081610c505790505b509050600060078b81548110610c7d57610c7d6120df565b9060005260206000209060060201600401805490506001600160401b03811115610ca957610ca9611ad7565b604051908082528060200260200182016040528015610cdc57816020015b6060815260200190600190039081610cc75790505b509050600060078c81548110610cf457610cf46120df565b90600052602060002090600602016000018054610d10906120f5565b80601f0160208091040260200160405190810160405280929190818152602001828054610d3c906120f5565b8015610d895780601f10610d5e57610100808354040283529160200191610d89565b820191906000526020600020905b815481529060010190602001808311610d6c57829003601f168201915b50505050509050600060078d81548110610da557610da56120df565b906000526020600020906006020160020154905060005b60078e81548110610dcf57610dcf6120df565b9060005260206000209060060201600401805490508110156111275760078e81548110610dfe57610dfe6120df565b90600052602060002090600602016004018181548110610e2057610e206120df565b90600052602060002090600502016002018054610e3c906120f5565b80601f0160208091040260200160405190810160405280929190818152602001828054610e68906120f5565b8015610eb55780601f10610e8a57610100808354040283529160200191610eb5565b820191906000526020600020905b815481529060010190602001808311610e9857829003601f168201915b5050505050878281518110610ecc57610ecc6120df565b602002602001018190525060078e81548110610eea57610eea6120df565b90600052602060002090600602016004018181548110610f0c57610f0c6120df565b906000526020600020906005020160010154868281518110610f3057610f306120df565b60200260200101818152505060078e81548110610f4f57610f4f6120df565b90600052602060002090600602016004018181548110610f7157610f716120df565b90600052602060002090600502016003018054610f8d906120f5565b80601f0160208091040260200160405190810160405280929190818152602001828054610fb9906120f5565b80156110065780601f10610fdb57610100808354040283529160200191611006565b820191906000526020600020905b815481529060010190602001808311610fe957829003601f168201915b505050505085828151811061101d5761101d6120df565b602002602001018190525060078e8154811061103b5761103b6120df565b9060005260206000209060060201600401818154811061105d5761105d6120df565b90600052602060002090600502016004018054611079906120f5565b80601f01602080910402602001604051908101604052809291908181526020018280546110a5906120f5565b80156110f25780601f106110c7576101008083540402835291602001916110f2565b820191906000526020600020905b8154815290600101906020018083116110d557829003601f168201915b5050505050848281518110611109576111096120df565b6020026020010181905250808061111f90612130565b915050610dbc565b50949c939b5091995097509550909350915050565b600080805b60078581548110611154576111546120df565b9060005260206000209060060201600501805490508110156112b85761124860078681548110611186576111866120df565b906000526020600020906006020160050182815481106111a8576111a86120df565b906000526020600020906003020160000180546111c4906120f5565b80601f01602080910402602001604051908101604052809291908181526020018280546111f0906120f5565b801561123d5780601f106112125761010080835404028352916020019161123d565b820191906000526020600020905b81548152906001019060200180831161122057829003601f168201915b5050505050856116ef565b801561129c575060078581548110611262576112626120df565b90600052602060002090600602016005018181548110611284576112846120df565b600091825260209091206001600390920201015460ff165b156112a657600191505b806112b081612130565b915050611141565b509392505050565b6005602052600090815260409020805481906112db906120f5565b80601f0160208091040260200160405190810160405280929190818152602001828054611307906120f5565b80156113545780601f1061132957610100808354040283529160200191611354565b820191906000526020600020905b81548152906001019060200180831161133757829003601f168201915b505050506001830154600290930154919260ff1691905083565b6007818154811061137e57600080fd5b90600052602060002090600602016000915090508060000180546113a1906120f5565b80601f01602080910402602001604051908101604052809291908181526020018280546113cd906120f5565b801561141a5780601f106113ef5761010080835404028352916020019161141a565b820191906000526020600020905b8154815290600101906020018083116113fd57829003601f168201915b5050505050908060010154908060020154908060030154905084565b60078054600091829142919085908110611452576114526120df565b9060005260206000209060060201600101548110158015611497575060078481548110611481576114816120df565b9060005260206000209060060201600201548111155b15610492575060019392505050565b60078054600101808255600082815260095490929181106114c9576114c96120df565b906000526020600020906006020190506009548160030181905550878160000190805190602001906114fc929190611a3e565b50600181018790556002810186905560005b855181101561162357816004016040518060a001604052806001815260200160008152602001888481518110611546576115466120df565b60200260200101518152602001878481518110611565576115656120df565b60200260200101518152602001868481518110611584576115846120df565b60209081029190910181015190915282546001818101855560009485529382902083516005909202019081558282015193810193909355604082015180519293926115d59260028501920190611a3e565b50606082015180516115f1916003840191602090910190611a3e565b506080820151805161160d916004840191602090910190611a3e565b505050808061161b90612130565b91505061150e565b5060005b82518110156116cf57816005016040518060600160405280858481518110611651576116516120df565b602090810291909101810151825260008282018190526040909201829052835460018101855593825290819020825180519394600302909101926116989284920190611a3e565b50602082015160018201805460ff1916911515919091179055604090910151600290910155806116c781612130565b915050611627565b50600980549060006116e083612130565b91905055505050505050505050565b6000816040516020016117029190612159565b60405160208183030381529060405280519060200120836040516020016117299190612159565b6040516020818303038152906040528051906020012014905092915050565b611752838261113c565b158015611763575061176383611436565b6117c25760405162461bcd60e51b815260206004820152602560248201527f416c726561647920566f746564206f7220456c656374696f6e206973206e6f74604482015264206c69766560d81b60648201526084015b60405180910390fd5b600783815481106117d5576117d56120df565b906000526020600020906006020160040182815481106117f7576117f76120df565b60009182526020822060016005909202010180549161181583612130565b919050555060005b60078481548110611830576118306120df565b9060005260206000209060060201600501805490508110156119e65761192460078581548110611862576118626120df565b90600052602060002090600602016005018281548110611884576118846120df565b906000526020600020906003020160000180546118a0906120f5565b80601f01602080910402602001604051908101604052809291908181526020018280546118cc906120f5565b80156119195780601f106118ee57610100808354040283529160200191611919565b820191906000526020600020905b8154815290600101906020018083116118fc57829003601f168201915b5050505050836116ef565b156119d45760016007858154811061193e5761193e6120df565b90600052602060002090600602016005018281548110611960576119606120df565b906000526020600020906003020160010160006101000a81548160ff021916908315150217905550826007858154811061199c5761199c6120df565b906000526020600020906006020160050182815481106119be576119be6120df565b9060005260206000209060030201600201819055505b806119de81612130565b91505061181d565b50505050565b6001546001600160a01b03163314611a205760405162461bcd60e51b815260206004820152600060248201526044016117b9565b600080546001600160a01b0319166001600160a01b03831617905550565b828054611a4a906120f5565b90600052602060002090601f016020900481019282611a6c5760008555611ab2565b82601f10611a8557805160ff1916838001178555611ab2565b82800160010185558215611ab2579182015b82811115611ab2578251825591602001919060010190611a97565b50611abe929150611ac2565b5090565b5b80821115611abe5760008155600101611ac3565b634e487b7160e01b600052604160045260246000fd5b604051601f8201601f191681016001600160401b0381118282101715611b1557611b15611ad7565b604052919050565b600082601f830112611b2e57600080fd5b81356001600160401b03811115611b4757611b47611ad7565b611b5a601f8201601f1916602001611aed565b818152846020838601011115611b6f57600080fd5b816020850160208301376000918101602001919091529392505050565b600060208284031215611b9e57600080fd5b81356001600160401b03811115611bb457600080fd5b611bc084828501611b1d565b949350505050565b60008060408385031215611bdb57600080fd5b8235915060208301356001600160401b03811115611bf857600080fd5b611c0485828601611b1d565b9150509250929050565b600081518084526020808501945080840160005b83811015611c3e57815187529582019590820190600101611c22565b509495945050505050565b60005b83811015611c64578181015183820152602001611c4c565b838111156119e65750506000910152565b60008151808452611c8d816020860160208601611c49565b601f01601f19169290920160200192915050565b6000815180845260208085019450848260051b860182860160005b85811015611ce6578383038952611cd4838351611c75565b98850198925090840190600101611cbc565b5090979650505050505050565b608081526000611d066080830187611c0e565b8281036020840152611d188187611ca1565b90508281036040840152611d2c8186611ca1565b90508281036060840152611d408185611c0e565b979650505050505050565b600060208284031215611d5d57600080fd5b5035919050565b85815284602082015260a060408201526000611d8360a0830186611c75565b8281036060840152611d958186611c75565b90508281036080840152611da98185611c75565b98975050505050505050565b60c081526000611dc860c0830189611ca1565b8281036020840152611dda8189611c0e565b90508281036040840152611dee8188611ca1565b90508281036060840152611e028187611ca1565b90508281036080840152611e168186611c75565b9150508260a0830152979650505050505050565b602081526000611e3d6020830184611c75565b9392505050565b600060208284031215611e5657600080fd5b81356001600160a01b0381168114611e3d57600080fd5b606081526000611e806060830186611c75565b93151560208301525060400152919050565b608081526000611ea56080830187611c75565b6020830195909552506040810192909252606090910152919050565b600082601f830112611ed257600080fd5b813560206001600160401b0380831115611eee57611eee611ad7565b8260051b611efd838201611aed565b9384528581018301938381019088861115611f1757600080fd5b84880192505b85831015611da957823584811115611f355760008081fd5b611f438a87838c0101611b1d565b8352509184019190840190611f1d565b600080600080600080600060e0888a031215611f6e57600080fd5b87356001600160401b0380821115611f8557600080fd5b611f918b838c01611b1d565b985060208a0135975060408a0135965060608a0135915080821115611fb557600080fd5b611fc18b838c01611ec1565b955060808a0135915080821115611fd757600080fd5b611fe38b838c01611ec1565b945060a08a0135915080821115611ff957600080fd5b6120058b838c01611ec1565b935060c08a013591508082111561201b57600080fd5b506120288a828b01611ec1565b91505092959891949750929550565b6000806040838503121561204a57600080fd5b82356001600160401b038082111561206157600080fd5b61206d86838701611b1d565b9350602085013591508082111561208357600080fd5b50611c0485828601611b1d565b6000806000606084860312156120a557600080fd5b833592506020840135915060408401356001600160401b038111156120c957600080fd5b6120d586828701611b1d565b9150509250925092565b634e487b7160e01b600052603260045260246000fd5b600181811c9082168061210957607f821691505b6020821081141561212a57634e487b7160e01b600052602260045260246000fd5b50919050565b600060001982141561215257634e487b7160e01b600052601160045260246000fd5b5060010190565b6000825161216b818460208701611c49565b919091019291505056fea2646970667358221220089ad5843608ad4bca658129d54556d845f7c2d1981cc50765cef2f43e4d1f2264736f6c63430008090033",
  "immutableReferences": {},
  "source": "pragma solidity ^0.8.2;\r\n\r\nimport \"@opengsn/contracts/src/BaseRelayRecipient.sol\";\r\n\r\ncontract Election is BaseRelayRecipient{\r\n    //Vote[] public votes;\r\n    address public owner;\r\n\r\n    uint256 public cand1Count = 0;\r\n    uint256 public cand2Count = 0;\r\n    uint256 public voteID = 0;\r\n\r\n    struct Vote {\r\n        string voteID;\r\n        bool hasVoted;\r\n        uint256 candidateID;\r\n    }\r\n\r\n    struct Candidate {\r\n        uint256 candidateID;\r\n        uint256 voteCount;\r\n        string name;\r\n        string info;\r\n        string image;\r\n        \r\n    }\r\n\r\n    struct Elections {\r\n        string elecName;\r\n        uint256 startTime;\r\n        uint256 endTime;\r\n        uint256 elecID;\r\n        Candidate[] candidates;\r\n        Vote[] voters;\r\n    }\r\n\r\n    mapping(uint256 => Vote) public votes;\r\n    mapping(uint256 => Candidate) public candidates;\r\n    //mapping(uint256 => Elections) public elections;\r\n\r\n    modifier onlyOwner() {\r\n        require(owner == msg.sender, \"\");\r\n        _;\r\n    }\r\n\r\n    //mapping(Elections=>mapping(uint=>Candidate public elections)) elect;\r\n\r\n    Elections[] public elections;\r\n\r\n    uint256 public candidatesCount = 0;\r\n    uint256 public electionCount = 0;\r\n\r\n    //constructor() public {}\r\n\r\n    /**\r\n     * Set the trustedForwarder address either in constructor or\r\n     * in other init function in your contract\r\n     */\r\n    constructor(address _trustedForwarder) {\r\n        _setTrustedForwarder(_trustedForwarder);\r\n        //data = \"Hello Metatransaction\";\r\n        owner = msg.sender;\r\n    }\r\n\r\n    /**\r\n     * OPTIONAL\r\n     * You should add one setTrustedForwarder(address _trustedForwarder)\r\n     * method with onlyOwner modifier so you can change the trusted\r\n     * forwarder address to switch to some other meta transaction protocol\r\n     * if any better protocol comes tomorrow or current one is upgraded.\r\n     */\r\n    function setTrustForwarder(address _trustedForwarder) public onlyOwner {\r\n        _setTrustedForwarder(_trustedForwarder);\r\n    }\r\n\r\n    /**\r\n     * Override this function.\r\n     * This version is to keep track of BaseRelayRecipient you are using\r\n     * in your contract.\r\n     */\r\n    function versionRecipient() external pure override returns (string memory) {\r\n        return \"1\";\r\n    }\r\n\r\n    //Return arrays of candidate details\r\n\r\n    function compareStrings(string memory a, string memory b) public view returns (bool) {\r\n        return (keccak256(abi.encodePacked((a))) == keccak256(abi.encodePacked((b))));\r\n    }\r\n\r\n    function isElectionLive(uint256 _elecID) public view returns (bool) {\r\n\r\n        bool isLive = false;\r\n\r\n        uint256 lastUpdated = block.timestamp;\r\n\r\n        if (lastUpdated >= elections[_elecID].startTime && lastUpdated <= elections[_elecID].endTime) {\r\n            isLive = true;\r\n        } \r\n\r\n        return (isLive);\r\n    }\r\n\r\n    //Return arrays of candidate details\r\n\r\n    function getCandidates(uint256 _elecID) public view returns (string[] memory, uint256[] memory, string[] memory, string[] memory, string memory, uint256) {\r\n\r\n        string[] memory names = new string[](elections[_elecID].candidates.length);\r\n        uint256[] memory voteCounts = new uint256[](elections[_elecID].candidates.length);\r\n        string[] memory info = new string[](elections[_elecID].candidates.length);\r\n        string[] memory image = new string[](elections[_elecID].candidates.length);\r\n        string memory elecName = elections[_elecID].elecName;\r\n        //uint256 startTime = elections[_elecID].startTime;\r\n        uint256 endTime = elections[_elecID].endTime;\r\n        \r\n\r\n        for(uint i = 0; i < elections[_elecID].candidates.length; i++){\r\n            names[i] = elections[_elecID].candidates[i].name;\r\n            voteCounts[i] = elections[_elecID].candidates[i].voteCount;\r\n            info[i] = elections[_elecID].candidates[i].info;\r\n            image[i] = elections[_elecID].candidates[i].image;\r\n            \r\n        }\r\n        return (names, voteCounts, info, image, elecName, endTime);\r\n    }\r\n\r\n    function getElection(uint256 _elecID, string memory _voteID) public view returns (uint256[] memory, string[] memory, string[] memory, uint256[] memory) {\r\n\r\n        uint256 numElections = getElectionCount(_voteID);\r\n\r\n        uint256[] memory elecIDs = new uint256[](numElections);\r\n        string[] memory elecNames = new string[](numElections);\r\n\r\n        string[] memory TopElecNames = new string[](elections.length);\r\n        uint256[] memory VotersCount = new uint256[](elections.length);\r\n\r\n        uint256 count = 0;\r\n\r\n        for(uint i = 0; i < elections.length; i++){\r\n\r\n            TopElecNames[i] = elections[i].elecName;\r\n            VotersCount[i] = elections[i].voters.length;\r\n            \r\n            for(uint256 j=0; j < elections[i].voters.length; j++) {\r\n            //elections[_elecID].voters[i]\r\n            \r\n            \r\n\r\n                if(compareStrings(elections[i].voters[j].voteID, _voteID)){\r\n                    elecIDs[count] = i;\r\n                    elecNames[count] = elections[i].elecName;\r\n                    count++;\r\n                } \r\n        }\r\n        }\r\n            \r\n        \r\n        \r\n        return (elecIDs, elecNames, TopElecNames, VotersCount);\r\n    }\r\n\r\n\r\n\r\n    function getElectionCount(string memory _voteID) public view returns (uint256) {\r\n\r\n        //uint256[] memory elecIDs = new uint256[](elections.length);\r\n        //string[] memory elecNames = new string[](elections.length);\r\n\r\n        uint256 count = 0;\r\n\r\n        for(uint i = 0; i < elections.length; i++){\r\n            \r\n            for(uint256 j=0; j < elections[i].voters.length; j++) {\r\n            //elections[_elecID].voters[i]\r\n\r\n                if(compareStrings(elections[i].voters[j].voteID, _voteID)){\r\n\r\n                    count++;\r\n                } \r\n        }\r\n        }\r\n            \r\n        \r\n        \r\n        return (count);\r\n    }\r\n\r\n    \r\n\r\n    //Function is responsible for initialising and populating a newly created election\r\n    //Storage keyword used as our newly created instance is assingned to storage outside the bounds of our funtion\r\n    // Populates the elections candidates and voters by looping of the given parameters\r\n    function createElection(string memory _elecName, uint256 _startDate, uint256 _endDate, string[] memory _name, string[] memory _info, string[] memory _image, string[] memory _voters) public {\r\n        elections.push();\r\n        \r\n        Elections storage e = elections[electionCount];\r\n        e.elecID = electionCount;\r\n        e.elecName = _elecName;\r\n        e.startTime = _startDate;\r\n        e.endTime = _endDate;\r\n\r\n        for(uint256 i=0; i < _name.length; i++) {\r\n            e.candidates.push(Candidate(1, 0, _name[i], _info[i], _image[i]));\r\n        }\r\n\r\n        for(uint256 i=0; i < _voters.length; i++) {\r\n            e.voters.push(Vote(_voters[i], false, 0));\r\n        }\r\n\r\n        electionCount++;\r\n    }\r\n\r\n    function createVote(uint256 _elecID, uint256 _candID, string memory _voterID) public {\r\n\r\n        require(hasVoted(_elecID, _voterID) == false && isElectionLive(_elecID), \"Already Voted or Election is not live\");\r\n        \r\n        elections[_elecID].candidates[_candID].voteCount++; \r\n\r\n        for(uint256 i=0; i < elections[_elecID].voters.length; i++) {\r\n            //elections[_elecID].voters[i]\r\n\r\n                if(compareStrings(elections[_elecID].voters[i].voteID, _voterID)){\r\n\r\n                    elections[_elecID].voters[i].hasVoted = true;\r\n                    elections[_elecID].voters[i].candidateID = _candID;\r\n                } \r\n        }    \r\n    }\r\n\r\n    // Checks if the specified voter has already voted in the specified election\r\n\r\n    function hasVoted(uint256 _elecID, string memory _voteID) public view returns (bool) {\r\n\r\n        bool valid = false;\r\n        \r\n        for(uint256 i=0; i < elections[_elecID].voters.length; i++) {\r\n            //elections[_elecID].voters[i]\r\n\r\n            if(compareStrings(elections[_elecID].voters[i].voteID, _voteID) && elections[_elecID].voters[i].hasVoted){\r\n                valid = true;\r\n            } \r\n        }\r\n\r\n        return valid;\r\n    }\r\n\r\n    //function \r\n}\r\n\r\n",
  "sourcePath": "C:\\Users\\David\\Desktop\\PROJECT\\Blockchain-E-Voting\\Truffle\\contracts\\election.sol",
  "compiler": {
    "name": "solc",
    "version": "0.8.9+commit.e5eed63a.Emscripten.clang"
  },
  "schemaVersion": "3.4.6",
  "updatedAt": "2022-04-24T16:01:40.528Z",
  "networkType": "ethereum",
  "devdoc": {
    "kind": "dev",
    "methods": {},
    "version": 1
  },
  "userdoc": {
    "kind": "user",
    "methods": {
      "constructor": {
        "notice": "Set the trustedForwarder address either in constructor or in other init function in your contract"
      },
      "isTrustedForwarder(address)": {
        "notice": "return if the forwarder is trusted to forward relayed transactions to us. the forwarder is required to verify the sender's signature, and verify the call is not a replay."
      },
      "setTrustForwarder(address)": {
        "notice": "OPTIONAL You should add one setTrustedForwarder(address _trustedForwarder) method with onlyOwner modifier so you can change the trusted forwarder address to switch to some other meta transaction protocol if any better protocol comes tomorrow or current one is upgraded."
      },
      "versionRecipient()": {
        "notice": "Override this function. This version is to keep track of BaseRelayRecipient you are using in your contract."
      }
    },
    "version": 1
  }
}