{
  "contractName": "Election",
  "abi": [
    {
      "inputs": [
        {
          "internalType": "address",
          "name": "_trustedForwarder",
          "type": "address"
        }
      ],
      "stateMutability": "nonpayable",
      "type": "constructor"
    },
    {
      "inputs": [],
      "name": "cand1Count",
      "outputs": [
        {
          "internalType": "uint256",
          "name": "",
          "type": "uint256"
        }
      ],
      "stateMutability": "view",
      "type": "function"
    },
    {
      "inputs": [],
      "name": "cand2Count",
      "outputs": [
        {
          "internalType": "uint256",
          "name": "",
          "type": "uint256"
        }
      ],
      "stateMutability": "view",
      "type": "function"
    },
    {
      "inputs": [
        {
          "internalType": "uint256",
          "name": "",
          "type": "uint256"
        }
      ],
      "name": "candidates",
      "outputs": [
        {
          "internalType": "uint256",
          "name": "candidateID",
          "type": "uint256"
        },
        {
          "internalType": "uint256",
          "name": "voteCount",
          "type": "uint256"
        },
        {
          "internalType": "string",
          "name": "name",
          "type": "string"
        },
        {
          "internalType": "string",
          "name": "info",
          "type": "string"
        },
        {
          "internalType": "string",
          "name": "image",
          "type": "string"
        }
      ],
      "stateMutability": "view",
      "type": "function"
    },
    {
      "inputs": [],
      "name": "candidatesCount",
      "outputs": [
        {
          "internalType": "uint256",
          "name": "",
          "type": "uint256"
        }
      ],
      "stateMutability": "view",
      "type": "function"
    },
    {
      "inputs": [],
      "name": "electionCount",
      "outputs": [
        {
          "internalType": "uint256",
          "name": "",
          "type": "uint256"
        }
      ],
      "stateMutability": "view",
      "type": "function"
    },
    {
      "inputs": [
        {
          "internalType": "uint256",
          "name": "",
          "type": "uint256"
        }
      ],
      "name": "elections",
      "outputs": [
        {
          "internalType": "string",
          "name": "elecName",
          "type": "string"
        },
        {
          "internalType": "uint256",
          "name": "startTime",
          "type": "uint256"
        },
        {
          "internalType": "uint256",
          "name": "endTime",
          "type": "uint256"
        },
        {
          "internalType": "uint256",
          "name": "elecID",
          "type": "uint256"
        }
      ],
      "stateMutability": "view",
      "type": "function"
    },
    {
      "inputs": [
        {
          "internalType": "address",
          "name": "forwarder",
          "type": "address"
        }
      ],
      "name": "isTrustedForwarder",
      "outputs": [
        {
          "internalType": "bool",
          "name": "",
          "type": "bool"
        }
      ],
      "stateMutability": "view",
      "type": "function"
    },
    {
      "inputs": [],
      "name": "owner",
      "outputs": [
        {
          "internalType": "address",
          "name": "",
          "type": "address"
        }
      ],
      "stateMutability": "view",
      "type": "function"
    },
    {
      "inputs": [],
      "name": "trustedForwarder",
      "outputs": [
        {
          "internalType": "address",
          "name": "",
          "type": "address"
        }
      ],
      "stateMutability": "view",
      "type": "function"
    },
    {
      "inputs": [],
      "name": "voteID",
      "outputs": [
        {
          "internalType": "uint256",
          "name": "",
          "type": "uint256"
        }
      ],
      "stateMutability": "view",
      "type": "function"
    },
    {
      "inputs": [
        {
          "internalType": "uint256",
          "name": "",
          "type": "uint256"
        }
      ],
      "name": "votes",
      "outputs": [
        {
          "internalType": "string",
          "name": "voteID",
          "type": "string"
        },
        {
          "internalType": "bool",
          "name": "hasVoted",
          "type": "bool"
        },
        {
          "internalType": "uint256",
          "name": "candidateID",
          "type": "uint256"
        }
      ],
      "stateMutability": "view",
      "type": "function"
    },
    {
      "inputs": [
        {
          "internalType": "address",
          "name": "_trustedForwarder",
          "type": "address"
        }
      ],
      "name": "setTrustForwarder",
      "outputs": [],
      "stateMutability": "nonpayable",
      "type": "function"
    },
    {
      "inputs": [],
      "name": "versionRecipient",
      "outputs": [
        {
          "internalType": "string",
          "name": "",
          "type": "string"
        }
      ],
      "stateMutability": "pure",
      "type": "function"
    },
    {
      "inputs": [
        {
          "internalType": "string",
          "name": "a",
          "type": "string"
        },
        {
          "internalType": "string",
          "name": "b",
          "type": "string"
        }
      ],
      "name": "compareStrings",
      "outputs": [
        {
          "internalType": "bool",
          "name": "",
          "type": "bool"
        }
      ],
      "stateMutability": "view",
      "type": "function"
    },
    {
      "inputs": [
        {
          "internalType": "uint256",
          "name": "_elecID",
          "type": "uint256"
        }
      ],
      "name": "isElectionLive",
      "outputs": [
        {
          "internalType": "bool",
          "name": "",
          "type": "bool"
        }
      ],
      "stateMutability": "view",
      "type": "function"
    },
    {
      "inputs": [
        {
          "internalType": "uint256",
          "name": "_elecID",
          "type": "uint256"
        }
      ],
      "name": "getCandidates",
      "outputs": [
        {
          "internalType": "string[]",
          "name": "",
          "type": "string[]"
        },
        {
          "internalType": "uint256[]",
          "name": "",
          "type": "uint256[]"
        },
        {
          "internalType": "string[]",
          "name": "",
          "type": "string[]"
        },
        {
          "internalType": "string[]",
          "name": "",
          "type": "string[]"
        },
        {
          "internalType": "string",
          "name": "",
          "type": "string"
        },
        {
          "internalType": "uint256",
          "name": "",
          "type": "uint256"
        }
      ],
      "stateMutability": "view",
      "type": "function"
    },
    {
      "inputs": [
        {
          "internalType": "uint256",
          "name": "_elecID",
          "type": "uint256"
        },
        {
          "internalType": "string",
          "name": "_voteID",
          "type": "string"
        }
      ],
      "name": "getElection",
      "outputs": [
        {
          "internalType": "uint256[]",
          "name": "",
          "type": "uint256[]"
        },
        {
          "internalType": "string[]",
          "name": "",
          "type": "string[]"
        },
        {
          "internalType": "string[]",
          "name": "",
          "type": "string[]"
        },
        {
          "internalType": "uint256[]",
          "name": "",
          "type": "uint256[]"
        }
      ],
      "stateMutability": "view",
      "type": "function"
    },
    {
      "inputs": [
        {
          "internalType": "string",
          "name": "_voteID",
          "type": "string"
        }
      ],
      "name": "getElectionCount",
      "outputs": [
        {
          "internalType": "uint256",
          "name": "",
          "type": "uint256"
        }
      ],
      "stateMutability": "view",
      "type": "function"
    },
    {
      "inputs": [
        {
          "internalType": "string",
          "name": "_elecName",
          "type": "string"
        },
        {
          "internalType": "uint256",
          "name": "_startDate",
          "type": "uint256"
        },
        {
          "internalType": "uint256",
          "name": "_endDate",
          "type": "uint256"
        },
        {
          "internalType": "string[]",
          "name": "_name",
          "type": "string[]"
        },
        {
          "internalType": "string[]",
          "name": "_info",
          "type": "string[]"
        },
        {
          "internalType": "string[]",
          "name": "_image",
          "type": "string[]"
        },
        {
          "internalType": "string[]",
          "name": "_voters",
          "type": "string[]"
        }
      ],
      "name": "createElection",
      "outputs": [],
      "stateMutability": "nonpayable",
      "type": "function"
    },
    {
      "inputs": [
        {
          "internalType": "uint256",
          "name": "_elecID",
          "type": "uint256"
        },
        {
          "internalType": "uint256",
          "name": "_candID",
          "type": "uint256"
        },
        {
          "internalType": "string",
          "name": "_voterID",
          "type": "string"
        }
      ],
      "name": "createVote",
      "outputs": [],
      "stateMutability": "nonpayable",
      "type": "function"
    },
    {
      "inputs": [
        {
          "internalType": "uint256",
          "name": "_elecID",
          "type": "uint256"
        },
        {
          "internalType": "string",
          "name": "_voteID",
          "type": "string"
        }
      ],
      "name": "hasVoted",
      "outputs": [
        {
          "internalType": "bool",
          "name": "",
          "type": "bool"
        }
      ],
      "stateMutability": "view",
      "type": "function"
    }
  ],
  "bytecode": "0x60806040526000600255600060035560006004556000600855600060095534801561002957600080fd5b506040516200212f3803806200212f83398101604081905261004a9161007d565b600080546001600160a01b0319166001600160a01b03831617905550600180546001600160a01b031916331790556100ad565b60006020828403121561008f57600080fd5b81516001600160a01b03811681146100a657600080fd5b9392505050565b61207280620000bd6000396000f3fe608060405234801561001057600080fd5b50600436106101375760003560e01c80635df81330116100b8578063997d28301161007c578063997d2830146102e1578063a9f9fb5f146102ea578063bed34bba146102ff578063c53eeb2e14610312578063ddeea51d14610325578063ddf0b3da1461032e57600080fd5b80635df81330146102515780635e6fef01146102735780637da0a877146102965780638641a21b146102bb5780638da5cb5b146102ce57600080fd5b80633477ee2e116100ff5780633477ee2e146101a05780633e39a7a5146101c4578063486ff0cd146101e9578063572b6c051461020c57806357a834e01461023e57600080fd5b8063066d5dc71461013c5780631290bf9514610158578063167054fe1461016157806323c624de146101745780632d35a8a214610197575b600080fd5b61014560045481565b6040519081526020015b60405180910390f35b61014560035481565b61014561016f366004611a4f565b610341565b610187610182366004611a8b565b610499565b60405161014f9493929190611bba565b61014560085481565b6101b36101ae366004611c12565b61093d565b60405161014f959493929190611c2b565b6101d76101d2366004611c12565b610b04565b60405161014f96959493929190611c7c565b60408051808201825260018152603160f81b6020820152905161014f9190611cf1565b61022e61021a366004611d0b565b6000546001600160a01b0391821691161490565b604051901515815260200161014f565b61022e61024c366004611a8b565b61113c565b61026461025f366004611c12565b6112c0565b60405161014f93929190611d34565b610286610281366004611c12565b61136e565b60405161014f9493929190611d59565b6000546001600160a01b03165b6040516001600160a01b03909116815260200161014f565b61022e6102c9366004611c12565b611436565b6001546102a3906001600160a01b031681565b61014560095481565b6102fd6102f8366004611e1a565b6114a6565b005b61022e61030d366004611efe565b6116ef565b6102fd610320366004611f57565b611748565b61014560025481565b6102fd61033c366004611d0b565b6118af565b600080805b6007548110156104925760005b6007828154811061036657610366611fa6565b90600052602060002090600602016005018054905081101561047f5761045a6007838154811061039857610398611fa6565b906000526020600020906006020160050182815481106103ba576103ba611fa6565b906000526020600020906003020160000180546103d690611fbc565b80601f016020809104026020016040519081016040528092919081815260200182805461040290611fbc565b801561044f5780601f106104245761010080835404028352916020019161044f565b820191906000526020600020905b81548152906001019060200180831161043257829003601f168201915b5050505050866116ef565b1561046d578261046981611ff7565b9350505b8061047781611ff7565b915050610353565b508061048a81611ff7565b915050610346565b5092915050565b60608060608060006104aa86610341565b90506000816001600160401b038111156104c6576104c661199a565b6040519080825280602002602001820160405280156104ef578160200160208202803683370190505b5090506000826001600160401b0381111561050c5761050c61199a565b60405190808252806020026020018201604052801561053f57816020015b606081526020019060019003908161052a5790505b506007549091506000906001600160401b038111156105605761056061199a565b60405190808252806020026020018201604052801561059357816020015b606081526020019060019003908161057e5790505b506007549091506000906001600160401b038111156105b4576105b461199a565b6040519080825280602002602001820160405280156105dd578160200160208202803683370190505b5090506000805b60075481101561092a576007818154811061060157610601611fa6565b9060005260206000209060060201600001805461061d90611fbc565b80601f016020809104026020016040519081016040528092919081815260200182805461064990611fbc565b80156106965780601f1061066b57610100808354040283529160200191610696565b820191906000526020600020905b81548152906001019060200180831161067957829003601f168201915b50505050508482815181106106ad576106ad611fa6565b6020026020010181905250600781815481106106cb576106cb611fa6565b9060005260206000209060060201600501805490508382815181106106f2576106f2611fa6565b60200260200101818152505060005b6007828154811061071457610714611fa6565b906000526020600020906006020160050180549050811015610917576108086007838154811061074657610746611fa6565b9060005260206000209060060201600501828154811061076857610768611fa6565b9060005260206000209060030201600001805461078490611fbc565b80601f01602080910402602001604051908101604052809291908181526020018280546107b090611fbc565b80156107fd5780601f106107d2576101008083540402835291602001916107fd565b820191906000526020600020905b8154815290600101906020018083116107e057829003601f168201915b50505050508e6116ef565b15610905578187848151811061082057610820611fa6565b6020026020010181815250506007828154811061083f5761083f611fa6565b9060005260206000209060060201600001805461085b90611fbc565b80601f016020809104026020016040519081016040528092919081815260200182805461088790611fbc565b80156108d45780601f106108a9576101008083540402835291602001916108d4565b820191906000526020600020905b8154815290600101906020018083116108b757829003601f168201915b50505050508684815181106108eb576108eb611fa6565b6020026020010181905250828061090190611ff7565b9350505b8061090f81611ff7565b915050610701565b508061092281611ff7565b9150506105e4565b50939b929a509098509650945050505050565b6006602052600090815260409020805460018201546002830180549293919261096590611fbc565b80601f016020809104026020016040519081016040528092919081815260200182805461099190611fbc565b80156109de5780601f106109b3576101008083540402835291602001916109de565b820191906000526020600020905b8154815290600101906020018083116109c157829003601f168201915b5050505050908060030180546109f390611fbc565b80601f0160208091040260200160405190810160405280929190818152602001828054610a1f90611fbc565b8015610a6c5780601f10610a4157610100808354040283529160200191610a6c565b820191906000526020600020905b815481529060010190602001808311610a4f57829003601f168201915b505050505090806004018054610a8190611fbc565b80601f0160208091040260200160405190810160405280929190818152602001828054610aad90611fbc565b8015610afa5780601f10610acf57610100808354040283529160200191610afa565b820191906000526020600020905b815481529060010190602001808311610add57829003601f168201915b5050505050905085565b606080606080606060008060078881548110610b2257610b22611fa6565b9060005260206000209060060201600401805490506001600160401b03811115610b4e57610b4e61199a565b604051908082528060200260200182016040528015610b8157816020015b6060815260200190600190039081610b6c5790505b509050600060078981548110610b9957610b99611fa6565b9060005260206000209060060201600401805490506001600160401b03811115610bc557610bc561199a565b604051908082528060200260200182016040528015610bee578160200160208202803683370190505b509050600060078a81548110610c0657610c06611fa6565b9060005260206000209060060201600401805490506001600160401b03811115610c3257610c3261199a565b604051908082528060200260200182016040528015610c6557816020015b6060815260200190600190039081610c505790505b509050600060078b81548110610c7d57610c7d611fa6565b9060005260206000209060060201600401805490506001600160401b03811115610ca957610ca961199a565b604051908082528060200260200182016040528015610cdc57816020015b6060815260200190600190039081610cc75790505b509050600060078c81548110610cf457610cf4611fa6565b90600052602060002090600602016000018054610d1090611fbc565b80601f0160208091040260200160405190810160405280929190818152602001828054610d3c90611fbc565b8015610d895780601f10610d5e57610100808354040283529160200191610d89565b820191906000526020600020905b815481529060010190602001808311610d6c57829003601f168201915b50505050509050600060078d81548110610da557610da5611fa6565b906000526020600020906006020160020154905060005b60078e81548110610dcf57610dcf611fa6565b9060005260206000209060060201600401805490508110156111275760078e81548110610dfe57610dfe611fa6565b90600052602060002090600602016004018181548110610e2057610e20611fa6565b90600052602060002090600502016002018054610e3c90611fbc565b80601f0160208091040260200160405190810160405280929190818152602001828054610e6890611fbc565b8015610eb55780601f10610e8a57610100808354040283529160200191610eb5565b820191906000526020600020905b815481529060010190602001808311610e9857829003601f168201915b5050505050878281518110610ecc57610ecc611fa6565b602002602001018190525060078e81548110610eea57610eea611fa6565b90600052602060002090600602016004018181548110610f0c57610f0c611fa6565b906000526020600020906005020160010154868281518110610f3057610f30611fa6565b60200260200101818152505060078e81548110610f4f57610f4f611fa6565b90600052602060002090600602016004018181548110610f7157610f71611fa6565b90600052602060002090600502016003018054610f8d90611fbc565b80601f0160208091040260200160405190810160405280929190818152602001828054610fb990611fbc565b80156110065780601f10610fdb57610100808354040283529160200191611006565b820191906000526020600020905b815481529060010190602001808311610fe957829003601f168201915b505050505085828151811061101d5761101d611fa6565b602002602001018190525060078e8154811061103b5761103b611fa6565b9060005260206000209060060201600401818154811061105d5761105d611fa6565b9060005260206000209060050201600401805461107990611fbc565b80601f01602080910402602001604051908101604052809291908181526020018280546110a590611fbc565b80156110f25780601f106110c7576101008083540402835291602001916110f2565b820191906000526020600020905b8154815290600101906020018083116110d557829003601f168201915b505050505084828151811061110957611109611fa6565b6020026020010181905250808061111f90611ff7565b915050610dbc565b50949c939b5091995097509550909350915050565b600080805b6007858154811061115457611154611fa6565b9060005260206000209060060201600501805490508110156112b8576112486007868154811061118657611186611fa6565b906000526020600020906006020160050182815481106111a8576111a8611fa6565b906000526020600020906003020160000180546111c490611fbc565b80601f01602080910402602001604051908101604052809291908181526020018280546111f090611fbc565b801561123d5780601f106112125761010080835404028352916020019161123d565b820191906000526020600020905b81548152906001019060200180831161122057829003601f168201915b5050505050856116ef565b801561129c57506007858154811061126257611262611fa6565b9060005260206000209060060201600501818154811061128457611284611fa6565b600091825260209091206001600390920201015460ff165b156112a657600191505b806112b081611ff7565b915050611141565b509392505050565b6005602052600090815260409020805481906112db90611fbc565b80601f016020809104026020016040519081016040528092919081815260200182805461130790611fbc565b80156113545780601f1061132957610100808354040283529160200191611354565b820191906000526020600020905b81548152906001019060200180831161133757829003601f168201915b505050506001830154600290930154919260ff1691905083565b6007818154811061137e57600080fd5b90600052602060002090600602016000915090508060000180546113a190611fbc565b80601f01602080910402602001604051908101604052809291908181526020018280546113cd90611fbc565b801561141a5780601f106113ef5761010080835404028352916020019161141a565b820191906000526020600020905b8154815290600101906020018083116113fd57829003601f168201915b5050505050908060010154908060020154908060030154905084565b6007805460009182914291908590811061145257611452611fa6565b906000526020600020906006020160010154811015801561149757506007848154811061148157611481611fa6565b9060005260206000209060060201600201548111155b15610492575060019392505050565b60078054600101808255600082815260095490929181106114c9576114c9611fa6565b906000526020600020906006020190506009548160030181905550878160000190805190602001906114fc929190611901565b50600181018790556002810186905560005b855181101561162357816004016040518060a00160405280600181526020016000815260200188848151811061154657611546611fa6565b6020026020010151815260200187848151811061156557611565611fa6565b6020026020010151815260200186848151811061158457611584611fa6565b60209081029190910181015190915282546001818101855560009485529382902083516005909202019081558282015193810193909355604082015180519293926115d59260028501920190611901565b50606082015180516115f1916003840191602090910190611901565b506080820151805161160d916004840191602090910190611901565b505050808061161b90611ff7565b91505061150e565b5060005b82518110156116cf5781600501604051806060016040528085848151811061165157611651611fa6565b602090810291909101810151825260008282018190526040909201829052835460018101855593825290819020825180519394600302909101926116989284920190611901565b50602082015160018201805460ff1916911515919091179055604090910151600290910155806116c781611ff7565b915050611627565b50600980549060006116e083611ff7565b91905055505050505050505050565b6000816040516020016117029190612020565b60405160208183030381529060405280519060200120836040516020016117299190612020565b6040516020818303038152906040528051906020012014905092915050565b611752838261113c565b158015611763575061176383611436565b6117c25760405162461bcd60e51b815260206004820152602560248201527f416c726561647920566f746564206f7220456c656374696f6e206973206e6f74604482015264206c69766560d81b60648201526084015b60405180910390fd5b600783815481106117d5576117d5611fa6565b906000526020600020906006020160040182815481106117f7576117f7611fa6565b60009182526020822060016005909202010180549161181583611ff7565b91905055506007838154811061182d5761182d611fa6565b6000918252602080832060408051606081018252868152600181850181905291810188905260069490940290910160050180549182018155845292819020825180519394600302909101926118859284920190611901565b50602082015160018201805460ff1916911515919091179055604090910151600290910155505050565b6001546001600160a01b031633146118e35760405162461bcd60e51b815260206004820152600060248201526044016117b9565b600080546001600160a01b0319166001600160a01b03831617905550565b82805461190d90611fbc565b90600052602060002090601f01602090048101928261192f5760008555611975565b82601f1061194857805160ff1916838001178555611975565b82800160010185558215611975579182015b8281111561197557825182559160200191906001019061195a565b50611981929150611985565b5090565b5b808211156119815760008155600101611986565b634e487b7160e01b600052604160045260246000fd5b604051601f8201601f191681016001600160401b03811182821017156119d8576119d861199a565b604052919050565b600082601f8301126119f157600080fd5b81356001600160401b03811115611a0a57611a0a61199a565b611a1d601f8201601f19166020016119b0565b818152846020838601011115611a3257600080fd5b816020850160208301376000918101602001919091529392505050565b600060208284031215611a6157600080fd5b81356001600160401b03811115611a7757600080fd5b611a83848285016119e0565b949350505050565b60008060408385031215611a9e57600080fd5b8235915060208301356001600160401b03811115611abb57600080fd5b611ac7858286016119e0565b9150509250929050565b600081518084526020808501945080840160005b83811015611b0157815187529582019590820190600101611ae5565b509495945050505050565b60005b83811015611b27578181015183820152602001611b0f565b83811115611b36576000848401525b50505050565b60008151808452611b54816020860160208601611b0c565b601f01601f19169290920160200192915050565b6000815180845260208085019450848260051b860182860160005b85811015611bad578383038952611b9b838351611b3c565b98850198925090840190600101611b83565b5090979650505050505050565b608081526000611bcd6080830187611ad1565b8281036020840152611bdf8187611b68565b90508281036040840152611bf38186611b68565b90508281036060840152611c078185611ad1565b979650505050505050565b600060208284031215611c2457600080fd5b5035919050565b85815284602082015260a060408201526000611c4a60a0830186611b3c565b8281036060840152611c5c8186611b3c565b90508281036080840152611c708185611b3c565b98975050505050505050565b60c081526000611c8f60c0830189611b68565b8281036020840152611ca18189611ad1565b90508281036040840152611cb58188611b68565b90508281036060840152611cc98187611b68565b90508281036080840152611cdd8186611b3c565b9150508260a0830152979650505050505050565b602081526000611d046020830184611b3c565b9392505050565b600060208284031215611d1d57600080fd5b81356001600160a01b0381168114611d0457600080fd5b606081526000611d476060830186611b3c565b93151560208301525060400152919050565b608081526000611d6c6080830187611b3c565b6020830195909552506040810192909252606090910152919050565b600082601f830112611d9957600080fd5b813560206001600160401b0380831115611db557611db561199a565b8260051b611dc48382016119b0565b9384528581018301938381019088861115611dde57600080fd5b84880192505b85831015611c7057823584811115611dfc5760008081fd5b611e0a8a87838c01016119e0565b8352509184019190840190611de4565b600080600080600080600060e0888a031215611e3557600080fd5b87356001600160401b0380821115611e4c57600080fd5b611e588b838c016119e0565b985060208a0135975060408a0135965060608a0135915080821115611e7c57600080fd5b611e888b838c01611d88565b955060808a0135915080821115611e9e57600080fd5b611eaa8b838c01611d88565b945060a08a0135915080821115611ec057600080fd5b611ecc8b838c01611d88565b935060c08a0135915080821115611ee257600080fd5b50611eef8a828b01611d88565b91505092959891949750929550565b60008060408385031215611f1157600080fd5b82356001600160401b0380821115611f2857600080fd5b611f34868387016119e0565b93506020850135915080821115611f4a57600080fd5b50611ac7858286016119e0565b600080600060608486031215611f6c57600080fd5b833592506020840135915060408401356001600160401b03811115611f9057600080fd5b611f9c868287016119e0565b9150509250925092565b634e487b7160e01b600052603260045260246000fd5b600181811c90821680611fd057607f821691505b60208210811415611ff157634e487b7160e01b600052602260045260246000fd5b50919050565b600060001982141561201957634e487b7160e01b600052601160045260246000fd5b5060010190565b60008251612032818460208701611b0c565b919091019291505056fea2646970667358221220d116ae240b7a47bfd2c91a13bd771660d728fe353b41971edc8f894810b1eb0864736f6c63430008090033",
  "immutableReferences": {},
  "source": "pragma solidity ^0.8.2;\r\n\r\nimport \"@opengsn/contracts/src/BaseRelayRecipient.sol\";\r\n\r\ncontract Election is BaseRelayRecipient{\r\n    //Vote[] public votes;\r\n    address public owner;\r\n\r\n    uint256 public cand1Count = 0;\r\n    uint256 public cand2Count = 0;\r\n    uint256 public voteID = 0;\r\n\r\n    struct Vote {\r\n        string voteID;\r\n        bool hasVoted;\r\n        uint256 candidateID;\r\n    }\r\n\r\n    struct Candidate {\r\n        uint256 candidateID;\r\n        uint256 voteCount;\r\n        string name;\r\n        string info;\r\n        string image;\r\n        \r\n    }\r\n\r\n    struct Elections {\r\n        string elecName;\r\n        uint256 startTime;\r\n        uint256 endTime;\r\n        uint256 elecID;\r\n        Candidate[] candidates;\r\n        Vote[] voters;\r\n    }\r\n\r\n    mapping(uint256 => Vote) public votes;\r\n    mapping(uint256 => Candidate) public candidates;\r\n    //mapping(uint256 => Elections) public elections;\r\n\r\n    modifier onlyOwner() {\r\n        require(owner == msg.sender, \"\");\r\n        _;\r\n    }\r\n\r\n    //mapping(Elections=>mapping(uint=>Candidate public elections)) elect;\r\n\r\n    Elections[] public elections;\r\n\r\n    uint256 public candidatesCount = 0;\r\n    uint256 public electionCount = 0;\r\n\r\n    //constructor() public {}\r\n\r\n    /**\r\n     * Set the trustedForwarder address either in constructor or\r\n     * in other init function in your contract\r\n     */\r\n    constructor(address _trustedForwarder) {\r\n        _setTrustedForwarder(_trustedForwarder);\r\n        //data = \"Hello Metatransaction\";\r\n        owner = msg.sender;\r\n    }\r\n\r\n    /**\r\n     * OPTIONAL\r\n     * You should add one setTrustedForwarder(address _trustedForwarder)\r\n     * method with onlyOwner modifier so you can change the trusted\r\n     * forwarder address to switch to some other meta transaction protocol\r\n     * if any better protocol comes tomorrow or current one is upgraded.\r\n     */\r\n    function setTrustForwarder(address _trustedForwarder) public onlyOwner {\r\n        _setTrustedForwarder(_trustedForwarder);\r\n    }\r\n\r\n    /**\r\n     * Override this function.\r\n     * This version is to keep track of BaseRelayRecipient you are using\r\n     * in your contract.\r\n     */\r\n    function versionRecipient() external pure override returns (string memory) {\r\n        return \"1\";\r\n    }\r\n\r\n    //Return arrays of candidate details\r\n\r\n    function compareStrings(string memory a, string memory b) public view returns (bool) {\r\n        return (keccak256(abi.encodePacked((a))) == keccak256(abi.encodePacked((b))));\r\n    }\r\n\r\n    function isElectionLive(uint256 _elecID) public view returns (bool) {\r\n\r\n        bool isLive = false;\r\n\r\n        uint256 lastUpdated = block.timestamp;\r\n\r\n        if (lastUpdated >= elections[_elecID].startTime && lastUpdated <= elections[_elecID].endTime) {\r\n            isLive = true;\r\n        } \r\n\r\n        return (isLive);\r\n    }\r\n\r\n    //Return arrays of candidate details\r\n\r\n    function getCandidates(uint256 _elecID) public view returns (string[] memory, uint256[] memory, string[] memory, string[] memory, string memory, uint256) {\r\n\r\n        string[] memory names = new string[](elections[_elecID].candidates.length);\r\n        uint256[] memory voteCounts = new uint256[](elections[_elecID].candidates.length);\r\n        string[] memory info = new string[](elections[_elecID].candidates.length);\r\n        string[] memory image = new string[](elections[_elecID].candidates.length);\r\n        string memory elecName = elections[_elecID].elecName;\r\n        //uint256 startTime = elections[_elecID].startTime;\r\n        uint256 endTime = elections[_elecID].endTime;\r\n        \r\n\r\n        for(uint i = 0; i < elections[_elecID].candidates.length; i++){\r\n            names[i] = elections[_elecID].candidates[i].name;\r\n            voteCounts[i] = elections[_elecID].candidates[i].voteCount;\r\n            info[i] = elections[_elecID].candidates[i].info;\r\n            image[i] = elections[_elecID].candidates[i].image;\r\n            \r\n        }\r\n        return (names, voteCounts, info, image, elecName, endTime);\r\n    }\r\n\r\n    function getElection(uint256 _elecID, string memory _voteID) public view returns (uint256[] memory, string[] memory, string[] memory, uint256[] memory) {\r\n\r\n        uint256 numElections = getElectionCount(_voteID);\r\n\r\n        uint256[] memory elecIDs = new uint256[](numElections);\r\n        string[] memory elecNames = new string[](numElections);\r\n\r\n        string[] memory TopElecNames = new string[](elections.length);\r\n        uint256[] memory VotersCount = new uint256[](elections.length);\r\n\r\n        uint256 count = 0;\r\n\r\n        for(uint i = 0; i < elections.length; i++){\r\n\r\n            TopElecNames[i] = elections[i].elecName;\r\n            VotersCount[i] = elections[i].voters.length;\r\n            \r\n            for(uint256 j=0; j < elections[i].voters.length; j++) {\r\n            //elections[_elecID].voters[i]\r\n            \r\n            \r\n\r\n                if(compareStrings(elections[i].voters[j].voteID, _voteID)){\r\n                    elecIDs[count] = i;\r\n                    elecNames[count] = elections[i].elecName;\r\n                    count++;\r\n                } \r\n        }\r\n        }\r\n            \r\n        \r\n        \r\n        return (elecIDs, elecNames, TopElecNames, VotersCount);\r\n    }\r\n\r\n    // function getTopPolls(string memory _voteID) public view returns (uint256[] memory, string[] memory) {\r\n\r\n    //     uint256 numElections = getElectionCount(_voteID);\r\n\r\n    //     uint256[] memory elecIDs = new uint256[](10);\r\n    //     string[] memory elecNames = new string[](10);\r\n\r\n    //     uint256 count = 0;\r\n\r\n    //     for(uint i = 0; i < elections.length; i++){\r\n            \r\n    //         for(uint256 j=0; j < elections[i].voters.length; j++) {\r\n    //         //elections[_elecID].voters[i]\r\n\r\n    //             if(elections[i].voters[j].length){\r\n    //                 elecIDs[count] = i;\r\n    //                 elecNames[count] = elections[i].elecName;\r\n    //                 count++;\r\n    //             } \r\n    //     }\r\n    //     }\r\n            \r\n        \r\n        \r\n    //     return (elecIDs, elecNames);\r\n    // }\r\n\r\n    function getElectionCount(string memory _voteID) public view returns (uint256) {\r\n\r\n        //uint256[] memory elecIDs = new uint256[](elections.length);\r\n        //string[] memory elecNames = new string[](elections.length);\r\n\r\n        uint256 count = 0;\r\n\r\n        for(uint i = 0; i < elections.length; i++){\r\n            \r\n            for(uint256 j=0; j < elections[i].voters.length; j++) {\r\n            //elections[_elecID].voters[i]\r\n\r\n                if(compareStrings(elections[i].voters[j].voteID, _voteID)){\r\n\r\n                    count++;\r\n                } \r\n        }\r\n        }\r\n            \r\n        \r\n        \r\n        return (count);\r\n    }\r\n\r\n    \r\n\r\n\r\n    function createElection(string memory _elecName, uint256 _startDate, uint256 _endDate, string[] memory _name, string[] memory _info, string[] memory _image, string[] memory _voters) public {\r\n        elections.push();\r\n        \r\n        Elections storage e = elections[electionCount];\r\n        e.elecID = electionCount;\r\n        e.elecName = _elecName;\r\n        e.startTime = _startDate;\r\n        e.endTime = _endDate;\r\n\r\n        for(uint256 i=0; i < _name.length; i++) {\r\n            e.candidates.push(Candidate(1, 0, _name[i], _info[i], _image[i]));\r\n        }\r\n\r\n        for(uint256 i=0; i < _voters.length; i++) {\r\n            e.voters.push(Vote(_voters[i], false, 0));\r\n        }\r\n\r\n        electionCount++;\r\n    }\r\n\r\n    function createVote(uint256 _elecID, uint256 _candID, string memory _voterID) public {\r\n\r\n        require(hasVoted(_elecID, _voterID) == false && isElectionLive(_elecID), \"Already Voted or Election is not live\");\r\n        \r\n        elections[_elecID].candidates[_candID].voteCount++; \r\n\r\n        elections[_elecID].voters.push(Vote(_voterID, true, _candID));    \r\n    }\r\n\r\n    function hasVoted(uint256 _elecID, string memory _voteID) public view returns (bool) {\r\n\r\n        bool valid = false;\r\n        \r\n        for(uint256 i=0; i < elections[_elecID].voters.length; i++) {\r\n            //elections[_elecID].voters[i]\r\n\r\n            if(compareStrings(elections[_elecID].voters[i].voteID, _voteID) && elections[_elecID].voters[i].hasVoted){\r\n                valid = true;\r\n            } \r\n        }\r\n\r\n        return valid;\r\n    }\r\n\r\n    //function \r\n}\r\n\r\n",
  "sourcePath": "C:\\Users\\David\\Desktop\\PROJECT\\Blockchain-E-Voting\\Truffle\\contracts\\poll.sol",
  "compiler": {
    "name": "solc",
    "version": "0.8.9+commit.e5eed63a.Emscripten.clang"
  },
  "schemaVersion": "3.4.6",
  "updatedAt": "2022-04-13T14:06:30.243Z",
  "devdoc": {
    "kind": "dev",
    "methods": {},
    "version": 1
  },
  "userdoc": {
    "kind": "user",
    "methods": {
      "constructor": {
        "notice": "Set the trustedForwarder address either in constructor or in other init function in your contract"
      },
      "isTrustedForwarder(address)": {
        "notice": "return if the forwarder is trusted to forward relayed transactions to us. the forwarder is required to verify the sender's signature, and verify the call is not a replay."
      },
      "setTrustForwarder(address)": {
        "notice": "OPTIONAL You should add one setTrustedForwarder(address _trustedForwarder) method with onlyOwner modifier so you can change the trusted forwarder address to switch to some other meta transaction protocol if any better protocol comes tomorrow or current one is upgraded."
      },
      "versionRecipient()": {
        "notice": "Override this function. This version is to keep track of BaseRelayRecipient you are using in your contract."
      }
    },
    "version": 1
  }
}