{
  "contractName": "Election",
  "abi": [
    {
      "inputs": [
        {
          "internalType": "address",
          "name": "_trustedForwarder",
          "type": "address"
        }
      ],
      "stateMutability": "nonpayable",
      "type": "constructor"
    },
    {
      "inputs": [],
      "name": "cand1Count",
      "outputs": [
        {
          "internalType": "uint256",
          "name": "",
          "type": "uint256"
        }
      ],
      "stateMutability": "view",
      "type": "function",
      "constant": true
    },
    {
      "inputs": [],
      "name": "cand2Count",
      "outputs": [
        {
          "internalType": "uint256",
          "name": "",
          "type": "uint256"
        }
      ],
      "stateMutability": "view",
      "type": "function",
      "constant": true
    },
    {
      "inputs": [
        {
          "internalType": "uint256",
          "name": "",
          "type": "uint256"
        }
      ],
      "name": "candidates",
      "outputs": [
        {
          "internalType": "uint256",
          "name": "candidateID",
          "type": "uint256"
        },
        {
          "internalType": "uint256",
          "name": "voteCount",
          "type": "uint256"
        },
        {
          "internalType": "string",
          "name": "name",
          "type": "string"
        },
        {
          "internalType": "string",
          "name": "info",
          "type": "string"
        }
      ],
      "stateMutability": "view",
      "type": "function",
      "constant": true
    },
    {
      "inputs": [],
      "name": "candidatesCount",
      "outputs": [
        {
          "internalType": "uint256",
          "name": "",
          "type": "uint256"
        }
      ],
      "stateMutability": "view",
      "type": "function",
      "constant": true
    },
    {
      "inputs": [],
      "name": "electionCount",
      "outputs": [
        {
          "internalType": "uint256",
          "name": "",
          "type": "uint256"
        }
      ],
      "stateMutability": "view",
      "type": "function",
      "constant": true
    },
    {
      "inputs": [
        {
          "internalType": "uint256",
          "name": "",
          "type": "uint256"
        }
      ],
      "name": "elections",
      "outputs": [
        {
          "internalType": "uint256",
          "name": "elecID",
          "type": "uint256"
        }
      ],
      "stateMutability": "view",
      "type": "function",
      "constant": true
    },
    {
      "inputs": [
        {
          "internalType": "address",
          "name": "forwarder",
          "type": "address"
        }
      ],
      "name": "isTrustedForwarder",
      "outputs": [
        {
          "internalType": "bool",
          "name": "",
          "type": "bool"
        }
      ],
      "stateMutability": "view",
      "type": "function",
      "constant": true
    },
    {
      "inputs": [],
      "name": "owner",
      "outputs": [
        {
          "internalType": "address",
          "name": "",
          "type": "address"
        }
      ],
      "stateMutability": "view",
      "type": "function",
      "constant": true
    },
    {
      "inputs": [],
      "name": "trustedForwarder",
      "outputs": [
        {
          "internalType": "address",
          "name": "",
          "type": "address"
        }
      ],
      "stateMutability": "view",
      "type": "function",
      "constant": true
    },
    {
      "inputs": [],
      "name": "voteID",
      "outputs": [
        {
          "internalType": "uint256",
          "name": "",
          "type": "uint256"
        }
      ],
      "stateMutability": "view",
      "type": "function",
      "constant": true
    },
    {
      "inputs": [
        {
          "internalType": "uint256",
          "name": "",
          "type": "uint256"
        }
      ],
      "name": "votes",
      "outputs": [
        {
          "internalType": "uint256",
          "name": "voteID",
          "type": "uint256"
        },
        {
          "internalType": "bool",
          "name": "hasVoted",
          "type": "bool"
        },
        {
          "internalType": "uint256",
          "name": "candidateID",
          "type": "uint256"
        }
      ],
      "stateMutability": "view",
      "type": "function",
      "constant": true
    },
    {
      "inputs": [
        {
          "internalType": "address",
          "name": "_trustedForwarder",
          "type": "address"
        }
      ],
      "name": "setTrustForwarder",
      "outputs": [],
      "stateMutability": "nonpayable",
      "type": "function"
    },
    {
      "inputs": [],
      "name": "versionRecipient",
      "outputs": [
        {
          "internalType": "string",
          "name": "",
          "type": "string"
        }
      ],
      "stateMutability": "pure",
      "type": "function",
      "constant": true
    },
    {
      "inputs": [
        {
          "internalType": "uint256",
          "name": "_elecID",
          "type": "uint256"
        }
      ],
      "name": "getCandidates",
      "outputs": [
        {
          "internalType": "string[]",
          "name": "",
          "type": "string[]"
        },
        {
          "internalType": "uint256[]",
          "name": "",
          "type": "uint256[]"
        },
        {
          "internalType": "string[]",
          "name": "",
          "type": "string[]"
        }
      ],
      "stateMutability": "view",
      "type": "function",
      "constant": true
    },
    {
      "inputs": [
        {
          "internalType": "string[]",
          "name": "_name",
          "type": "string[]"
        },
        {
          "internalType": "string[]",
          "name": "_info",
          "type": "string[]"
        }
      ],
      "name": "createElection",
      "outputs": [],
      "stateMutability": "nonpayable",
      "type": "function"
    },
    {
      "inputs": [
        {
          "internalType": "uint256",
          "name": "_elecID",
          "type": "uint256"
        },
        {
          "internalType": "uint256",
          "name": "_candID",
          "type": "uint256"
        }
      ],
      "name": "createVote",
      "outputs": [],
      "stateMutability": "nonpayable",
      "type": "function"
    },
    {
      "inputs": [
        {
          "internalType": "uint256",
          "name": "_elecID",
          "type": "uint256"
        },
        {
          "internalType": "uint256",
          "name": "_voteID",
          "type": "uint256"
        }
      ],
      "name": "hasVoted",
      "outputs": [
        {
          "internalType": "bool",
          "name": "",
          "type": "bool"
        }
      ],
      "stateMutability": "view",
      "type": "function",
      "constant": true
    }
  ],
  "bytecode": "0x60806040526000600255600060035560006004556000600855600060095534801561002957600080fd5b506040516110893803806110898339810160408190526100489161007b565b600080546001600160a01b0319166001600160a01b03831617905550600180546001600160a01b031916331790556100ab565b60006020828403121561008d57600080fd5b81516001600160a01b03811681146100a457600080fd5b9392505050565b610fcf806100ba6000396000f3fe608060405234801561001057600080fd5b506004361061010b5760003560e01c8063572b6c05116100a25780637da0a877116100715780637da0a877146102735780638da5cb5b14610298578063997d2830146102ab578063ddeea51d146102b4578063ddf0b3da146102bd57600080fd5b8063572b6c05146101ce5780635df81330146102005780635e6fef011461024d57806364390ff11461026057600080fd5b80633477ee2e116100de5780633477ee2e146101535780633b26ad7f146101765780633e39a7a514610189578063486ff0cd146101ab57600080fd5b8063066d5dc7146101105780631290bf951461012c5780631b468312146101355780632d35a8a21461014a575b600080fd5b61011960045481565b6040519081526020015b60405180910390f35b61011960035481565b610148610143366004610bb6565b6102d0565b005b61011960085481565b610166610161366004610bd8565b6103a4565b6040516101239493929190610c3e565b610148610184366004610db6565b6104dd565b61019c610197366004610bd8565b61060d565b60405161012393929190610e72565b60408051808201825260018152603160f81b602082015290516101239190610edc565b6101f06101dc366004610ef6565b6000546001600160a01b0391821691161490565b6040519015158152602001610123565b61023261020e366004610bd8565b600560205260009081526040902080546001820154600290920154909160ff169083565b60408051938452911515602084015290820152606001610123565b61011961025b366004610bd8565b610a00565b6101f061026e366004610bb6565b610a26565b6000546001600160a01b03165b6040516001600160a01b039091168152602001610123565b600154610280906001600160a01b031681565b61011960095481565b61011960025481565b6101486102cb366004610ef6565b610ac7565b600782815481106102e3576102e3610f1f565b9060005260206000209060030201600101818154811061030557610305610f1f565b60009182526020822060016004909202010180549161032383610f35565b91905055506007828154811061033b5761033b610f1f565b600091825260208083206040805160608101825260018082528185018181529282019788526003958602909301600290810180548086018255908852949096209051939094029093019182559151918101805460ff191692151592909217909155915191015550565b600660205260009081526040902080546001820154600283018054929391926103cc90610f5e565b80601f01602080910402602001604051908101604052809291908181526020018280546103f890610f5e565b80156104455780601f1061041a57610100808354040283529160200191610445565b820191906000526020600020905b81548152906001019060200180831161042857829003601f168201915b50505050509080600301805461045a90610f5e565b80601f016020809104026020016040519081016040528092919081815260200182805461048690610f5e565b80156104d35780601f106104a8576101008083540402835291602001916104d3565b820191906000526020600020905b8154815290600101906020018083116104b657829003601f168201915b5050505050905084565b600780546001018082556000828152600954909291811061050057610500610f1f565b60009182526020822060095460039092020190815591505b83518110156105f257816001016040518060800160405280600181526020016000815260200186848151811061055057610550610f1f565b6020026020010151815260200185848151811061056f5761056f610f1f565b60209081029190910181015190915282546001818101855560009485529382902083516004909202019081558282015193810193909355604082015180519293926105c09260028501920190610b1d565b50606082015180516105dc916003840191602090910190610b1d565b50505080806105ea90610f35565b915050610518565b506009805490600061060383610f35565b9190505550505050565b606080606060006007858154811061062757610627610f1f565b90600052602060002090600302016001018054905067ffffffffffffffff81111561065457610654610c7a565b60405190808252806020026020018201604052801561068757816020015b60608152602001906001900390816106725790505b50905060006007868154811061069f5761069f610f1f565b90600052602060002090600302016001018054905067ffffffffffffffff8111156106cc576106cc610c7a565b6040519080825280602002602001820160405280156106f5578160200160208202803683370190505b50905060006007878154811061070d5761070d610f1f565b90600052602060002090600302016001018054905067ffffffffffffffff81111561073a5761073a610c7a565b60405190808252806020026020018201604052801561076d57816020015b60608152602001906001900390816107585790505b50905060005b6007888154811061078657610786610f1f565b9060005260206000209060030201600101805490508110156109f257600788815481106107b5576107b5610f1f565b906000526020600020906003020160010181815481106107d7576107d7610f1f565b906000526020600020906004020160020180546107f390610f5e565b80601f016020809104026020016040519081016040528092919081815260200182805461081f90610f5e565b801561086c5780601f106108415761010080835404028352916020019161086c565b820191906000526020600020905b81548152906001019060200180831161084f57829003601f168201915b505050505084828151811061088357610883610f1f565b6020026020010181905250600788815481106108a1576108a1610f1f565b906000526020600020906003020160010181815481106108c3576108c3610f1f565b9060005260206000209060040201600101548382815181106108e7576108e7610f1f565b6020026020010181815250506007888154811061090657610906610f1f565b9060005260206000209060030201600101818154811061092857610928610f1f565b9060005260206000209060040201600301805461094490610f5e565b80601f016020809104026020016040519081016040528092919081815260200182805461097090610f5e565b80156109bd5780601f10610992576101008083540402835291602001916109bd565b820191906000526020600020905b8154815290600101906020018083116109a057829003601f168201915b50505050508282815181106109d4576109d4610f1f565b602002602001018190525080806109ea90610f35565b915050610773565b509196909550909350915050565b60078181548110610a1057600080fd5b6000918252602090912060039091020154905081565b600080805b60078581548110610a3e57610a3e610f1f565b906000526020600020906003020160020180549050811015610abf578360078681548110610a6e57610a6e610f1f565b90600052602060002090600302016002018281548110610a9057610a90610f1f565b9060005260206000209060030201600001541415610aad57600191505b80610ab781610f35565b915050610a2b565b509392505050565b6001546001600160a01b03163314610aff5760405162461bcd60e51b8152602060048201526000602482015260440160405180910390fd5b600080546001600160a01b0319166001600160a01b03831617905550565b828054610b2990610f5e565b90600052602060002090601f016020900481019282610b4b5760008555610b91565b82601f10610b6457805160ff1916838001178555610b91565b82800160010185558215610b91579182015b82811115610b91578251825591602001919060010190610b76565b50610b9d929150610ba1565b5090565b5b80821115610b9d5760008155600101610ba2565b60008060408385031215610bc957600080fd5b50508035926020909101359150565b600060208284031215610bea57600080fd5b5035919050565b6000815180845260005b81811015610c1757602081850181015186830182015201610bfb565b81811115610c29576000602083870101525b50601f01601f19169290920160200192915050565b848152836020820152608060408201526000610c5d6080830185610bf1565b8281036060840152610c6f8185610bf1565b979650505050505050565b634e487b7160e01b600052604160045260246000fd5b604051601f8201601f1916810167ffffffffffffffff81118282101715610cb957610cb9610c7a565b604052919050565b6000601f8381840112610cd357600080fd5b8235602067ffffffffffffffff80831115610cf057610cf0610c7a565b8260051b610cff838201610c90565b9384528681018301938381019089861115610d1957600080fd5b84890192505b85831015610da957823584811115610d375760008081fd5b8901603f81018b13610d495760008081fd5b85810135604086821115610d5f57610d5f610c7a565b610d70828b01601f19168901610c90565b8281528d82848601011115610d855760008081fd5b828285018a8301376000928101890192909252508352509184019190840190610d1f565b9998505050505050505050565b60008060408385031215610dc957600080fd5b823567ffffffffffffffff80821115610de157600080fd5b610ded86838701610cc1565b93506020850135915080821115610e0357600080fd5b50610e1085828601610cc1565b9150509250929050565b600082825180855260208086019550808260051b84010181860160005b84811015610e6557601f19868403018952610e53838351610bf1565b98840198925090830190600101610e37565b5090979650505050505050565b606081526000610e856060830186610e1a565b82810360208481019190915285518083528682019282019060005b81811015610ebc57845183529383019391830191600101610ea0565b50508481036040860152610ed08187610e1a565b98975050505050505050565b602081526000610eef6020830184610bf1565b9392505050565b600060208284031215610f0857600080fd5b81356001600160a01b0381168114610eef57600080fd5b634e487b7160e01b600052603260045260246000fd5b6000600019821415610f5757634e487b7160e01b600052601160045260246000fd5b5060010190565b600181811c90821680610f7257607f821691505b60208210811415610f9357634e487b7160e01b600052602260045260246000fd5b5091905056fea264697066735822122090f56ca4c33f5d87aad059cc03aaf8bb58e3f151e6aef5519eb4a371f0a4079f64736f6c63430008090033",
  "immutableReferences": {},
  "source": "pragma solidity ^0.8.2;\r\n\r\nimport \"@opengsn/contracts/src/BaseRelayRecipient.sol\";\r\n\r\ncontract Election is BaseRelayRecipient{\r\n    //Vote[] public votes;\r\n    address public owner;\r\n\r\n    uint256 public cand1Count = 0;\r\n    uint256 public cand2Count = 0;\r\n    uint256 public voteID = 0;\r\n\r\n    struct Vote {\r\n        uint256 voteID;\r\n        bool hasVoted;\r\n        uint256 candidateID;\r\n    }\r\n\r\n    struct Candidate {\r\n        uint256 candidateID;\r\n        uint256 voteCount;\r\n        string name;\r\n        string info;\r\n    }\r\n\r\n    struct Elections {\r\n        uint256 elecID;\r\n        Candidate[] candidates;\r\n        Vote[] voters;\r\n    }\r\n\r\n    mapping(uint256 => Vote) public votes;\r\n    mapping(uint256 => Candidate) public candidates;\r\n    //mapping(uint256 => Elections) public elections;\r\n\r\n    modifier onlyOwner() {\r\n        require(owner == msg.sender, \"\");\r\n        _;\r\n    }\r\n\r\n    //mapping(Elections=>mapping(uint=>Candidate public elections)) elect;\r\n\r\n    Elections[] public elections;\r\n\r\n    uint256 public candidatesCount = 0;\r\n    uint256 public electionCount = 0;\r\n\r\n    //constructor() public {}\r\n\r\n    /**\r\n     * Set the trustedForwarder address either in constructor or\r\n     * in other init function in your contract\r\n     */\r\n    constructor(address _trustedForwarder) {\r\n        _setTrustedForwarder(_trustedForwarder);\r\n        //data = \"Hello Metatransaction\";\r\n        owner = msg.sender;\r\n    }\r\n\r\n    /**\r\n     * OPTIONAL\r\n     * You should add one setTrustedForwarder(address _trustedForwarder)\r\n     * method with onlyOwner modifier so you can change the trusted\r\n     * forwarder address to switch to some other meta transaction protocol\r\n     * if any better protocol comes tomorrow or current one is upgraded.\r\n     */\r\n    function setTrustForwarder(address _trustedForwarder) public onlyOwner {\r\n        _setTrustedForwarder(_trustedForwarder);\r\n    }\r\n\r\n    /**\r\n     * Override this function.\r\n     * This version is to keep track of BaseRelayRecipient you are using\r\n     * in your contract.\r\n     */\r\n    function versionRecipient() external pure override returns (string memory) {\r\n        return \"1\";\r\n    }\r\n\r\n    //Return arrays of candidate details\r\n\r\n    function getCandidates(uint256 _elecID)\r\n        public\r\n        view\r\n        returns (\r\n            string[] memory,\r\n            uint256[] memory,\r\n            string[] memory\r\n        )\r\n    {\r\n        string[] memory names = new string[](\r\n            elections[_elecID].candidates.length\r\n        );\r\n        uint256[] memory voteCounts = new uint256[](\r\n            elections[_elecID].candidates.length\r\n        );\r\n        string[] memory info = new string[](\r\n            elections[_elecID].candidates.length\r\n        );\r\n\r\n        for (uint256 i = 0; i < elections[_elecID].candidates.length; i++) {\r\n            names[i] = elections[_elecID].candidates[i].name;\r\n            voteCounts[i] = elections[_elecID].candidates[i].voteCount;\r\n            info[i] = elections[_elecID].candidates[i].info;\r\n        }\r\n        return (names, voteCounts, info);\r\n    }\r\n\r\n    function createElection(string[] memory _name, string[] memory _info)\r\n        public\r\n    {\r\n        elections.push();\r\n\r\n        Elections storage e = elections[electionCount];\r\n        e.elecID = electionCount;\r\n\r\n        for (uint256 i = 0; i < _name.length; i++) {\r\n            e.candidates.push(Candidate(1, 0, _name[i], _info[i]));\r\n        }\r\n\r\n        electionCount++;\r\n    }\r\n\r\n    function createVote(uint256 _elecID, uint256 _candID) public {\r\n        elections[_elecID].candidates[_candID].voteCount++;\r\n\r\n        elections[_elecID].voters.push(Vote(1, true, _candID));\r\n    }\r\n\r\n    function hasVoted(uint256 _elecID, uint256 _voteID)\r\n        public\r\n        view\r\n        returns (bool)\r\n    {\r\n        bool valid = false;\r\n\r\n        for (uint256 i = 0; i < elections[_elecID].voters.length; i++) {\r\n            //elections[_elecID].voters[i]\r\n\r\n            if (elections[_elecID].voters[i].voteID == _voteID) {\r\n                valid = true;\r\n            }\r\n        }\r\n\r\n        return valid;\r\n    }\r\n\r\n    //function\r\n}\r\n",
  "sourcePath": "C:\\Users\\David\\Desktop\\PROJECT\\Blockchain-E-Voting\\Truffle\\contracts\\election.sol",
  "compiler": {
    "name": "solc",
    "version": "0.8.9+commit.e5eed63a.Emscripten.clang"
  },
  "schemaVersion": "3.4.6",
  "updatedAt": "2022-04-03T20:15:34.617Z",
  "networkType": "ethereum",
  "devdoc": {
    "kind": "dev",
    "methods": {},
    "version": 1
  },
  "userdoc": {
    "kind": "user",
    "methods": {
      "constructor": {
        "notice": "Set the trustedForwarder address either in constructor or in other init function in your contract"
      },
      "isTrustedForwarder(address)": {
        "notice": "return if the forwarder is trusted to forward relayed transactions to us. the forwarder is required to verify the sender's signature, and verify the call is not a replay."
      },
      "setTrustForwarder(address)": {
        "notice": "OPTIONAL You should add one setTrustedForwarder(address _trustedForwarder) method with onlyOwner modifier so you can change the trusted forwarder address to switch to some other meta transaction protocol if any better protocol comes tomorrow or current one is upgraded."
      },
      "versionRecipient()": {
        "notice": "Override this function. This version is to keep track of BaseRelayRecipient you are using in your contract."
      }
    },
    "version": 1
  }
}