{
  "contractName": "Election",
  "abi": [
    {
      "inputs": [
        {
          "internalType": "address",
          "name": "_trustedForwarder",
          "type": "address"
        }
      ],
      "stateMutability": "nonpayable",
      "type": "constructor"
    },
    {
      "inputs": [],
      "name": "cand1Count",
      "outputs": [
        {
          "internalType": "uint256",
          "name": "",
          "type": "uint256"
        }
      ],
      "stateMutability": "view",
      "type": "function",
      "constant": true
    },
    {
      "inputs": [],
      "name": "cand2Count",
      "outputs": [
        {
          "internalType": "uint256",
          "name": "",
          "type": "uint256"
        }
      ],
      "stateMutability": "view",
      "type": "function",
      "constant": true
    },
    {
      "inputs": [
        {
          "internalType": "uint256",
          "name": "",
          "type": "uint256"
        }
      ],
      "name": "candidates",
      "outputs": [
        {
          "internalType": "uint256",
          "name": "candidateID",
          "type": "uint256"
        },
        {
          "internalType": "uint256",
          "name": "voteCount",
          "type": "uint256"
        },
        {
          "internalType": "string",
          "name": "name",
          "type": "string"
        },
        {
          "internalType": "string",
          "name": "info",
          "type": "string"
        },
        {
          "internalType": "string",
          "name": "image",
          "type": "string"
        }
      ],
      "stateMutability": "view",
      "type": "function",
      "constant": true
    },
    {
      "inputs": [],
      "name": "candidatesCount",
      "outputs": [
        {
          "internalType": "uint256",
          "name": "",
          "type": "uint256"
        }
      ],
      "stateMutability": "view",
      "type": "function",
      "constant": true
    },
    {
      "inputs": [],
      "name": "electionCount",
      "outputs": [
        {
          "internalType": "uint256",
          "name": "",
          "type": "uint256"
        }
      ],
      "stateMutability": "view",
      "type": "function",
      "constant": true
    },
    {
      "inputs": [
        {
          "internalType": "uint256",
          "name": "",
          "type": "uint256"
        }
      ],
      "name": "elections",
      "outputs": [
        {
          "internalType": "string",
          "name": "elecName",
          "type": "string"
        },
        {
          "internalType": "uint256",
          "name": "startTime",
          "type": "uint256"
        },
        {
          "internalType": "uint256",
          "name": "endTime",
          "type": "uint256"
        },
        {
          "internalType": "uint256",
          "name": "elecID",
          "type": "uint256"
        }
      ],
      "stateMutability": "view",
      "type": "function",
      "constant": true
    },
    {
      "inputs": [
        {
          "internalType": "address",
          "name": "forwarder",
          "type": "address"
        }
      ],
      "name": "isTrustedForwarder",
      "outputs": [
        {
          "internalType": "bool",
          "name": "",
          "type": "bool"
        }
      ],
      "stateMutability": "view",
      "type": "function",
      "constant": true
    },
    {
      "inputs": [],
      "name": "owner",
      "outputs": [
        {
          "internalType": "address",
          "name": "",
          "type": "address"
        }
      ],
      "stateMutability": "view",
      "type": "function",
      "constant": true
    },
    {
      "inputs": [],
      "name": "trustedForwarder",
      "outputs": [
        {
          "internalType": "address",
          "name": "",
          "type": "address"
        }
      ],
      "stateMutability": "view",
      "type": "function",
      "constant": true
    },
    {
      "inputs": [],
      "name": "voteID",
      "outputs": [
        {
          "internalType": "uint256",
          "name": "",
          "type": "uint256"
        }
      ],
      "stateMutability": "view",
      "type": "function",
      "constant": true
    },
    {
      "inputs": [
        {
          "internalType": "uint256",
          "name": "",
          "type": "uint256"
        }
      ],
      "name": "votes",
      "outputs": [
        {
          "internalType": "string",
          "name": "voteID",
          "type": "string"
        },
        {
          "internalType": "bool",
          "name": "hasVoted",
          "type": "bool"
        },
        {
          "internalType": "uint256",
          "name": "candidateID",
          "type": "uint256"
        }
      ],
      "stateMutability": "view",
      "type": "function",
      "constant": true
    },
    {
      "inputs": [
        {
          "internalType": "address",
          "name": "_trustedForwarder",
          "type": "address"
        }
      ],
      "name": "setTrustForwarder",
      "outputs": [],
      "stateMutability": "nonpayable",
      "type": "function"
    },
    {
      "inputs": [],
      "name": "versionRecipient",
      "outputs": [
        {
          "internalType": "string",
          "name": "",
          "type": "string"
        }
      ],
      "stateMutability": "pure",
      "type": "function",
      "constant": true
    },
    {
      "inputs": [
        {
          "internalType": "string",
          "name": "a",
          "type": "string"
        },
        {
          "internalType": "string",
          "name": "b",
          "type": "string"
        }
      ],
      "name": "compareStrings",
      "outputs": [
        {
          "internalType": "bool",
          "name": "",
          "type": "bool"
        }
      ],
      "stateMutability": "view",
      "type": "function",
      "constant": true
    },
    {
      "inputs": [
        {
          "internalType": "uint256",
          "name": "_elecID",
          "type": "uint256"
        }
      ],
      "name": "isElectionLive",
      "outputs": [
        {
          "internalType": "bool",
          "name": "",
          "type": "bool"
        }
      ],
      "stateMutability": "view",
      "type": "function",
      "constant": true
    },
    {
      "inputs": [
        {
          "internalType": "uint256",
          "name": "_elecID",
          "type": "uint256"
        }
      ],
      "name": "getCandidates",
      "outputs": [
        {
          "internalType": "string[]",
          "name": "",
          "type": "string[]"
        },
        {
          "internalType": "uint256[]",
          "name": "",
          "type": "uint256[]"
        },
        {
          "internalType": "string[]",
          "name": "",
          "type": "string[]"
        },
        {
          "internalType": "string[]",
          "name": "",
          "type": "string[]"
        },
        {
          "internalType": "string",
          "name": "",
          "type": "string"
        }
      ],
      "stateMutability": "view",
      "type": "function",
      "constant": true
    },
    {
      "inputs": [
        {
          "internalType": "uint256",
          "name": "_elecID",
          "type": "uint256"
        },
        {
          "internalType": "string",
          "name": "_voteID",
          "type": "string"
        }
      ],
      "name": "getElection",
      "outputs": [
        {
          "internalType": "uint256[]",
          "name": "",
          "type": "uint256[]"
        },
        {
          "internalType": "string[]",
          "name": "",
          "type": "string[]"
        }
      ],
      "stateMutability": "view",
      "type": "function",
      "constant": true
    },
    {
      "inputs": [
        {
          "internalType": "string",
          "name": "_voteID",
          "type": "string"
        }
      ],
      "name": "getElectionCount",
      "outputs": [
        {
          "internalType": "uint256",
          "name": "",
          "type": "uint256"
        }
      ],
      "stateMutability": "view",
      "type": "function",
      "constant": true
    },
    {
      "inputs": [
        {
          "internalType": "string",
          "name": "_elecName",
          "type": "string"
        },
        {
          "internalType": "uint256",
          "name": "_startDate",
          "type": "uint256"
        },
        {
          "internalType": "uint256",
          "name": "_endDate",
          "type": "uint256"
        },
        {
          "internalType": "string[]",
          "name": "_name",
          "type": "string[]"
        },
        {
          "internalType": "string[]",
          "name": "_info",
          "type": "string[]"
        },
        {
          "internalType": "string[]",
          "name": "_image",
          "type": "string[]"
        }
      ],
      "name": "createElection",
      "outputs": [],
      "stateMutability": "nonpayable",
      "type": "function"
    },
    {
      "inputs": [
        {
          "internalType": "uint256",
          "name": "_elecID",
          "type": "uint256"
        },
        {
          "internalType": "uint256",
          "name": "_candID",
          "type": "uint256"
        },
        {
          "internalType": "string",
          "name": "_voterID",
          "type": "string"
        }
      ],
      "name": "createVote",
      "outputs": [],
      "stateMutability": "nonpayable",
      "type": "function"
    },
    {
      "inputs": [
        {
          "internalType": "uint256",
          "name": "_elecID",
          "type": "uint256"
        },
        {
          "internalType": "string",
          "name": "_voteID",
          "type": "string"
        }
      ],
      "name": "hasVoted",
      "outputs": [
        {
          "internalType": "bool",
          "name": "",
          "type": "bool"
        }
      ],
      "stateMutability": "view",
      "type": "function",
      "constant": true
    }
  ],
  "bytecode": "0x60806040526000600255600060035560006004556000600855600060095534801561002957600080fd5b50604051611dce380380611dce8339810160408190526100489161007b565b600080546001600160a01b0319166001600160a01b03831617905550600180546001600160a01b031916331790556100ab565b60006020828403121561008d57600080fd5b81516001600160a01b03811681146100a457600080fd5b9392505050565b611d14806100ba6000396000f3fe608060405234801561001057600080fd5b50600436106101375760003560e01c80635df81330116100b85780639416faab1161007c5780639416faab146102de578063997d2830146102f3578063bed34bba146102fc578063c53eeb2e1461030f578063ddeea51d14610322578063ddf0b3da1461032b57600080fd5b80635df813301461024e5780635e6fef01146102705780637da0a877146102935780638641a21b146102b85780638da5cb5b146102cb57600080fd5b80633477ee2e116100ff5780633477ee2e1461019e5780633e39a7a5146101c2578063486ff0cd146101e6578063572b6c051461020957806357a834e01461023b57600080fd5b8063066d5dc71461013c5780631290bf9514610158578063167054fe1461016157806323c624de146101745780632d35a8a214610195575b600080fd5b61014560045481565b6040519081526020015b60405180910390f35b61014560035481565b61014561016f366004611769565b61033e565b6101876101823660046117a5565b610496565b60405161014f9291906118d4565b61014560085481565b6101b16101ac366004611902565b610784565b60405161014f95949392919061191b565b6101d56101d0366004611902565b61094b565b60405161014f95949392919061196c565b60408051808201825260018152603160f81b6020820152905161014f91906119b9565b61022b6102173660046119d3565b6000546001600160a01b0391821691161490565b604051901515815260200161014f565b61022b6102493660046117a5565b610f57565b61026161025c366004611902565b611087565b60405161014f939291906119fc565b61028361027e366004611902565b611135565b60405161014f9493929190611a21565b6000546001600160a01b03165b6040516001600160a01b03909116815260200161014f565b61022b6102c6366004611902565b6111fd565b6001546102a0906001600160a01b031681565b6102f16102ec366004611ae2565b61126d565b005b61014560095481565b61022b61030a366004611ba0565b611409565b6102f161031d366004611bf9565b611462565b61014560025481565b6102f16103393660046119d3565b6115c9565b600080805b60075481101561048f5760005b6007828154811061036357610363611c48565b90600052602060002090600602016005018054905081101561047c576104576007838154811061039557610395611c48565b906000526020600020906006020160050182815481106103b7576103b7611c48565b906000526020600020906003020160000180546103d390611c5e565b80601f01602080910402602001604051908101604052809291908181526020018280546103ff90611c5e565b801561044c5780601f106104215761010080835404028352916020019161044c565b820191906000526020600020905b81548152906001019060200180831161042f57829003601f168201915b505050505086611409565b1561046a578261046681611c99565b9350505b8061047481611c99565b915050610350565b508061048781611c99565b915050610343565b5092915050565b60608060006104a48461033e565b90506000816001600160401b038111156104c0576104c06116b4565b6040519080825280602002602001820160405280156104e9578160200160208202803683370190505b5090506000826001600160401b03811115610506576105066116b4565b60405190808252806020026020018201604052801561053957816020015b60608152602001906001900390816105245790505b5090506000805b6007548110156107765760005b6007828154811061056057610560611c48565b906000526020600020906006020160050180549050811015610763576106546007838154811061059257610592611c48565b906000526020600020906006020160050182815481106105b4576105b4611c48565b906000526020600020906003020160000180546105d090611c5e565b80601f01602080910402602001604051908101604052809291908181526020018280546105fc90611c5e565b80156106495780601f1061061e57610100808354040283529160200191610649565b820191906000526020600020905b81548152906001019060200180831161062c57829003601f168201915b50505050508a611409565b15610751578185848151811061066c5761066c611c48565b6020026020010181815250506007828154811061068b5761068b611c48565b906000526020600020906006020160000180546106a790611c5e565b80601f01602080910402602001604051908101604052809291908181526020018280546106d390611c5e565b80156107205780601f106106f557610100808354040283529160200191610720565b820191906000526020600020905b81548152906001019060200180831161070357829003601f168201915b505050505084848151811061073757610737611c48565b6020026020010181905250828061074d90611c99565b9350505b8061075b81611c99565b91505061054d565b508061076e81611c99565b915050610540565b509197909650945050505050565b600660205260009081526040902080546001820154600283018054929391926107ac90611c5e565b80601f01602080910402602001604051908101604052809291908181526020018280546107d890611c5e565b80156108255780601f106107fa57610100808354040283529160200191610825565b820191906000526020600020905b81548152906001019060200180831161080857829003601f168201915b50505050509080600301805461083a90611c5e565b80601f016020809104026020016040519081016040528092919081815260200182805461086690611c5e565b80156108b35780601f10610888576101008083540402835291602001916108b3565b820191906000526020600020905b81548152906001019060200180831161089657829003601f168201915b5050505050908060040180546108c890611c5e565b80601f01602080910402602001604051908101604052809291908181526020018280546108f490611c5e565b80156109415780601f1061091657610100808354040283529160200191610941565b820191906000526020600020905b81548152906001019060200180831161092457829003601f168201915b5050505050905085565b606080606080606060006007878154811061096857610968611c48565b9060005260206000209060060201600401805490506001600160401b03811115610994576109946116b4565b6040519080825280602002602001820160405280156109c757816020015b60608152602001906001900390816109b25790505b5090506000600788815481106109df576109df611c48565b9060005260206000209060060201600401805490506001600160401b03811115610a0b57610a0b6116b4565b604051908082528060200260200182016040528015610a34578160200160208202803683370190505b509050600060078981548110610a4c57610a4c611c48565b9060005260206000209060060201600401805490506001600160401b03811115610a7857610a786116b4565b604051908082528060200260200182016040528015610aab57816020015b6060815260200190600190039081610a965790505b509050600060078a81548110610ac357610ac3611c48565b9060005260206000209060060201600401805490506001600160401b03811115610aef57610aef6116b4565b604051908082528060200260200182016040528015610b2257816020015b6060815260200190600190039081610b0d5790505b509050600060078b81548110610b3a57610b3a611c48565b90600052602060002090600602016000018054610b5690611c5e565b80601f0160208091040260200160405190810160405280929190818152602001828054610b8290611c5e565b8015610bcf5780601f10610ba457610100808354040283529160200191610bcf565b820191906000526020600020905b815481529060010190602001808311610bb257829003601f168201915b5050505050905060005b60078c81548110610bec57610bec611c48565b906000526020600020906006020160040180549050811015610f445760078c81548110610c1b57610c1b611c48565b90600052602060002090600602016004018181548110610c3d57610c3d611c48565b90600052602060002090600502016002018054610c5990611c5e565b80601f0160208091040260200160405190810160405280929190818152602001828054610c8590611c5e565b8015610cd25780601f10610ca757610100808354040283529160200191610cd2565b820191906000526020600020905b815481529060010190602001808311610cb557829003601f168201915b5050505050868281518110610ce957610ce9611c48565b602002602001018190525060078c81548110610d0757610d07611c48565b90600052602060002090600602016004018181548110610d2957610d29611c48565b906000526020600020906005020160010154858281518110610d4d57610d4d611c48565b60200260200101818152505060078c81548110610d6c57610d6c611c48565b90600052602060002090600602016004018181548110610d8e57610d8e611c48565b90600052602060002090600502016003018054610daa90611c5e565b80601f0160208091040260200160405190810160405280929190818152602001828054610dd690611c5e565b8015610e235780601f10610df857610100808354040283529160200191610e23565b820191906000526020600020905b815481529060010190602001808311610e0657829003601f168201915b5050505050848281518110610e3a57610e3a611c48565b602002602001018190525060078c81548110610e5857610e58611c48565b90600052602060002090600602016004018181548110610e7a57610e7a611c48565b90600052602060002090600502016004018054610e9690611c5e565b80601f0160208091040260200160405190810160405280929190818152602001828054610ec290611c5e565b8015610f0f5780601f10610ee457610100808354040283529160200191610f0f565b820191906000526020600020905b815481529060010190602001808311610ef257829003601f168201915b5050505050838281518110610f2657610f26611c48565b60200260200101819052508080610f3c90611c99565b915050610bd9565b50939a9299509097509550909350915050565b600080805b60078581548110610f6f57610f6f611c48565b90600052602060002090600602016005018054905081101561107f5761106360078681548110610fa157610fa1611c48565b90600052602060002090600602016005018281548110610fc357610fc3611c48565b90600052602060002090600302016000018054610fdf90611c5e565b80601f016020809104026020016040519081016040528092919081815260200182805461100b90611c5e565b80156110585780601f1061102d57610100808354040283529160200191611058565b820191906000526020600020905b81548152906001019060200180831161103b57829003601f168201915b505050505085611409565b1561106d57600191505b8061107781611c99565b915050610f5c565b509392505050565b6005602052600090815260409020805481906110a290611c5e565b80601f01602080910402602001604051908101604052809291908181526020018280546110ce90611c5e565b801561111b5780601f106110f05761010080835404028352916020019161111b565b820191906000526020600020905b8154815290600101906020018083116110fe57829003601f168201915b505050506001830154600290930154919260ff1691905083565b6007818154811061114557600080fd5b906000526020600020906006020160009150905080600001805461116890611c5e565b80601f016020809104026020016040519081016040528092919081815260200182805461119490611c5e565b80156111e15780601f106111b6576101008083540402835291602001916111e1565b820191906000526020600020905b8154815290600101906020018083116111c457829003601f168201915b5050505050908060010154908060020154908060030154905084565b6007805460009182914291908590811061121957611219611c48565b906000526020600020906006020160010154811015801561125e57506007848154811061124857611248611c48565b9060005260206000209060060201600201548111155b1561048f575060019392505050565b600780546001018082556000828152600954909291811061129057611290611c48565b906000526020600020906006020190506009548160030181905550868160000190805190602001906112c392919061161b565b50600181018690556002810185905560005b84518110156113ea57816004016040518060a00160405280600181526020016000815260200187848151811061130d5761130d611c48565b6020026020010151815260200186848151811061132c5761132c611c48565b6020026020010151815260200185848151811061134b5761134b611c48565b602090810291909101810151909152825460018181018555600094855293829020835160059092020190815582820151938101939093556040820151805192939261139c926002850192019061161b565b50606082015180516113b891600384019160209091019061161b565b50608082015180516113d491600484019160209091019061161b565b50505080806113e290611c99565b9150506112d5565b50600980549060006113fb83611c99565b919050555050505050505050565b60008160405160200161141c9190611cc2565b60405160208183030381529060405280519060200120836040516020016114439190611cc2565b6040516020818303038152906040528051906020012014905092915050565b61146c8382610f57565b15801561147d575061147d836111fd565b6114dc5760405162461bcd60e51b815260206004820152602560248201527f416c726561647920566f746564206f7220456c656374696f6e206973206e6f74604482015264206c69766560d81b60648201526084015b60405180910390fd5b600783815481106114ef576114ef611c48565b9060005260206000209060060201600401828154811061151157611511611c48565b60009182526020822060016005909202010180549161152f83611c99565b91905055506007838154811061154757611547611c48565b60009182526020808320604080516060810182528681526001818501819052918101889052600694909402909101600501805491820181558452928190208251805193946003029091019261159f928492019061161b565b50602082015160018201805460ff1916911515919091179055604090910151600290910155505050565b6001546001600160a01b031633146115fd5760405162461bcd60e51b815260206004820152600060248201526044016114d3565b600080546001600160a01b0319166001600160a01b03831617905550565b82805461162790611c5e565b90600052602060002090601f016020900481019282611649576000855561168f565b82601f1061166257805160ff191683800117855561168f565b8280016001018555821561168f579182015b8281111561168f578251825591602001919060010190611674565b5061169b92915061169f565b5090565b5b8082111561169b57600081556001016116a0565b634e487b7160e01b600052604160045260246000fd5b604051601f8201601f191681016001600160401b03811182821017156116f2576116f26116b4565b604052919050565b600082601f83011261170b57600080fd5b81356001600160401b03811115611724576117246116b4565b611737601f8201601f19166020016116ca565b81815284602083860101111561174c57600080fd5b816020850160208301376000918101602001919091529392505050565b60006020828403121561177b57600080fd5b81356001600160401b0381111561179157600080fd5b61179d848285016116fa565b949350505050565b600080604083850312156117b857600080fd5b8235915060208301356001600160401b038111156117d557600080fd5b6117e1858286016116fa565b9150509250929050565b600081518084526020808501945080840160005b8381101561181b578151875295820195908201906001016117ff565b509495945050505050565b60005b83811015611841578181015183820152602001611829565b83811115611850576000848401525b50505050565b6000815180845261186e816020860160208601611826565b601f01601f19169290920160200192915050565b6000815180845260208085019450848260051b860182860160005b858110156118c75783830389526118b5838351611856565b9885019892509084019060010161189d565b5090979650505050505050565b6040815260006118e760408301856117eb565b82810360208401526118f98185611882565b95945050505050565b60006020828403121561191457600080fd5b5035919050565b85815284602082015260a06040820152600061193a60a0830186611856565b828103606084015261194c8186611856565b905082810360808401526119608185611856565b98975050505050505050565b60a08152600061197f60a0830188611882565b828103602084015261199181886117eb565b905082810360408401526119a58187611882565b9050828103606084015261194c8186611882565b6020815260006119cc6020830184611856565b9392505050565b6000602082840312156119e557600080fd5b81356001600160a01b03811681146119cc57600080fd5b606081526000611a0f6060830186611856565b93151560208301525060400152919050565b608081526000611a346080830187611856565b6020830195909552506040810192909252606090910152919050565b600082601f830112611a6157600080fd5b813560206001600160401b0380831115611a7d57611a7d6116b4565b8260051b611a8c8382016116ca565b9384528581018301938381019088861115611aa657600080fd5b84880192505b8583101561196057823584811115611ac45760008081fd5b611ad28a87838c01016116fa565b8352509184019190840190611aac565b60008060008060008060c08789031215611afb57600080fd5b86356001600160401b0380821115611b1257600080fd5b611b1e8a838b016116fa565b975060208901359650604089013595506060890135915080821115611b4257600080fd5b611b4e8a838b01611a50565b94506080890135915080821115611b6457600080fd5b611b708a838b01611a50565b935060a0890135915080821115611b8657600080fd5b50611b9389828a01611a50565b9150509295509295509295565b60008060408385031215611bb357600080fd5b82356001600160401b0380821115611bca57600080fd5b611bd6868387016116fa565b93506020850135915080821115611bec57600080fd5b506117e1858286016116fa565b600080600060608486031215611c0e57600080fd5b833592506020840135915060408401356001600160401b03811115611c3257600080fd5b611c3e868287016116fa565b9150509250925092565b634e487b7160e01b600052603260045260246000fd5b600181811c90821680611c7257607f821691505b60208210811415611c9357634e487b7160e01b600052602260045260246000fd5b50919050565b6000600019821415611cbb57634e487b7160e01b600052601160045260246000fd5b5060010190565b60008251611cd4818460208701611826565b919091019291505056fea2646970667358221220122064dcb1af0130938b5db8e57931073ba2bc1ba128ffd8703b19c5ac4995e964736f6c63430008090033",
  "immutableReferences": {},
  "source": "pragma solidity ^0.8.2;\r\n\r\nimport \"@opengsn/contracts/src/BaseRelayRecipient.sol\";\r\n\r\ncontract Election is BaseRelayRecipient{\r\n    //Vote[] public votes;\r\n    address public owner;\r\n\r\n    uint256 public cand1Count = 0;\r\n    uint256 public cand2Count = 0;\r\n    uint256 public voteID = 0;\r\n\r\n    struct Vote {\r\n        string voteID;\r\n        bool hasVoted;\r\n        uint256 candidateID;\r\n    }\r\n\r\n    struct Candidate {\r\n        uint256 candidateID;\r\n        uint256 voteCount;\r\n        string name;\r\n        string info;\r\n        string image;\r\n        \r\n    }\r\n\r\n    struct Elections {\r\n        string elecName;\r\n        uint256 startTime;\r\n        uint256 endTime;\r\n        uint256 elecID;\r\n        Candidate[] candidates;\r\n        Vote[] voters;\r\n    }\r\n\r\n    mapping(uint256 => Vote) public votes;\r\n    mapping(uint256 => Candidate) public candidates;\r\n    //mapping(uint256 => Elections) public elections;\r\n\r\n    modifier onlyOwner() {\r\n        require(owner == msg.sender, \"\");\r\n        _;\r\n    }\r\n\r\n    //mapping(Elections=>mapping(uint=>Candidate public elections)) elect;\r\n\r\n    Elections[] public elections;\r\n\r\n    uint256 public candidatesCount = 0;\r\n    uint256 public electionCount = 0;\r\n\r\n    //constructor() public {}\r\n\r\n    /**\r\n     * Set the trustedForwarder address either in constructor or\r\n     * in other init function in your contract\r\n     */\r\n    constructor(address _trustedForwarder) {\r\n        _setTrustedForwarder(_trustedForwarder);\r\n        //data = \"Hello Metatransaction\";\r\n        owner = msg.sender;\r\n    }\r\n\r\n    /**\r\n     * OPTIONAL\r\n     * You should add one setTrustedForwarder(address _trustedForwarder)\r\n     * method with onlyOwner modifier so you can change the trusted\r\n     * forwarder address to switch to some other meta transaction protocol\r\n     * if any better protocol comes tomorrow or current one is upgraded.\r\n     */\r\n    function setTrustForwarder(address _trustedForwarder) public onlyOwner {\r\n        _setTrustedForwarder(_trustedForwarder);\r\n    }\r\n\r\n    /**\r\n     * Override this function.\r\n     * This version is to keep track of BaseRelayRecipient you are using\r\n     * in your contract.\r\n     */\r\n    function versionRecipient() external pure override returns (string memory) {\r\n        return \"1\";\r\n    }\r\n\r\n    //Return arrays of candidate details\r\n\r\n    function compareStrings(string memory a, string memory b) public view returns (bool) {\r\n        return (keccak256(abi.encodePacked((a))) == keccak256(abi.encodePacked((b))));\r\n    }\r\n\r\n    function isElectionLive(uint256 _elecID) public view returns (bool) {\r\n\r\n        bool isLive = false;\r\n\r\n        uint256 lastUpdated = block.timestamp;\r\n\r\n        if (lastUpdated >= elections[_elecID].startTime && lastUpdated <= elections[_elecID].endTime) {\r\n            isLive = true;\r\n        } \r\n\r\n        return (isLive);\r\n    }\r\n\r\n    //Return arrays of candidate details\r\n\r\n    function getCandidates(uint256 _elecID) public view returns (string[] memory, uint256[] memory, string[] memory, string[] memory, string memory) {\r\n\r\n        string[] memory names = new string[](elections[_elecID].candidates.length);\r\n        uint256[] memory voteCounts = new uint256[](elections[_elecID].candidates.length);\r\n        string[] memory info = new string[](elections[_elecID].candidates.length);\r\n        string[] memory image = new string[](elections[_elecID].candidates.length);\r\n        string memory elecName = elections[_elecID].elecName;\r\n\r\n        for(uint i = 0; i < elections[_elecID].candidates.length; i++){\r\n            names[i] = elections[_elecID].candidates[i].name;\r\n            voteCounts[i] = elections[_elecID].candidates[i].voteCount;\r\n            info[i] = elections[_elecID].candidates[i].info;\r\n            image[i] = elections[_elecID].candidates[i].image;\r\n            \r\n        }\r\n        return (names, voteCounts, info, image, elecName);\r\n    }\r\n\r\n    function getElection(uint256 _elecID, string memory _voteID) public view returns (uint256[] memory, string[] memory) {\r\n\r\n        uint256 numElections = getElectionCount(_voteID);\r\n\r\n        uint256[] memory elecIDs = new uint256[](numElections);\r\n        string[] memory elecNames = new string[](numElections);\r\n\r\n        uint256 count = 0;\r\n\r\n        for(uint i = 0; i < elections.length; i++){\r\n            \r\n            for(uint256 j=0; j < elections[i].voters.length; j++) {\r\n            //elections[_elecID].voters[i]\r\n\r\n                if(compareStrings(elections[i].voters[j].voteID, _voteID)){\r\n                    elecIDs[count] = i;\r\n                    elecNames[count] = elections[i].elecName;\r\n                    count++;\r\n                } \r\n        }\r\n        }\r\n            \r\n        \r\n        \r\n        return (elecIDs, elecNames);\r\n    }\r\n\r\n    function getElectionCount(string memory _voteID) public view returns (uint256) {\r\n\r\n        //uint256[] memory elecIDs = new uint256[](elections.length);\r\n        //string[] memory elecNames = new string[](elections.length);\r\n\r\n        uint256 count = 0;\r\n\r\n        for(uint i = 0; i < elections.length; i++){\r\n            \r\n            for(uint256 j=0; j < elections[i].voters.length; j++) {\r\n            //elections[_elecID].voters[i]\r\n\r\n                if(compareStrings(elections[i].voters[j].voteID, _voteID)){\r\n\r\n                    count++;\r\n                } \r\n        }\r\n        }\r\n            \r\n        \r\n        \r\n        return (count);\r\n    }\r\n\r\n    \r\n\r\n\r\n    function createElection(string memory _elecName, uint256 _startDate, uint256 _endDate, string[] memory _name, string[] memory _info, string[] memory _image) public {\r\n        elections.push();\r\n        \r\n        Elections storage e = elections[electionCount];\r\n        e.elecID = electionCount;\r\n        e.elecName = _elecName;\r\n        e.startTime = _startDate;\r\n        e.endTime = _endDate;\r\n\r\n        for(uint256 i=0; i < _name.length; i++) {\r\n            e.candidates.push(Candidate(1, 0, _name[i], _info[i], _image[i]));\r\n        }\r\n\r\n        electionCount++;\r\n    }\r\n\r\n    function createVote(uint256 _elecID, uint256 _candID, string memory _voterID) public {\r\n\r\n        require(hasVoted(_elecID, _voterID) == false && isElectionLive(_elecID), \"Already Voted or Election is not live\");\r\n        \r\n        elections[_elecID].candidates[_candID].voteCount++; \r\n\r\n        elections[_elecID].voters.push(Vote(_voterID, true, _candID));    \r\n    }\r\n\r\n    function hasVoted(uint256 _elecID, string memory _voteID) public view returns (bool) {\r\n\r\n        bool valid = false;\r\n        \r\n        for(uint256 i=0; i < elections[_elecID].voters.length; i++) {\r\n            //elections[_elecID].voters[i]\r\n\r\n            if(compareStrings(elections[_elecID].voters[i].voteID, _voteID)){\r\n                valid = true;\r\n            } \r\n        }\r\n\r\n        return valid;\r\n    }\r\n\r\n    //function \r\n}\r\n\r\n",
  "sourcePath": "C:\\Users\\David\\Desktop\\PROJECT\\Blockchain-E-Voting\\Truffle\\contracts\\election.sol",
  "compiler": {
    "name": "solc",
    "version": "0.8.9+commit.e5eed63a.Emscripten.clang"
  },
  "schemaVersion": "3.4.6",
  "updatedAt": "2022-04-11T00:22:08.183Z",
  "networkType": "ethereum",
  "devdoc": {
    "kind": "dev",
    "methods": {},
    "version": 1
  },
  "userdoc": {
    "kind": "user",
    "methods": {
      "constructor": {
        "notice": "Set the trustedForwarder address either in constructor or in other init function in your contract"
      },
      "isTrustedForwarder(address)": {
        "notice": "return if the forwarder is trusted to forward relayed transactions to us. the forwarder is required to verify the sender's signature, and verify the call is not a replay."
      },
      "setTrustForwarder(address)": {
        "notice": "OPTIONAL You should add one setTrustedForwarder(address _trustedForwarder) method with onlyOwner modifier so you can change the trusted forwarder address to switch to some other meta transaction protocol if any better protocol comes tomorrow or current one is upgraded."
      },
      "versionRecipient()": {
        "notice": "Override this function. This version is to keep track of BaseRelayRecipient you are using in your contract."
      }
    },
    "version": 1
  }
}