{
  "contractName": "Election",
  "abi": [
    {
      "inputs": [
        {
          "internalType": "address",
          "name": "_trustedForwarder",
          "type": "address"
        }
      ],
      "stateMutability": "nonpayable",
      "type": "constructor"
    },
    {
      "inputs": [],
      "name": "cand1Count",
      "outputs": [
        {
          "internalType": "uint256",
          "name": "",
          "type": "uint256"
        }
      ],
      "stateMutability": "view",
      "type": "function",
      "constant": true
    },
    {
      "inputs": [],
      "name": "cand2Count",
      "outputs": [
        {
          "internalType": "uint256",
          "name": "",
          "type": "uint256"
        }
      ],
      "stateMutability": "view",
      "type": "function",
      "constant": true
    },
    {
      "inputs": [
        {
          "internalType": "uint256",
          "name": "",
          "type": "uint256"
        }
      ],
      "name": "candidates",
      "outputs": [
        {
          "internalType": "uint256",
          "name": "candidateID",
          "type": "uint256"
        },
        {
          "internalType": "uint256",
          "name": "voteCount",
          "type": "uint256"
        },
        {
          "internalType": "string",
          "name": "name",
          "type": "string"
        },
        {
          "internalType": "string",
          "name": "info",
          "type": "string"
        },
        {
          "internalType": "string",
          "name": "image",
          "type": "string"
        }
      ],
      "stateMutability": "view",
      "type": "function",
      "constant": true
    },
    {
      "inputs": [],
      "name": "candidatesCount",
      "outputs": [
        {
          "internalType": "uint256",
          "name": "",
          "type": "uint256"
        }
      ],
      "stateMutability": "view",
      "type": "function",
      "constant": true
    },
    {
      "inputs": [],
      "name": "electionCount",
      "outputs": [
        {
          "internalType": "uint256",
          "name": "",
          "type": "uint256"
        }
      ],
      "stateMutability": "view",
      "type": "function",
      "constant": true
    },
    {
      "inputs": [
        {
          "internalType": "uint256",
          "name": "",
          "type": "uint256"
        }
      ],
      "name": "elections",
      "outputs": [
        {
          "internalType": "uint256",
          "name": "elecID",
          "type": "uint256"
        }
      ],
      "stateMutability": "view",
      "type": "function",
      "constant": true
    },
    {
      "inputs": [
        {
          "internalType": "address",
          "name": "forwarder",
          "type": "address"
        }
      ],
      "name": "isTrustedForwarder",
      "outputs": [
        {
          "internalType": "bool",
          "name": "",
          "type": "bool"
        }
      ],
      "stateMutability": "view",
      "type": "function",
      "constant": true
    },
    {
      "inputs": [],
      "name": "owner",
      "outputs": [
        {
          "internalType": "address",
          "name": "",
          "type": "address"
        }
      ],
      "stateMutability": "view",
      "type": "function",
      "constant": true
    },
    {
      "inputs": [],
      "name": "trustedForwarder",
      "outputs": [
        {
          "internalType": "address",
          "name": "",
          "type": "address"
        }
      ],
      "stateMutability": "view",
      "type": "function",
      "constant": true
    },
    {
      "inputs": [],
      "name": "voteID",
      "outputs": [
        {
          "internalType": "uint256",
          "name": "",
          "type": "uint256"
        }
      ],
      "stateMutability": "view",
      "type": "function",
      "constant": true
    },
    {
      "inputs": [
        {
          "internalType": "uint256",
          "name": "",
          "type": "uint256"
        }
      ],
      "name": "votes",
      "outputs": [
        {
          "internalType": "uint256",
          "name": "voteID",
          "type": "uint256"
        },
        {
          "internalType": "bool",
          "name": "hasVoted",
          "type": "bool"
        },
        {
          "internalType": "uint256",
          "name": "candidateID",
          "type": "uint256"
        }
      ],
      "stateMutability": "view",
      "type": "function",
      "constant": true
    },
    {
      "inputs": [
        {
          "internalType": "address",
          "name": "_trustedForwarder",
          "type": "address"
        }
      ],
      "name": "setTrustForwarder",
      "outputs": [],
      "stateMutability": "nonpayable",
      "type": "function"
    },
    {
      "inputs": [],
      "name": "versionRecipient",
      "outputs": [
        {
          "internalType": "string",
          "name": "",
          "type": "string"
        }
      ],
      "stateMutability": "pure",
      "type": "function",
      "constant": true
    },
    {
      "inputs": [
        {
          "internalType": "uint256",
          "name": "_elecID",
          "type": "uint256"
        }
      ],
      "name": "getCandidates",
      "outputs": [
        {
          "internalType": "string[]",
          "name": "",
          "type": "string[]"
        },
        {
          "internalType": "uint256[]",
          "name": "",
          "type": "uint256[]"
        },
        {
          "internalType": "string[]",
          "name": "",
          "type": "string[]"
        },
        {
          "internalType": "string[]",
          "name": "",
          "type": "string[]"
        }
      ],
      "stateMutability": "view",
      "type": "function",
      "constant": true
    },
    {
      "inputs": [
        {
          "internalType": "string[]",
          "name": "_name",
          "type": "string[]"
        },
        {
          "internalType": "string[]",
          "name": "_info",
          "type": "string[]"
        },
        {
          "internalType": "string[]",
          "name": "_image",
          "type": "string[]"
        }
      ],
      "name": "createElection",
      "outputs": [],
      "stateMutability": "nonpayable",
      "type": "function"
    },
    {
      "inputs": [
        {
          "internalType": "uint256",
          "name": "_elecID",
          "type": "uint256"
        },
        {
          "internalType": "uint256",
          "name": "_candID",
          "type": "uint256"
        }
      ],
      "name": "createVote",
      "outputs": [],
      "stateMutability": "nonpayable",
      "type": "function"
    },
    {
      "inputs": [
        {
          "internalType": "uint256",
          "name": "_elecID",
          "type": "uint256"
        },
        {
          "internalType": "uint256",
          "name": "_voteID",
          "type": "uint256"
        }
      ],
      "name": "hasVoted",
      "outputs": [
        {
          "internalType": "bool",
          "name": "",
          "type": "bool"
        }
      ],
      "stateMutability": "view",
      "type": "function",
      "constant": true
    }
  ],
  "bytecode": "0x60806040526000600255600060035560006004556000600855600060095534801561002957600080fd5b5060405161130a38038061130a8339810160408190526100489161007b565b600080546001600160a01b0319166001600160a01b03831617905550600180546001600160a01b031916331790556100ab565b60006020828403121561008d57600080fd5b81516001600160a01b03811681146100a457600080fd5b9392505050565b611250806100ba6000396000f3fe608060405234801561001057600080fd5b506004361061010b5760003560e01c80635df81330116100a25780638da5cb5b116100715780638da5cb5b14610287578063997d28301461029a578063a2222d7d146102a3578063ddeea51d146102b6578063ddf0b3da146102bf57600080fd5b80635df81330146101ef5780635e6fef011461023c57806364390ff11461024f5780637da0a8771461026257600080fd5b80633477ee2e116100de5780633477ee2e146101535780633e39a7a514610177578063486ff0cd1461019a578063572b6c05146101bd57600080fd5b8063066d5dc7146101105780631290bf951461012c5780631b468312146101355780632d35a8a21461014a575b600080fd5b61011960045481565b6040519081526020015b60405180910390f35b61011960035481565b610148610143366004610de9565b6102d2565b005b61011960085481565b610166610161366004610e0b565b6103a6565b604051610123959493929190610e71565b61018a610185366004610e0b565b61056d565b6040516101239493929190610f1a565b60408051808201825260018152603160f81b602082015290516101239190610f99565b6101df6101cb366004610fb3565b6000546001600160a01b0391821691161490565b6040519015158152602001610123565b6102216101fd366004610e0b565b600560205260009081526040902080546001820154600290920154909160ff169083565b60408051938452911515602084015290820152606001610123565b61011961024a366004610e0b565b610ac7565b6101df61025d366004610de9565b610aed565b6000546001600160a01b03165b6040516001600160a01b039091168152602001610123565b60015461026f906001600160a01b031681565b61011960095481565b6101486102b1366004611118565b610b8e565b61011960025481565b6101486102cd366004610fb3565b610cfa565b600782815481106102e5576102e56111a0565b90600052602060002090600302016001018181548110610307576103076111a0565b600091825260208220600160059092020101805491610325836111b6565b91905055506007828154811061033d5761033d6111a0565b600091825260208083206040805160608101825260018082528185018181529282019788526003958602909301600290810180548086018255908852949096209051939094029093019182559151918101805460ff191692151592909217909155915191015550565b600660205260009081526040902080546001820154600283018054929391926103ce906111df565b80601f01602080910402602001604051908101604052809291908181526020018280546103fa906111df565b80156104475780601f1061041c57610100808354040283529160200191610447565b820191906000526020600020905b81548152906001019060200180831161042a57829003601f168201915b50505050509080600301805461045c906111df565b80601f0160208091040260200160405190810160405280929190818152602001828054610488906111df565b80156104d55780601f106104aa576101008083540402835291602001916104d5565b820191906000526020600020905b8154815290600101906020018083116104b857829003601f168201915b5050505050908060040180546104ea906111df565b80601f0160208091040260200160405190810160405280929190818152602001828054610516906111df565b80156105635780601f1061053857610100808354040283529160200191610563565b820191906000526020600020905b81548152906001019060200180831161054657829003601f168201915b5050505050905085565b606080606080600060078681548110610588576105886111a0565b90600052602060002090600302016001018054905067ffffffffffffffff8111156105b5576105b5610fdc565b6040519080825280602002602001820160405280156105e857816020015b60608152602001906001900390816105d35790505b509050600060078781548110610600576106006111a0565b90600052602060002090600302016001018054905067ffffffffffffffff81111561062d5761062d610fdc565b604051908082528060200260200182016040528015610656578160200160208202803683370190505b50905060006007888154811061066e5761066e6111a0565b90600052602060002090600302016001018054905067ffffffffffffffff81111561069b5761069b610fdc565b6040519080825280602002602001820160405280156106ce57816020015b60608152602001906001900390816106b95790505b5090506000600789815481106106e6576106e66111a0565b90600052602060002090600302016001018054905067ffffffffffffffff81111561071357610713610fdc565b60405190808252806020026020018201604052801561074657816020015b60608152602001906001900390816107315790505b50905060005b60078a8154811061075f5761075f6111a0565b906000526020600020906003020160010180549050811015610ab75760078a8154811061078e5761078e6111a0565b906000526020600020906003020160010181815481106107b0576107b06111a0565b906000526020600020906005020160020180546107cc906111df565b80601f01602080910402602001604051908101604052809291908181526020018280546107f8906111df565b80156108455780601f1061081a57610100808354040283529160200191610845565b820191906000526020600020905b81548152906001019060200180831161082857829003601f168201915b505050505085828151811061085c5761085c6111a0565b602002602001018190525060078a8154811061087a5761087a6111a0565b9060005260206000209060030201600101818154811061089c5761089c6111a0565b9060005260206000209060050201600101548482815181106108c0576108c06111a0565b60200260200101818152505060078a815481106108df576108df6111a0565b90600052602060002090600302016001018181548110610901576109016111a0565b9060005260206000209060050201600301805461091d906111df565b80601f0160208091040260200160405190810160405280929190818152602001828054610949906111df565b80156109965780601f1061096b57610100808354040283529160200191610996565b820191906000526020600020905b81548152906001019060200180831161097957829003601f168201915b50505050508382815181106109ad576109ad6111a0565b602002602001018190525060078a815481106109cb576109cb6111a0565b906000526020600020906003020160010181815481106109ed576109ed6111a0565b90600052602060002090600502016004018054610a09906111df565b80601f0160208091040260200160405190810160405280929190818152602001828054610a35906111df565b8015610a825780601f10610a5757610100808354040283529160200191610a82565b820191906000526020600020905b815481529060010190602001808311610a6557829003601f168201915b5050505050828281518110610a9957610a996111a0565b60200260200101819052508080610aaf906111b6565b91505061074c565b5092989197509550909350915050565b60078181548110610ad757600080fd5b6000918252602090912060039091020154905081565b600080805b60078581548110610b0557610b056111a0565b906000526020600020906003020160020180549050811015610b86578360078681548110610b3557610b356111a0565b90600052602060002090600302016002018281548110610b5757610b576111a0565b9060005260206000209060030201600001541415610b7457600191505b80610b7e816111b6565b915050610af2565b509392505050565b6007805460010180825560008281526009549092918110610bb157610bb16111a0565b60009182526020822060095460039092020190815591505b8451811015610cde57816001016040518060a001604052806001815260200160008152602001878481518110610c0157610c016111a0565b60200260200101518152602001868481518110610c2057610c206111a0565b60200260200101518152602001858481518110610c3f57610c3f6111a0565b6020908102919091018101519091528254600181810185556000948552938290208351600590920201908155828201519381019390935560408201518051929392610c909260028501920190610d50565b5060608201518051610cac916003840191602090910190610d50565b5060808201518051610cc8916004840191602090910190610d50565b5050508080610cd6906111b6565b915050610bc9565b5060098054906000610cef836111b6565b919050555050505050565b6001546001600160a01b03163314610d325760405162461bcd60e51b8152602060048201526000602482015260440160405180910390fd5b600080546001600160a01b0319166001600160a01b03831617905550565b828054610d5c906111df565b90600052602060002090601f016020900481019282610d7e5760008555610dc4565b82601f10610d9757805160ff1916838001178555610dc4565b82800160010185558215610dc4579182015b82811115610dc4578251825591602001919060010190610da9565b50610dd0929150610dd4565b5090565b5b80821115610dd05760008155600101610dd5565b60008060408385031215610dfc57600080fd5b50508035926020909101359150565b600060208284031215610e1d57600080fd5b5035919050565b6000815180845260005b81811015610e4a57602081850181015186830182015201610e2e565b81811115610e5c576000602083870101525b50601f01601f19169290920160200192915050565b85815284602082015260a060408201526000610e9060a0830186610e24565b8281036060840152610ea28186610e24565b90508281036080840152610eb68185610e24565b98975050505050505050565b600082825180855260208086019550808260051b84010181860160005b84811015610f0d57601f19868403018952610efb838351610e24565b98840198925090830190600101610edf565b5090979650505050505050565b608081526000610f2d6080830187610ec2565b82810360208481019190915286518083528782019282019060005b81811015610f6457845183529383019391830191600101610f48565b50508481036040860152610f788188610ec2565b925050508281036060840152610f8e8185610ec2565b979650505050505050565b602081526000610fac6020830184610e24565b9392505050565b600060208284031215610fc557600080fd5b81356001600160a01b0381168114610fac57600080fd5b634e487b7160e01b600052604160045260246000fd5b604051601f8201601f1916810167ffffffffffffffff8111828210171561101b5761101b610fdc565b604052919050565b6000601f838184011261103557600080fd5b8235602067ffffffffffffffff8083111561105257611052610fdc565b8260051b611061838201610ff2565b938452868101830193838101908986111561107b57600080fd5b84890192505b8583101561110b578235848111156110995760008081fd5b8901603f81018b136110ab5760008081fd5b858101356040868211156110c1576110c1610fdc565b6110d2828b01601f19168901610ff2565b8281528d828486010111156110e75760008081fd5b828285018a8301376000928101890192909252508352509184019190840190611081565b9998505050505050505050565b60008060006060848603121561112d57600080fd5b833567ffffffffffffffff8082111561114557600080fd5b61115187838801611023565b9450602086013591508082111561116757600080fd5b61117387838801611023565b9350604086013591508082111561118957600080fd5b5061119686828701611023565b9150509250925092565b634e487b7160e01b600052603260045260246000fd5b60006000198214156111d857634e487b7160e01b600052601160045260246000fd5b5060010190565b600181811c908216806111f357607f821691505b6020821081141561121457634e487b7160e01b600052602260045260246000fd5b5091905056fea2646970667358221220cdaa8219d704c44f8e56ccfa8324fb665ab351fcc8b22d198fa7c491755ae4fe64736f6c63430008090033",
  "immutableReferences": {},
  "source": "pragma solidity ^0.8.2;\r\n\r\nimport \"@opengsn/contracts/src/BaseRelayRecipient.sol\";\r\n\r\ncontract Election is BaseRelayRecipient{\r\n    //Vote[] public votes;\r\n    address public owner;\r\n\r\n    uint256 public cand1Count = 0;\r\n    uint256 public cand2Count = 0;\r\n    uint256 public voteID = 0;\r\n\r\n    struct Vote {\r\n        uint256 voteID;\r\n        bool hasVoted;\r\n        uint256 candidateID;\r\n    }\r\n\r\n    struct Candidate {\r\n        uint256 candidateID;\r\n        uint256 voteCount;\r\n        string name;\r\n        string info;\r\n        string image;\r\n    }\r\n\r\n    struct Elections {\r\n        uint256 elecID;\r\n        Candidate[] candidates;\r\n        Vote[] voters;\r\n    }\r\n\r\n    mapping(uint256 => Vote) public votes;\r\n    mapping(uint256 => Candidate) public candidates;\r\n    //mapping(uint256 => Elections) public elections;\r\n\r\n    modifier onlyOwner() {\r\n        require(owner == msg.sender, \"\");\r\n        _;\r\n    }\r\n\r\n    //mapping(Elections=>mapping(uint=>Candidate public elections)) elect;\r\n\r\n    Elections[] public elections;\r\n\r\n    uint256 public candidatesCount = 0;\r\n    uint256 public electionCount = 0;\r\n\r\n    //constructor() public {}\r\n\r\n    /**\r\n     * Set the trustedForwarder address either in constructor or\r\n     * in other init function in your contract\r\n     */\r\n    constructor(address _trustedForwarder) {\r\n        _setTrustedForwarder(_trustedForwarder);\r\n        //data = \"Hello Metatransaction\";\r\n        owner = msg.sender;\r\n    }\r\n\r\n    /**\r\n     * OPTIONAL\r\n     * You should add one setTrustedForwarder(address _trustedForwarder)\r\n     * method with onlyOwner modifier so you can change the trusted\r\n     * forwarder address to switch to some other meta transaction protocol\r\n     * if any better protocol comes tomorrow or current one is upgraded.\r\n     */\r\n    function setTrustForwarder(address _trustedForwarder) public onlyOwner {\r\n        _setTrustedForwarder(_trustedForwarder);\r\n    }\r\n\r\n    /**\r\n     * Override this function.\r\n     * This version is to keep track of BaseRelayRecipient you are using\r\n     * in your contract.\r\n     */\r\n    function versionRecipient() external pure override returns (string memory) {\r\n        return \"1\";\r\n    }\r\n\r\n    //Return arrays of candidate details\r\n\r\n    function getCandidates(uint256 _elecID)\r\n        public\r\n        view\r\n        returns (\r\n            string[] memory,\r\n            uint256[] memory,\r\n            string[] memory,\r\n            string[] memory\r\n        )\r\n    {\r\n        string[] memory names = new string[](elections[_elecID].candidates.length);\r\n        uint256[] memory voteCounts = new uint256[](elections[_elecID].candidates.length);\r\n        string[] memory info = new string[](elections[_elecID].candidates.length);\r\n        string[] memory image = new string[](elections[_elecID].candidates.length);\r\n\r\n        for(uint i = 0; i < elections[_elecID].candidates.length; i++){\r\n            names[i] = elections[_elecID].candidates[i].name;\r\n            voteCounts[i] = elections[_elecID].candidates[i].voteCount;\r\n            info[i] = elections[_elecID].candidates[i].info;\r\n            image[i] = elections[_elecID].candidates[i].image;\r\n            \r\n        }\r\n        return (names, voteCounts, info, image);\r\n    }\r\n\r\n    function createElection(string[] memory _name, string[] memory _info, string[] memory _image) public {\r\n        elections.push();\r\n        \r\n        Elections storage e = elections[electionCount];\r\n        e.elecID = electionCount;\r\n\r\n        for(uint256 i=0; i < _name.length; i++) {\r\n            e.candidates.push(Candidate(1, 0, _name[i], _info[i], _image[i]));\r\n        }\r\n\r\n        electionCount++;\r\n    }\r\n\r\n    function createVote(uint256 _elecID, uint256 _candID) public {\r\n        elections[_elecID].candidates[_candID].voteCount++;\r\n\r\n        elections[_elecID].voters.push(Vote(1, true, _candID));\r\n    }\r\n\r\n    function hasVoted(uint256 _elecID, uint256 _voteID)\r\n        public\r\n        view\r\n        returns (bool)\r\n    {\r\n        bool valid = false;\r\n\r\n        for (uint256 i = 0; i < elections[_elecID].voters.length; i++) {\r\n            //elections[_elecID].voters[i]\r\n\r\n            if (elections[_elecID].voters[i].voteID == _voteID) {\r\n                valid = true;\r\n            }\r\n        }\r\n\r\n        return valid;\r\n    }\r\n\r\n    //function\r\n}\r\n",
  "sourcePath": "C:\\Users\\David\\Desktop\\PROJECT\\Blockchain-E-Voting\\Truffle\\contracts\\election.sol",
  "compiler": {
    "name": "solc",
    "version": "0.8.9+commit.e5eed63a.Emscripten.clang"
  },
  "schemaVersion": "3.4.6",
  "updatedAt": "2022-04-07T23:29:04.056Z",
  "networkType": "ethereum",
  "devdoc": {
    "kind": "dev",
    "methods": {},
    "version": 1
  },
  "userdoc": {
    "kind": "user",
    "methods": {
      "constructor": {
        "notice": "Set the trustedForwarder address either in constructor or in other init function in your contract"
      },
      "isTrustedForwarder(address)": {
        "notice": "return if the forwarder is trusted to forward relayed transactions to us. the forwarder is required to verify the sender's signature, and verify the call is not a replay."
      },
      "setTrustForwarder(address)": {
        "notice": "OPTIONAL You should add one setTrustedForwarder(address _trustedForwarder) method with onlyOwner modifier so you can change the trusted forwarder address to switch to some other meta transaction protocol if any better protocol comes tomorrow or current one is upgraded."
      },
      "versionRecipient()": {
        "notice": "Override this function. This version is to keep track of BaseRelayRecipient you are using in your contract."
      }
    },
    "version": 1
  }
}