{
  "contractName": "Election",
  "abi": [
    {
      "inputs": [],
      "stateMutability": "nonpayable",
      "type": "constructor"
    },
    {
      "inputs": [],
      "name": "cand1Count",
      "outputs": [
        {
          "internalType": "uint256",
          "name": "",
          "type": "uint256"
        }
      ],
      "stateMutability": "view",
      "type": "function",
      "constant": true
    },
    {
      "inputs": [],
      "name": "cand2Count",
      "outputs": [
        {
          "internalType": "uint256",
          "name": "",
          "type": "uint256"
        }
      ],
      "stateMutability": "view",
      "type": "function",
      "constant": true
    },
    {
      "inputs": [],
      "name": "candidatesCount",
      "outputs": [
        {
          "internalType": "uint256",
          "name": "",
          "type": "uint256"
        }
      ],
      "stateMutability": "view",
      "type": "function",
      "constant": true
    },
    {
      "inputs": [],
      "name": "electionCount",
      "outputs": [
        {
          "internalType": "uint256",
          "name": "",
          "type": "uint256"
        }
      ],
      "stateMutability": "view",
      "type": "function",
      "constant": true
    },
    {
      "inputs": [
        {
          "internalType": "uint256",
          "name": "",
          "type": "uint256"
        }
      ],
      "name": "elections",
      "outputs": [
        {
          "internalType": "uint256",
          "name": "elecID",
          "type": "uint256"
        }
      ],
      "stateMutability": "view",
      "type": "function",
      "constant": true
    },
    {
      "inputs": [],
      "name": "voteID",
      "outputs": [
        {
          "internalType": "uint256",
          "name": "",
          "type": "uint256"
        }
      ],
      "stateMutability": "view",
      "type": "function",
      "constant": true
    },
    {
      "inputs": [
        {
          "internalType": "string[]",
          "name": "_name",
          "type": "string[]"
        }
      ],
      "name": "createElection",
      "outputs": [],
      "stateMutability": "nonpayable",
      "type": "function"
    },
    {
      "inputs": [
        {
          "internalType": "uint256",
          "name": "_elecID",
          "type": "uint256"
        },
        {
          "internalType": "uint256",
          "name": "_candID",
          "type": "uint256"
        }
      ],
      "name": "getCandidate",
      "outputs": [
        {
          "internalType": "string",
          "name": "",
          "type": "string"
        },
        {
          "internalType": "uint256",
          "name": "",
          "type": "uint256"
        },
        {
          "internalType": "uint256",
          "name": "",
          "type": "uint256"
        }
      ],
      "stateMutability": "view",
      "type": "function",
      "constant": true
    },
    {
      "inputs": [
        {
          "internalType": "uint256",
          "name": "_elecID",
          "type": "uint256"
        },
        {
          "internalType": "uint256",
          "name": "_candID",
          "type": "uint256"
        }
      ],
      "name": "createVote",
      "outputs": [],
      "stateMutability": "nonpayable",
      "type": "function"
    },
    {
      "inputs": [
        {
          "internalType": "uint256",
          "name": "_elecID",
          "type": "uint256"
        },
        {
          "internalType": "uint256",
          "name": "_voteID",
          "type": "uint256"
        }
      ],
      "name": "hasVoted",
      "outputs": [
        {
          "internalType": "bool",
          "name": "",
          "type": "bool"
        }
      ],
      "stateMutability": "view",
      "type": "function",
      "constant": true
    }
  ],
  "bytecode": "0x608060405260008055600060015560006002556000600455600060055534801561002857600080fd5b50610e11806100386000396000f3fe608060405234801561001057600080fd5b506004361061009e5760003560e01c80635e6fef01116100665780635e6fef011461014b57806364390ff11461017b578063997d2830146101ab578063ddeea51d146101c9578063f8c5d5e6146101e75761009e565b8063066d5dc7146100a35780631290bf95146100c15780631b468312146100df5780632d35a8a2146100fb5780634bd4644814610119575b600080fd5b6100ab610203565b6040516100b89190610b69565b60405180910390f35b6100c9610209565b6040516100d69190610b69565b60405180910390f35b6100f960048036038101906100f49190610a7d565b61020f565b005b610103610386565b6040516101109190610b69565b60405180910390f35b610133600480360381019061012e9190610a7d565b61038c565b60405161014293929190610b2b565b60405180910390f35b61016560048036038101906101609190610a54565b6105a2565b6040516101729190610b69565b60405180910390f35b61019560048036038101906101909190610a7d565b6105d0565b6040516101a29190610b10565b60405180910390f35b6101b36106ef565b6040516101c09190610b69565b60405180910390f35b6101d16106f5565b6040516101de9190610b69565b60405180910390f35b61020160048036038101906101fc9190610a13565b6106fb565b005b60025481565b60015481565b60038281548110610249577f4e487b7100000000000000000000000000000000000000000000000000000000600052603260045260246000fd5b90600052602060002090600302016001018181548110610292577f4e487b7100000000000000000000000000000000000000000000000000000000600052603260045260246000fd5b906000526020600020906003020160010160008154809291906102b490610cdd565b9190505550600382815481106102f3577f4e487b7100000000000000000000000000000000000000000000000000000000600052603260045260246000fd5b90600052602060002090600302016002016040518060600160405280600181526020016001151581526020018381525090806001815401808255809150506001900390600052602060002090600302016000909190919091506000820151816000015560208201518160010160006101000a81548160ff0219169083151502179055506040820151816002015550505050565b60045481565b6060600080600385815481106103cb577f4e487b7100000000000000000000000000000000000000000000000000000000600052603260045260246000fd5b90600052602060002090600302016001018481548110610414577f4e487b7100000000000000000000000000000000000000000000000000000000600052603260045260246000fd5b90600052602060002090600302016002016003868154811061045f577f4e487b7100000000000000000000000000000000000000000000000000000000600052603260045260246000fd5b906000526020600020906003020160010185815481106104a8577f4e487b7100000000000000000000000000000000000000000000000000000000600052603260045260246000fd5b906000526020600020906003020160010154600387815481106104f4577f4e487b7100000000000000000000000000000000000000000000000000000000600052603260045260246000fd5b90600052602060002090600302016001018054905082805461051590610c7a565b80601f016020809104026020016040519081016040528092919081815260200182805461054190610c7a565b801561058e5780601f106105635761010080835404028352916020019161058e565b820191906000526020600020905b81548152906001019060200180831161057157829003601f168201915b505050505092509250925092509250925092565b600381815481106105b257600080fd5b90600052602060002090600302016000915090508060000154905081565b6000806000905060005b60038581548110610614577f4e487b7100000000000000000000000000000000000000000000000000000000600052603260045260246000fd5b9060005260206000209060030201600201805490508110156106e457836003868154811061066b577f4e487b7100000000000000000000000000000000000000000000000000000000600052603260045260246000fd5b906000526020600020906003020160020182815481106106b4577f4e487b7100000000000000000000000000000000000000000000000000000000600052603260045260246000fd5b90600052602060002090600302016000015414156106d157600191505b80806106dc90610cdd565b9150506105da565b508091505092915050565b60055481565b60005481565b6003600181600181540180825580915050039060005260206000209050506000600360055481548110610757577f4e487b7100000000000000000000000000000000000000000000000000000000600052603260045260246000fd5b90600052602060002090600302019050600554816000018190555060005b825181101561084f578160010160405180606001604052806001815260200160008152602001856000815181106107d5577f4e487b7100000000000000000000000000000000000000000000000000000000600052603260045260246000fd5b602002602001015181525090806001815401808255809150506001900390600052602060002090600302016000909190919091506000820151816000015560208201518160010155604082015181600201908051906020019061083992919061086c565b505050808061084790610cdd565b915050610775565b506005600081548092919061086390610cdd565b91905055505050565b82805461087890610c7a565b90600052602060002090601f01602090048101928261089a57600085556108e1565b82601f106108b357805160ff19168380011785556108e1565b828001600101855582156108e1579182015b828111156108e05782518255916020019190600101906108c5565b5b5090506108ee91906108f2565b5090565b5b8082111561090b5760008160009055506001016108f3565b5090565b600061092261091d84610ba9565b610b84565b9050808382526020820190508260005b85811015610962578135850161094888826109d4565b845260208401935060208301925050600181019050610932565b5050509392505050565b600061097f61097a84610bd5565b610b84565b90508281526020810184848401111561099757600080fd5b6109a2848285610c38565b509392505050565b600082601f8301126109bb57600080fd5b81356109cb84826020860161090f565b91505092915050565b600082601f8301126109e557600080fd5b81356109f584826020860161096c565b91505092915050565b600081359050610a0d81610dc4565b92915050565b600060208284031215610a2557600080fd5b600082013567ffffffffffffffff811115610a3f57600080fd5b610a4b848285016109aa565b91505092915050565b600060208284031215610a6657600080fd5b6000610a74848285016109fe565b91505092915050565b60008060408385031215610a9057600080fd5b6000610a9e858286016109fe565b9250506020610aaf858286016109fe565b9150509250929050565b610ac281610c22565b82525050565b6000610ad382610c06565b610add8185610c11565b9350610aed818560208601610c47565b610af681610db3565b840191505092915050565b610b0a81610c2e565b82525050565b6000602082019050610b256000830184610ab9565b92915050565b60006060820190508181036000830152610b458186610ac8565b9050610b546020830185610b01565b610b616040830184610b01565b949350505050565b6000602082019050610b7e6000830184610b01565b92915050565b6000610b8e610b9f565b9050610b9a8282610cac565b919050565b6000604051905090565b600067ffffffffffffffff821115610bc457610bc3610d84565b5b602082029050602081019050919050565b600067ffffffffffffffff821115610bf057610bef610d84565b5b610bf982610db3565b9050602081019050919050565b600081519050919050565b600082825260208201905092915050565b60008115159050919050565b6000819050919050565b82818337600083830152505050565b60005b83811015610c65578082015181840152602081019050610c4a565b83811115610c74576000848401525b50505050565b60006002820490506001821680610c9257607f821691505b60208210811415610ca657610ca5610d55565b5b50919050565b610cb582610db3565b810181811067ffffffffffffffff82111715610cd457610cd3610d84565b5b80604052505050565b6000610ce882610c2e565b91507fffffffffffffffffffffffffffffffffffffffffffffffffffffffffffffffff821415610d1b57610d1a610d26565b5b600182019050919050565b7f4e487b7100000000000000000000000000000000000000000000000000000000600052601160045260246000fd5b7f4e487b7100000000000000000000000000000000000000000000000000000000600052602260045260246000fd5b7f4e487b7100000000000000000000000000000000000000000000000000000000600052604160045260246000fd5b6000601f19601f8301169050919050565b610dcd81610c2e565b8114610dd857600080fd5b5056fea2646970667358221220698d829ba290b0ea9c8320f812201ad9278a851d330263a78e2896efa788184d64736f6c63430008020033",
  "immutableReferences": {},
  "source": "pragma solidity ^0.8.2;\r\n\r\ncontract Election {\r\n    //Vote[] public votes;\r\n\r\n    uint256 public cand1Count = 0;\r\n    uint256 public cand2Count = 0;\r\n    uint256 public voteID = 0;\r\n\r\n    struct Vote {\r\n        uint256 voteID;\r\n        bool hasVoted;\r\n        uint256 candidateID;\r\n    }\r\n\r\n    struct Candidate {\r\n        uint256 candidateID;\r\n        uint256 voteCount;\r\n        string name;\r\n    }\r\n\r\n    struct Elections {\r\n        uint256 elecID;\r\n        Candidate[] candidates;\r\n        Vote[] voters;\r\n    }\r\n\r\n    //mapping(uint256 => Elections) public elections;\r\n\r\n    //mapping(Elections=>mapping(uint=>Candidate public elections)) elect;\r\n\r\n    Elections[] public elections;\r\n\r\n    uint256 public candidatesCount = 0;\r\n    uint256 public electionCount = 0;\r\n\r\n    constructor() public {}\r\n\r\n    function createElection(string[] memory _name) public {\r\n        elections.push();\r\n\r\n        Elections storage e = elections[electionCount];\r\n        e.elecID = electionCount;\r\n\r\n        for (uint256 i = 0; i < _name.length; i++) {\r\n            e.candidates.push(Candidate(1, 0, _name[0]));\r\n        }\r\n\r\n        electionCount++;\r\n    }\r\n\r\n    function getCandidate(uint256 _elecID, uint256 _candID)\r\n        public\r\n        view\r\n        returns (\r\n            string memory,\r\n            uint256,\r\n            uint256\r\n        )\r\n    {\r\n        return (\r\n            elections[_elecID].candidates[_candID].name,\r\n            elections[_elecID].candidates[_candID].voteCount,\r\n            elections[_elecID].candidates.length\r\n        );\r\n    }\r\n\r\n    function createVote(uint256 _elecID, uint256 _candID) public {\r\n        elections[_elecID].candidates[_candID].voteCount++;\r\n\r\n        elections[_elecID].voters.push(Vote(1, true, _candID));\r\n    }\r\n\r\n    function hasVoted(uint256 _elecID, uint256 _voteID)\r\n        public\r\n        view\r\n        returns (bool)\r\n    {\r\n        bool valid = false;\r\n\r\n        for (uint256 i = 0; i < elections[_elecID].voters.length; i++) {\r\n            //elections[_elecID].voters[i]\r\n\r\n            if (elections[_elecID].voters[i].voteID == _voteID) {\r\n                valid = true;\r\n            }\r\n        }\r\n\r\n        return valid;\r\n    }\r\n\r\n    //function\r\n}\r\n",
  "sourcePath": "C:\\Users\\David\\Desktop\\PROJECT\\ReactProject\\blockchain-evoting\\contracts\\election.sol",
  "compiler": {
    "name": "solc",
    "version": "0.8.2+commit.661d1103.Emscripten.clang"
  },
  "schemaVersion": "3.4.4",
  "updatedAt": "2022-03-03T20:12:43.011Z",
  "networkType": "ethereum",
  "devdoc": {
    "kind": "dev",
    "methods": {},
    "version": 1
  },
  "userdoc": {
    "kind": "user",
    "methods": {},
    "version": 1
  }
}