{
  "contractName": "Election",
  "abi": [
    {
      "inputs": [],
      "stateMutability": "nonpayable",
      "type": "constructor"
    },
    {
      "inputs": [],
      "name": "cand1Count",
      "outputs": [
        {
          "internalType": "uint256",
          "name": "",
          "type": "uint256"
        }
      ],
      "stateMutability": "view",
      "type": "function"
    },
    {
      "inputs": [],
      "name": "cand2Count",
      "outputs": [
        {
          "internalType": "uint256",
          "name": "",
          "type": "uint256"
        }
      ],
      "stateMutability": "view",
      "type": "function"
    },
    {
      "inputs": [
        {
          "internalType": "uint256",
          "name": "",
          "type": "uint256"
        }
      ],
      "name": "candidates",
      "outputs": [
        {
          "internalType": "uint256",
          "name": "candidateID",
          "type": "uint256"
        },
        {
          "internalType": "uint256",
          "name": "voteCount",
          "type": "uint256"
        },
        {
          "internalType": "string",
          "name": "name",
          "type": "string"
        },
        {
          "internalType": "string",
          "name": "info",
          "type": "string"
        }
      ],
      "stateMutability": "view",
      "type": "function"
    },
    {
      "inputs": [],
      "name": "candidatesCount",
      "outputs": [
        {
          "internalType": "uint256",
          "name": "",
          "type": "uint256"
        }
      ],
      "stateMutability": "view",
      "type": "function"
    },
    {
      "inputs": [],
      "name": "electionCount",
      "outputs": [
        {
          "internalType": "uint256",
          "name": "",
          "type": "uint256"
        }
      ],
      "stateMutability": "view",
      "type": "function"
    },
    {
      "inputs": [
        {
          "internalType": "uint256",
          "name": "",
          "type": "uint256"
        }
      ],
      "name": "elections",
      "outputs": [
        {
          "internalType": "uint256",
          "name": "elecID",
          "type": "uint256"
        }
      ],
      "stateMutability": "view",
      "type": "function"
    },
    {
      "inputs": [],
      "name": "voteID",
      "outputs": [
        {
          "internalType": "uint256",
          "name": "",
          "type": "uint256"
        }
      ],
      "stateMutability": "view",
      "type": "function"
    },
    {
      "inputs": [
        {
          "internalType": "uint256",
          "name": "",
          "type": "uint256"
        }
      ],
      "name": "votes",
      "outputs": [
        {
          "internalType": "uint256",
          "name": "voteID",
          "type": "uint256"
        },
        {
          "internalType": "bool",
          "name": "hasVoted",
          "type": "bool"
        },
        {
          "internalType": "uint256",
          "name": "candidateID",
          "type": "uint256"
        }
      ],
      "stateMutability": "view",
      "type": "function"
    },
    {
      "inputs": [
        {
          "internalType": "uint256",
          "name": "_elecID",
          "type": "uint256"
        }
      ],
      "name": "getCandidates",
      "outputs": [
        {
          "internalType": "string[]",
          "name": "",
          "type": "string[]"
        },
        {
          "internalType": "uint256[]",
          "name": "",
          "type": "uint256[]"
        },
        {
          "internalType": "string[]",
          "name": "",
          "type": "string[]"
        }
      ],
      "stateMutability": "view",
      "type": "function"
    },
    {
      "inputs": [
        {
          "internalType": "string[]",
          "name": "_name",
          "type": "string[]"
        },
        {
          "internalType": "string[]",
          "name": "_info",
          "type": "string[]"
        }
      ],
      "name": "createElection",
      "outputs": [],
      "stateMutability": "nonpayable",
      "type": "function"
    },
    {
      "inputs": [
        {
          "internalType": "uint256",
          "name": "_elecID",
          "type": "uint256"
        },
        {
          "internalType": "uint256",
          "name": "_candID",
          "type": "uint256"
        }
      ],
      "name": "createVote",
      "outputs": [],
      "stateMutability": "nonpayable",
      "type": "function"
    },
    {
      "inputs": [
        {
          "internalType": "uint256",
          "name": "_elecID",
          "type": "uint256"
        },
        {
          "internalType": "uint256",
          "name": "_voteID",
          "type": "uint256"
        }
      ],
      "name": "hasVoted",
      "outputs": [
        {
          "internalType": "bool",
          "name": "",
          "type": "bool"
        }
      ],
      "stateMutability": "view",
      "type": "function"
    }
  ],
  "bytecode": "0x608060405260008055600060015560006002556000600655600060075534801561002857600080fd5b5061174b806100386000396000f3fe608060405234801561001057600080fd5b50600436106100b45760003560e01c80633e39a7a5116100715780633e39a7a51461017e5780635df81330146101b05780635e6fef01146101e257806364390ff114610212578063997d283014610242578063ddeea51d14610260576100b4565b8063066d5dc7146100b95780631290bf95146100d75780631b468312146100f55780632d35a8a2146101115780633477ee2e1461012f5780633b26ad7f14610162575b600080fd5b6100c161027e565b6040516100ce9190611396565b60405180910390f35b6100df610284565b6040516100ec9190611396565b60405180910390f35b61010f600480360381019061010a9190611155565b61028a565b005b610119610401565b6040516101269190611396565b60405180910390f35b6101496004803603810190610144919061112c565b610407565b60405161015994939291906113e8565b60405180910390f35b61017c600480360381019061017791906110c0565b610547565b005b6101986004803603810190610193919061112c565b61071b565b6040516101a79392919061132f565b60405180910390f35b6101ca60048036038101906101c5919061112c565b610d89565b6040516101d9939291906113b1565b60405180910390f35b6101fc60048036038101906101f7919061112c565b610dc0565b6040516102099190611396565b60405180910390f35b61022c60048036038101906102279190611155565b610dee565b604051610239919061137b565b60405180910390f35b61024a610f0d565b6040516102579190611396565b60405180910390f35b610268610f13565b6040516102759190611396565b60405180910390f35b60025481565b60015481565b600582815481106102c4577f4e487b7100000000000000000000000000000000000000000000000000000000600052603260045260246000fd5b9060005260206000209060030201600101818154811061030d577f4e487b7100000000000000000000000000000000000000000000000000000000600052603260045260246000fd5b9060005260206000209060040201600101600081548092919061032f90611617565b91905055506005828154811061036e577f4e487b7100000000000000000000000000000000000000000000000000000000600052603260045260246000fd5b90600052602060002090600302016002016040518060600160405280600181526020016001151581526020018381525090806001815401808255809150506001900390600052602060002090600302016000909190919091506000820151816000015560208201518160010160006101000a81548160ff0219169083151502179055506040820151816002015550505050565b60065481565b6004602052806000526040600020600091509050806000015490806001015490806002018054610436906115b4565b80601f0160208091040260200160405190810160405280929190818152602001828054610462906115b4565b80156104af5780601f10610484576101008083540402835291602001916104af565b820191906000526020600020905b81548152906001019060200180831161049257829003601f168201915b5050505050908060030180546104c4906115b4565b80601f01602080910402602001604051908101604052809291908181526020018280546104f0906115b4565b801561053d5780601f106105125761010080835404028352916020019161053d565b820191906000526020600020905b81548152906001019060200180831161052057829003601f168201915b5050505050905084565b60056001816001815401808255809150500390600052602060002090505060006005600754815481106105a3577f4e487b7100000000000000000000000000000000000000000000000000000000600052603260045260246000fd5b90600052602060002090600302019050600754816000018190555060005b83518110156106fd578160010160405180608001604052806001815260200160008152602001868481518110610620577f4e487b7100000000000000000000000000000000000000000000000000000000600052603260045260246000fd5b60200260200101518152602001858481518110610666577f4e487b7100000000000000000000000000000000000000000000000000000000600052603260045260246000fd5b60200260200101518152509080600181540180825580915050600190039060005260206000209060040201600090919091909150600082015181600001556020820151816001015560408201518160020190805190602001906106ca929190610f19565b5060608201518160030190805190602001906106e7929190610f19565b50505080806106f590611617565b9150506105c1565b506007600081548092919061071190611617565b9190505550505050565b606080606060006005858154811061075c577f4e487b7100000000000000000000000000000000000000000000000000000000600052603260045260246000fd5b90600052602060002090600302016001018054905067ffffffffffffffff8111156107b0577f4e487b7100000000000000000000000000000000000000000000000000000000600052604160045260246000fd5b6040519080825280602002602001820160405280156107e357816020015b60608152602001906001900390816107ce5790505b509050600060058681548110610822577f4e487b7100000000000000000000000000000000000000000000000000000000600052603260045260246000fd5b90600052602060002090600302016001018054905067ffffffffffffffff811115610876577f4e487b7100000000000000000000000000000000000000000000000000000000600052604160045260246000fd5b6040519080825280602002602001820160405280156108a45781602001602082028036833780820191505090505b5090506000600587815481106108e3577f4e487b7100000000000000000000000000000000000000000000000000000000600052603260045260246000fd5b90600052602060002090600302016001018054905067ffffffffffffffff811115610937577f4e487b7100000000000000000000000000000000000000000000000000000000600052604160045260246000fd5b60405190808252806020026020018201604052801561096a57816020015b60608152602001906001900390816109555790505b50905060005b600588815481106109aa577f4e487b7100000000000000000000000000000000000000000000000000000000600052603260045260246000fd5b906000526020600020906003020160010180549050811015610d755760058881548110610a00577f4e487b7100000000000000000000000000000000000000000000000000000000600052603260045260246000fd5b90600052602060002090600302016001018181548110610a49577f4e487b7100000000000000000000000000000000000000000000000000000000600052603260045260246000fd5b90600052602060002090600402016002018054610a65906115b4565b80601f0160208091040260200160405190810160405280929190818152602001828054610a91906115b4565b8015610ade5780601f10610ab357610100808354040283529160200191610ade565b820191906000526020600020905b815481529060010190602001808311610ac157829003601f168201915b5050505050848281518110610b1c577f4e487b7100000000000000000000000000000000000000000000000000000000600052603260045260246000fd5b602002602001018190525060058881548110610b61577f4e487b7100000000000000000000000000000000000000000000000000000000600052603260045260246000fd5b90600052602060002090600302016001018181548110610baa577f4e487b7100000000000000000000000000000000000000000000000000000000600052603260045260246000fd5b906000526020600020906004020160010154838281518110610bf5577f4e487b7100000000000000000000000000000000000000000000000000000000600052603260045260246000fd5b60200260200101818152505060058881548110610c3b577f4e487b7100000000000000000000000000000000000000000000000000000000600052603260045260246000fd5b90600052602060002090600302016001018181548110610c84577f4e487b7100000000000000000000000000000000000000000000000000000000600052603260045260246000fd5b90600052602060002090600402016003018054610ca0906115b4565b80601f0160208091040260200160405190810160405280929190818152602001828054610ccc906115b4565b8015610d195780601f10610cee57610100808354040283529160200191610d19565b820191906000526020600020905b815481529060010190602001808311610cfc57829003601f168201915b5050505050828281518110610d57577f4e487b7100000000000000000000000000000000000000000000000000000000600052603260045260246000fd5b60200260200101819052508080610d6d90611617565b915050610970565b508282829550955095505050509193909250565b60036020528060005260406000206000915090508060000154908060010160009054906101000a900460ff16908060020154905083565b60058181548110610dd057600080fd5b90600052602060002090600302016000915090508060000154905081565b6000806000905060005b60058581548110610e32577f4e487b7100000000000000000000000000000000000000000000000000000000600052603260045260246000fd5b906000526020600020906003020160020180549050811015610f02578360058681548110610e89577f4e487b7100000000000000000000000000000000000000000000000000000000600052603260045260246000fd5b90600052602060002090600302016002018281548110610ed2577f4e487b7100000000000000000000000000000000000000000000000000000000600052603260045260246000fd5b9060005260206000209060030201600001541415610eef57600191505b8080610efa90611617565b915050610df8565b508091505092915050565b60075481565b60005481565b828054610f25906115b4565b90600052602060002090601f016020900481019282610f475760008555610f8e565b82601f10610f6057805160ff1916838001178555610f8e565b82800160010185558215610f8e579182015b82811115610f8d578251825591602001919060010190610f72565b5b509050610f9b9190610f9f565b5090565b5b80821115610fb8576000816000905550600101610fa0565b5090565b6000610fcf610fca84611460565b61143b565b9050808382526020820190508260005b8581101561100f5781358501610ff58882611081565b845260208401935060208301925050600181019050610fdf565b5050509392505050565b600061102c6110278461148c565b61143b565b90508281526020810184848401111561104457600080fd5b61104f848285611572565b509392505050565b600082601f83011261106857600080fd5b8135611078848260208601610fbc565b91505092915050565b600082601f83011261109257600080fd5b81356110a2848260208601611019565b91505092915050565b6000813590506110ba816116fe565b92915050565b600080604083850312156110d357600080fd5b600083013567ffffffffffffffff8111156110ed57600080fd5b6110f985828601611057565b925050602083013567ffffffffffffffff81111561111657600080fd5b61112285828601611057565b9150509250929050565b60006020828403121561113e57600080fd5b600061114c848285016110ab565b91505092915050565b6000806040838503121561116857600080fd5b6000611176858286016110ab565b9250506020611187858286016110ab565b9150509250929050565b600061119d838361129f565b905092915050565b60006111b18383611311565b60208301905092915050565b60006111c8826114dd565b6111d28185611518565b9350836020820285016111e4856114bd565b8060005b8581101561122057848403895281516112018582611191565b945061120c836114fe565b925060208a019950506001810190506111e8565b50829750879550505050505092915050565b600061123d826114e8565b6112478185611529565b9350611252836114cd565b8060005b8381101561128357815161126a88826111a5565b97506112758361150b565b925050600181019050611256565b5085935050505092915050565b6112998161155c565b82525050565b60006112aa826114f3565b6112b4818561153a565b93506112c4818560208601611581565b6112cd816116ed565b840191505092915050565b60006112e3826114f3565b6112ed818561154b565b93506112fd818560208601611581565b611306816116ed565b840191505092915050565b61131a81611568565b82525050565b61132981611568565b82525050565b6000606082019050818103600083015261134981866111bd565b9050818103602083015261135d8185611232565b9050818103604083015261137181846111bd565b9050949350505050565b60006020820190506113906000830184611290565b92915050565b60006020820190506113ab6000830184611320565b92915050565b60006060820190506113c66000830186611320565b6113d36020830185611290565b6113e06040830184611320565b949350505050565b60006080820190506113fd6000830187611320565b61140a6020830186611320565b818103604083015261141c81856112d8565b9050818103606083015261143081846112d8565b905095945050505050565b6000611445611456565b905061145182826115e6565b919050565b6000604051905090565b600067ffffffffffffffff82111561147b5761147a6116be565b5b602082029050602081019050919050565b600067ffffffffffffffff8211156114a7576114a66116be565b5b6114b0826116ed565b9050602081019050919050565b6000819050602082019050919050565b6000819050602082019050919050565b600081519050919050565b600081519050919050565b600081519050919050565b6000602082019050919050565b6000602082019050919050565b600082825260208201905092915050565b600082825260208201905092915050565b600082825260208201905092915050565b600082825260208201905092915050565b60008115159050919050565b6000819050919050565b82818337600083830152505050565b60005b8381101561159f578082015181840152602081019050611584565b838111156115ae576000848401525b50505050565b600060028204905060018216806115cc57607f821691505b602082108114156115e0576115df61168f565b5b50919050565b6115ef826116ed565b810181811067ffffffffffffffff8211171561160e5761160d6116be565b5b80604052505050565b600061162282611568565b91507fffffffffffffffffffffffffffffffffffffffffffffffffffffffffffffffff82141561165557611654611660565b5b600182019050919050565b7f4e487b7100000000000000000000000000000000000000000000000000000000600052601160045260246000fd5b7f4e487b7100000000000000000000000000000000000000000000000000000000600052602260045260246000fd5b7f4e487b7100000000000000000000000000000000000000000000000000000000600052604160045260246000fd5b6000601f19601f8301169050919050565b61170781611568565b811461171257600080fd5b5056fea26469706673582212201e9d399100d72237a690004a42dd2aa5effff0228342c039ed20418bc1e6c90364736f6c63430008020033",
  "immutableReferences": {},
  "source": "pragma solidity ^0.8.2;\r\n\r\ncontract Election {\r\n    //Vote[] public votes;\r\n\r\n    uint256 public cand1Count = 0;\r\n    uint256 public cand2Count = 0;\r\n    uint256 public voteID = 0;\r\n\r\n    struct Vote {\r\n        uint256 voteID;\r\n        bool hasVoted;\r\n        uint256 candidateID;\r\n    }\r\n\r\n    struct Candidate {\r\n        uint256 candidateID;\r\n        uint256 voteCount;\r\n        string name;\r\n        string info;\r\n    }\r\n\r\n    struct Elections {\r\n        uint256 elecID;\r\n        Candidate[] candidates;\r\n        Vote[] voters;\r\n    }\r\n\r\n    mapping(uint256 => Vote) public votes;\r\n    mapping(uint256 => Candidate) public candidates;\r\n    //mapping(uint256 => Elections) public elections;\r\n\r\n    //mapping(Elections=>mapping(uint=>Candidate public elections)) elect;\r\n\r\n    Elections[] public elections;\r\n\r\n    uint256 public candidatesCount = 0;\r\n    uint256 public electionCount = 0;\r\n\r\n    constructor() public {}\r\n\r\n    //Return arrays of candidate details\r\n\r\n    function getCandidates(uint256 _elecID)\r\n        public\r\n        view\r\n        returns (\r\n            string[] memory,\r\n            uint256[] memory,\r\n            string[] memory\r\n        )\r\n    {\r\n        string[] memory names = new string[](\r\n            elections[_elecID].candidates.length\r\n        );\r\n        uint256[] memory voteCounts = new uint256[](\r\n            elections[_elecID].candidates.length\r\n        );\r\n        string[] memory info = new string[](\r\n            elections[_elecID].candidates.length\r\n        );\r\n\r\n        for (uint256 i = 0; i < elections[_elecID].candidates.length; i++) {\r\n            names[i] = elections[_elecID].candidates[i].name;\r\n            voteCounts[i] = elections[_elecID].candidates[i].voteCount;\r\n            info[i] = elections[_elecID].candidates[i].info;\r\n        }\r\n        return (names, voteCounts, info);\r\n    }\r\n\r\n    function createElection(string[] memory _name, string[] memory _info)\r\n        public\r\n    {\r\n        elections.push();\r\n\r\n        Elections storage e = elections[electionCount];\r\n        e.elecID = electionCount;\r\n\r\n        for (uint256 i = 0; i < _name.length; i++) {\r\n            e.candidates.push(Candidate(1, 0, _name[i], _info[i]));\r\n        }\r\n\r\n        electionCount++;\r\n    }\r\n\r\n    function createVote(uint256 _elecID, uint256 _candID) public {\r\n        elections[_elecID].candidates[_candID].voteCount++;\r\n\r\n        elections[_elecID].voters.push(Vote(1, true, _candID));\r\n    }\r\n\r\n    function hasVoted(uint256 _elecID, uint256 _voteID)\r\n        public\r\n        view\r\n        returns (bool)\r\n    {\r\n        bool valid = false;\r\n\r\n        for (uint256 i = 0; i < elections[_elecID].voters.length; i++) {\r\n            //elections[_elecID].voters[i]\r\n\r\n            if (elections[_elecID].voters[i].voteID == _voteID) {\r\n                valid = true;\r\n            }\r\n        }\r\n\r\n        return valid;\r\n    }\r\n\r\n    //function\r\n}\r\n",
  "sourcePath": "C:\\Users\\David\\Desktop\\PROJECT\\Blockchain-E-Voting\\contracts\\election.sol",
  "compiler": {
    "name": "solc",
    "version": "0.8.2+commit.661d1103.Emscripten.clang"
  },
  "schemaVersion": "3.4.4",
  "updatedAt": "2022-03-26T19:34:39.306Z",
  "devdoc": {
    "kind": "dev",
    "methods": {},
    "version": 1
  },
  "userdoc": {
    "kind": "user",
    "methods": {},
    "version": 1
  }
}