{
  "contractName": "Election",
  "abi": [
    {
      "constant": true,
      "inputs": [],
      "name": "voteID",
      "outputs": [
        {
          "name": "",
          "type": "uint256"
        }
      ],
      "payable": false,
      "stateMutability": "view",
      "type": "function",
      "signature": "0x066d5dc7"
    },
    {
      "constant": true,
      "inputs": [],
      "name": "cand2Count",
      "outputs": [
        {
          "name": "",
          "type": "uint256"
        }
      ],
      "payable": false,
      "stateMutability": "view",
      "type": "function",
      "signature": "0x1290bf95"
    },
    {
      "constant": true,
      "inputs": [
        {
          "name": "",
          "type": "uint256"
        }
      ],
      "name": "candidates",
      "outputs": [
        {
          "name": "candidateID",
          "type": "uint256"
        },
        {
          "name": "voteCount",
          "type": "uint256"
        },
        {
          "name": "name",
          "type": "string"
        }
      ],
      "payable": false,
      "stateMutability": "view",
      "type": "function",
      "signature": "0x3477ee2e"
    },
    {
      "constant": true,
      "inputs": [
        {
          "name": "",
          "type": "uint256"
        }
      ],
      "name": "votes",
      "outputs": [
        {
          "name": "voteID",
          "type": "uint256"
        },
        {
          "name": "hasVoted",
          "type": "bool"
        },
        {
          "name": "candidateID",
          "type": "uint256"
        }
      ],
      "payable": false,
      "stateMutability": "view",
      "type": "function",
      "signature": "0x5df81330"
    },
    {
      "constant": true,
      "inputs": [],
      "name": "cand1Count",
      "outputs": [
        {
          "name": "",
          "type": "uint256"
        }
      ],
      "payable": false,
      "stateMutability": "view",
      "type": "function",
      "signature": "0xddeea51d"
    },
    {
      "inputs": [],
      "payable": false,
      "stateMutability": "nonpayable",
      "type": "constructor",
      "signature": "constructor"
    },
    {
      "constant": false,
      "inputs": [
        {
          "name": "_candidateID",
          "type": "uint256"
        }
      ],
      "name": "createVote",
      "outputs": [],
      "payable": false,
      "stateMutability": "nonpayable",
      "type": "function",
      "signature": "0xfa954aa0"
    }
  ],
  "bytecode": "0x6080604052600080556000600155600060025534801561001e57600080fd5b506100386001610056640100000000026401000000009004565b6100516002610056640100000000026401000000009004565b610193565b60018114156100f4576002600081548092919060010191905055506060604051908101604052806002548152602001600115158152602001828152506003600060025481526020019081526020016000206000820151816000015560208201518160010160006101000a81548160ff021916908315150217905550604082015181600201559050506000808154809291906001019190505550610190565b600281141561018f576002600081548092919060010191905055506060604051908101604052806002548152602001600115158152602001828152506003600060025481526020019081526020016000206000820151816000015560208201518160010160006101000a81548160ff021916908315150217905550604082015181600201559050506001600081548092919060010191905055505b5b50565b6104d0806101a26000396000f3fe608060405260043610610078576000357c0100000000000000000000000000000000000000000000000000000000900463ffffffff168063066d5dc71461007d5780631290bf95146100a85780633477ee2e146100d35780635df8133014610195578063ddeea51d146101f6578063fa954aa014610221575b600080fd5b34801561008957600080fd5b5061009261025c565b6040518082815260200191505060405180910390f35b3480156100b457600080fd5b506100bd610262565b6040518082815260200191505060405180910390f35b3480156100df57600080fd5b5061010c600480360360208110156100f657600080fd5b8101908080359060200190929190505050610268565b6040518084815260200183815260200180602001828103825283818151815260200191508051906020019080838360005b8381101561015857808201518184015260208101905061013d565b50505050905090810190601f1680156101855780820380516001836020036101000a031916815260200191505b5094505050505060405180910390f35b3480156101a157600080fd5b506101ce600480360360208110156101b857600080fd5b810190808035906020019092919050505061032a565b6040518084815260200183151515158152602001828152602001935050505060405180910390f35b34801561020257600080fd5b5061020b610361565b6040518082815260200191505060405180910390f35b34801561022d57600080fd5b5061025a6004803603602081101561024457600080fd5b8101908080359060200190929190505050610367565b005b60025481565b60015481565b6004602052806000526040600020600091509050806000015490806001015490806002018054600181600116156101000203166002900480601f0160208091040260200160405190810160405280929190818152602001828054600181600116156101000203166002900480156103205780601f106102f557610100808354040283529160200191610320565b820191906000526020600020905b81548152906001019060200180831161030357829003601f168201915b5050505050905083565b60036020528060005260406000206000915090508060000154908060010160009054906101000a900460ff16908060020154905083565b60005481565b6001811415610405576002600081548092919060010191905055506060604051908101604052806002548152602001600115158152602001828152506003600060025481526020019081526020016000206000820151816000015560208201518160010160006101000a81548160ff0219169083151502179055506040820151816002015590505060008081548092919060010191905055506104a1565b60028114156104a0576002600081548092919060010191905055506060604051908101604052806002548152602001600115158152602001828152506003600060025481526020019081526020016000206000820151816000015560208201518160010160006101000a81548160ff021916908315150217905550604082015181600201559050506001600081548092919060010191905055505b5b5056fea165627a7a72305820bbb037bb125ff3557909576da25c61b8170d5f22c579c4ce61c72f1bcf8314660029",
  "source": "pragma solidity ^0.5.0;\r\n\r\ncontract Election {\r\n    \r\n    //Vote[] public votes;\r\n    \r\n    uint256 public cand1Count = 0;\r\n    uint256 public cand2Count = 0;\r\n    uint256 public voteID = 0;\r\n\r\n\r\n\r\n\r\n    \r\n    struct Vote {\r\n        uint voteID; \r\n        bool hasVoted;\r\n        uint candidateID; \r\n        \r\n    }\r\n\r\n    struct Candidate {\r\n        uint candidateID; \r\n        uint voteCount;\r\n        string name;\r\n         \r\n        \r\n    }\r\n\r\n    mapping(uint => Vote) public votes;\r\n    mapping(uint => Candidate) public candidates;\r\n\r\n    constructor() public {\r\n        createVote(1);\r\n        createVote(2);\r\n   \r\n\r\n        \r\n    }\r\n\r\n    function createVote(uint _candidateID) public{\r\n        if(_candidateID ==  1){\r\n            voteID ++;\r\n            votes[voteID] = Vote(voteID, true , _candidateID);\r\n            cand1Count++;\r\n\r\n        }else if(_candidateID ==  2){\r\n            voteID ++;\r\n            votes[voteID] = Vote(voteID, true , _candidateID);\r\n            cand2Count++;\r\n\r\n        }\r\n\r\n    }\r\n    \r\n    // function addVote (uint userID, uint voteID, bool hasVoted, uint candidate) public{\r\n    //     votes.push(Vote(userID, voteID, hasVoted, candidate));\r\n    // }\r\n    \r\n    // function removeVote (uint voteID) public{\r\n        \r\n    //     for (uint i=0; i<votes.length; i++) {\r\n    //         if (voteID == votes[i].voteID) {\r\n    //             delete votes[i];\r\n   \r\n    //     }}\r\n    // }\r\n    \r\n}",
  "sourcePath": "C:/Users/David/Desktop/yes/Blockchain-E-Voting/contracts/election.sol",
  "compiler": {
    "name": "solc",
    "version": "0.5.0+commit.1d4f565a.Emscripten.clang"
  },
  "schemaVersion": "3.0.1",
  "updatedAt": "2021-12-02T11:25:24.730Z",
  "devdoc": {
    "methods": {}
  },
  "userdoc": {
    "methods": {}
  }
}