{
  "contractName": "Election",
  "abi": [
    {
      "constant": true,
      "inputs": [],
      "name": "voteID",
      "outputs": [
        {
          "name": "",
          "type": "uint256"
        }
      ],
      "payable": false,
      "stateMutability": "view",
      "type": "function",
      "signature": "0x066d5dc7"
    },
    {
      "constant": true,
      "inputs": [],
      "name": "cand2Count",
      "outputs": [
        {
          "name": "",
          "type": "uint256"
        }
      ],
      "payable": false,
      "stateMutability": "view",
      "type": "function",
      "signature": "0x1290bf95"
    },
    {
      "constant": true,
      "inputs": [],
      "name": "candidatesCount",
      "outputs": [
        {
          "name": "",
          "type": "uint256"
        }
      ],
      "payable": false,
      "stateMutability": "view",
      "type": "function",
      "signature": "0x2d35a8a2"
    },
    {
      "constant": true,
      "inputs": [
        {
          "name": "",
          "type": "uint256"
        }
      ],
      "name": "candidates",
      "outputs": [
        {
          "name": "candidateID",
          "type": "uint256"
        },
        {
          "name": "voteCount",
          "type": "uint256"
        },
        {
          "name": "name",
          "type": "string"
        }
      ],
      "payable": false,
      "stateMutability": "view",
      "type": "function",
      "signature": "0x3477ee2e"
    },
    {
      "constant": true,
      "inputs": [
        {
          "name": "",
          "type": "uint256"
        }
      ],
      "name": "votes",
      "outputs": [
        {
          "name": "voteID",
          "type": "uint256"
        },
        {
          "name": "hasVoted",
          "type": "bool"
        },
        {
          "name": "candidateID",
          "type": "uint256"
        }
      ],
      "payable": false,
      "stateMutability": "view",
      "type": "function",
      "signature": "0x5df81330"
    },
    {
      "constant": true,
      "inputs": [],
      "name": "cand1Count",
      "outputs": [
        {
          "name": "",
          "type": "uint256"
        }
      ],
      "payable": false,
      "stateMutability": "view",
      "type": "function",
      "signature": "0xddeea51d"
    },
    {
      "inputs": [],
      "payable": false,
      "stateMutability": "nonpayable",
      "type": "constructor",
      "signature": "constructor"
    },
    {
      "constant": false,
      "inputs": [
        {
          "name": "_name",
          "type": "string"
        }
      ],
      "name": "createCandidate",
      "outputs": [],
      "payable": false,
      "stateMutability": "nonpayable",
      "type": "function",
      "signature": "0x5fba7a56"
    },
    {
      "constant": false,
      "inputs": [
        {
          "name": "_candidateID",
          "type": "uint256"
        }
      ],
      "name": "createVote",
      "outputs": [],
      "payable": false,
      "stateMutability": "nonpayable",
      "type": "function",
      "signature": "0xfa954aa0"
    }
  ],
  "bytecode": "0x60806040526000805560006001556000600255600060055534801561002357600080fd5b506100716040805190810160405280600481526020017f4a6f686e000000000000000000000000000000000000000000000000000000008152506100c3640100000000026401000000009004565b6100be6040805190810160405280600481526020017f4d617279000000000000000000000000000000000000000000000000000000008152506100c3640100000000026401000000009004565b6101e5565b6005600081548092919060010191905055506060604051908101604052806005548152602001600081526020018281525060046000600554815260200190815260200160002060008201518160000155602082015181600101556040820151816002019080519060200190610139929190610140565b5090505050565b828054600181600116156101000203166002900490600052602060002090601f016020900481019282601f1061018157805160ff19168380011785556101af565b828001600101855582156101af579182015b828111156101ae578251825591602001919060010190610193565b5b5090506101bc91906101c0565b5090565b6101e291905b808211156101de5760008160009055506001016101c6565b5090565b90565b61074d806101f46000396000f3fe60806040526004361061008e576000357c0100000000000000000000000000000000000000000000000000000000900463ffffffff168063066d5dc7146100935780631290bf95146100be5780632d35a8a2146100e95780633477ee2e146101145780635df81330146101d65780635fba7a5614610237578063ddeea51d146102ff578063fa954aa01461032a575b600080fd5b34801561009f57600080fd5b506100a8610365565b6040518082815260200191505060405180910390f35b3480156100ca57600080fd5b506100d361036b565b6040518082815260200191505060405180910390f35b3480156100f557600080fd5b506100fe610371565b6040518082815260200191505060405180910390f35b34801561012057600080fd5b5061014d6004803603602081101561013757600080fd5b8101908080359060200190929190505050610377565b6040518084815260200183815260200180602001828103825283818151815260200191508051906020019080838360005b8381101561019957808201518184015260208101905061017e565b50505050905090810190601f1680156101c65780820380516001836020036101000a031916815260200191505b5094505050505060405180910390f35b3480156101e257600080fd5b5061020f600480360360208110156101f957600080fd5b8101908080359060200190929190505050610439565b6040518084815260200183151515158152602001828152602001935050505060405180910390f35b34801561024357600080fd5b506102fd6004803603602081101561025a57600080fd5b810190808035906020019064010000000081111561027757600080fd5b82018360208201111561028957600080fd5b803590602001918460018302840111640100000000831117156102ab57600080fd5b91908080601f016020809104026020016040519081016040528093929190818152602001838380828437600081840152601f19601f820116905080830192505050505050509192919290505050610470565b005b34801561030b57600080fd5b506103146104ed565b6040518082815260200191505060405180910390f35b34801561033657600080fd5b506103636004803603602081101561034d57600080fd5b81019080803590602001909291905050506104f3565b005b60025481565b60015481565b60055481565b6004602052806000526040600020600091509050806000015490806001015490806002018054600181600116156101000203166002900480601f01602080910402602001604051908101604052809291908181526020018280546001816001161561010002031660029004801561042f5780601f106104045761010080835404028352916020019161042f565b820191906000526020600020905b81548152906001019060200180831161041257829003601f168201915b5050505050905083565b60036020528060005260406000206000915090508060000154908060010160009054906101000a900460ff16908060020154905083565b60056000815480929190600101919050555060606040519081016040528060055481526020016000815260200182815250600460006005548152602001908152602001600020600082015181600001556020820151816001015560408201518160020190805190602001906104e692919061067c565b5090505050565b60005481565b60018114156105b7576002600081548092919060010191905055506060604051908101604052806002548152602001600115158152602001828152506003600060025481526020019081526020016000206000820151816000015560208201518160010160006101000a81548160ff0219169083151502179055506040820151816002015590505060008081548092919060010191905055506004600082815260200190815260200160002060010160008154809291906001019190505550610679565b6002811415610678576002600081548092919060010191905055506060604051908101604052806002548152602001600115158152602001828152506003600060025481526020019081526020016000206000820151816000015560208201518160010160006101000a81548160ff0219169083151502179055506040820151816002015590505060016000815480929190600101919050555060046000828152602001908152602001600020600101600081548092919060010191905055505b5b50565b828054600181600116156101000203166002900490600052602060002090601f016020900481019282601f106106bd57805160ff19168380011785556106eb565b828001600101855582156106eb579182015b828111156106ea5782518255916020019190600101906106cf565b5b5090506106f891906106fc565b5090565b61071e91905b8082111561071a576000816000905550600101610702565b5090565b9056fea165627a7a72305820be9ce252d8891a359757c62d22889ddfcd8f803878432162be88b23d3e6595ce0029",
  "source": "pragma solidity ^0.5.0;\r\n\r\ncontract Election {\r\n    \r\n    //Vote[] public votes;\r\n    \r\n    uint256 public cand1Count = 0;\r\n    uint256 public cand2Count = 0;\r\n    uint256 public voteID = 0;\r\n\r\n\r\n\r\n\r\n    \r\n    struct Vote {\r\n        uint voteID; \r\n        bool hasVoted;\r\n        uint candidateID; \r\n        \r\n    }\r\n\r\n    struct Candidate {\r\n        uint candidateID; \r\n        uint voteCount;\r\n        string name;\r\n         \r\n        \r\n    }\r\n\r\n    mapping(uint => Vote) public votes;\r\n    mapping(uint => Candidate) public candidates;\r\n    uint public candidatesCount = 0;\r\n\r\n    constructor() public {\r\n        createCandidate(\"John\");\r\n        createCandidate(\"Mary\");\r\n \r\n    }\r\n\r\n    function createCandidate(string memory _name) public{\r\n        candidatesCount ++;\r\n        candidates[candidatesCount] = Candidate(candidatesCount, 0,  _name);\r\n\r\n    }\r\n\r\n\r\n\r\n    function createVote(uint _candidateID) public{\r\n        if(_candidateID ==  1){\r\n            voteID ++;\r\n            votes[voteID] = Vote(voteID, true , _candidateID);\r\n            cand1Count++;\r\n            //////////////\r\n            //uint cand = candidates[_candidateID];\r\n            candidates[_candidateID].voteCount ++;\r\n\r\n        }else if(_candidateID ==  2){\r\n            voteID ++;\r\n            votes[voteID] = Vote(voteID, true , _candidateID);\r\n            cand2Count++;\r\n            candidates[_candidateID].voteCount ++;\r\n\r\n        }\r\n\r\n    }\r\n    \r\n    // function addVote (uint userID, uint voteID, bool hasVoted, uint candidate) public{\r\n    //     votes.push(Vote(userID, voteID, hasVoted, candidate));\r\n    // }\r\n    \r\n    // function removeVote (uint voteID) public{\r\n        \r\n    //     for (uint i=0; i<votes.length; i++) {\r\n    //         if (voteID == votes[i].voteID) {\r\n    //             delete votes[i];\r\n   \r\n    //     }}\r\n    // }\r\n    \r\n}",
  "sourcePath": "C:/Users/David/Desktop/PROJECT/Blockchain-E-Voting/contracts/election.sol",
  "compiler": {
    "name": "solc",
    "version": "0.5.0+commit.1d4f565a.Emscripten.clang"
  },
  "schemaVersion": "3.0.1",
  "updatedAt": "2022-01-27T13:24:23.022Z",
  "devdoc": {
    "methods": {}
  },
  "userdoc": {
    "methods": {}
  }
}