{
  "contractName": "Election",
  "abi": [
    {
      "constant": true,
      "inputs": [],
      "name": "cand2Count",
      "outputs": [
        {
          "name": "",
          "type": "uint256"
        }
      ],
      "payable": false,
      "stateMutability": "view",
      "type": "function",
      "signature": "0x1290bf95"
    },
    {
      "constant": true,
      "inputs": [
        {
          "name": "",
          "type": "uint256"
        }
      ],
      "name": "votes",
      "outputs": [
        {
          "name": "voteID",
          "type": "uint256"
        },
        {
          "name": "hasVoted",
          "type": "bool"
        },
        {
          "name": "candidate",
          "type": "string"
        }
      ],
      "payable": false,
      "stateMutability": "view",
      "type": "function",
      "signature": "0x5df81330"
    },
    {
      "constant": true,
      "inputs": [],
      "name": "voteCount",
      "outputs": [
        {
          "name": "",
          "type": "uint256"
        }
      ],
      "payable": false,
      "stateMutability": "view",
      "type": "function",
      "signature": "0xc6384071"
    },
    {
      "constant": true,
      "inputs": [],
      "name": "cand1Count",
      "outputs": [
        {
          "name": "",
          "type": "uint256"
        }
      ],
      "payable": false,
      "stateMutability": "view",
      "type": "function",
      "signature": "0xddeea51d"
    },
    {
      "inputs": [],
      "payable": false,
      "stateMutability": "nonpayable",
      "type": "constructor",
      "signature": "constructor"
    },
    {
      "constant": false,
      "inputs": [
        {
          "name": "_candidate",
          "type": "string"
        }
      ],
      "name": "createVote",
      "outputs": [],
      "payable": false,
      "stateMutability": "nonpayable",
      "type": "function",
      "signature": "0x13292a02"
    }
  ],
  "bytecode": "0x6080604052600080556000600155600060025534801561001e57600080fd5b5061006c6040805190810160405280600b81526020017f43616e6469646174652031000000000000000000000000000000000000000000815250610071640100000000026401000000009004565b6101ab565b6002600081548092919060010191905055506060604051908101604052806002548152602001600115158152602001828152506003600060025481526020019081526020016000206000820151816000015560208201518160010160006101000a81548160ff02191690831515021790555060408201518160020190805190602001906100ff929190610106565b5090505050565b828054600181600116156101000203166002900490600052602060002090601f016020900481019282601f1061014757805160ff1916838001178555610175565b82800160010185558215610175579182015b82811115610174578251825591602001919060010190610159565b5b5090506101829190610186565b5090565b6101a891905b808211156101a457600081600090555060010161018c565b5090565b90565b6104c8806101ba6000396000f3fe60806040526004361061006d576000357c0100000000000000000000000000000000000000000000000000000000900463ffffffff1680631290bf951461007257806313292a021461009d5780635df8133014610165578063c63840711461022b578063ddeea51d14610256575b600080fd5b34801561007e57600080fd5b50610087610281565b6040518082815260200191505060405180910390f35b3480156100a957600080fd5b50610163600480360360208110156100c057600080fd5b81019080803590602001906401000000008111156100dd57600080fd5b8201836020820111156100ef57600080fd5b8035906020019184600183028401116401000000008311171561011157600080fd5b91908080601f016020809104026020016040519081016040528093929190818152602001838380828437600081840152601f19601f820116905080830192505050505050509192919290505050610287565b005b34801561017157600080fd5b5061019e6004803603602081101561018857600080fd5b810190808035906020019092919050505061031c565b604051808481526020018315151515815260200180602001828103825283818151815260200191508051906020019080838360005b838110156101ee5780820151818401526020810190506101d3565b50505050905090810190601f16801561021b5780820380516001836020036101000a031916815260200191505b5094505050505060405180910390f35b34801561023757600080fd5b506102406103eb565b6040518082815260200191505060405180910390f35b34801561026257600080fd5b5061026b6103f1565b6040518082815260200191505060405180910390f35b60015481565b6002600081548092919060010191905055506060604051908101604052806002548152602001600115158152602001828152506003600060025481526020019081526020016000206000820151816000015560208201518160010160006101000a81548160ff02191690831515021790555060408201518160020190805190602001906103159291906103f7565b5090505050565b60036020528060005260406000206000915090508060000154908060010160009054906101000a900460ff1690806002018054600181600116156101000203166002900480601f0160208091040260200160405190810160405280929190818152602001828054600181600116156101000203166002900480156103e15780601f106103b6576101008083540402835291602001916103e1565b820191906000526020600020905b8154815290600101906020018083116103c457829003601f168201915b5050505050905083565b60025481565b60005481565b828054600181600116156101000203166002900490600052602060002090601f016020900481019282601f1061043857805160ff1916838001178555610466565b82800160010185558215610466579182015b8281111561046557825182559160200191906001019061044a565b5b5090506104739190610477565b5090565b61049991905b8082111561049557600081600090555060010161047d565b5090565b9056fea165627a7a72305820797eb7ee254b969c3bc319c3b53e20afcfdda6c6d26c403f23a7e09ac899de200029",
  "source": "pragma solidity ^0.5.0;\r\n\r\ncontract Election {\r\n    \r\n    //Vote[] public votes;\r\n    \r\n    uint256 public cand1Count = 0;\r\n    uint256 public cand2Count = 0;\r\n    uint256 public voteCount = 0;\r\n\r\n\r\n\r\n\r\n    \r\n    struct Vote {\r\n        uint voteID; \r\n        bool hasVoted;\r\n        string candidate; \r\n        \r\n    }\r\n\r\n    mapping(uint => Vote) public votes;\r\n\r\n    constructor() public {\r\n        createVote(\"Candidate 1\");\r\n    }\r\n\r\n    function createVote(string memory _candidate) public{\r\n\r\n        voteCount ++;\r\n        votes[voteCount] = Vote(voteCount, true , _candidate);\r\n    }\r\n    \r\n    // function addVote (uint userID, uint voteID, bool hasVoted, uint candidate) public{\r\n    //     votes.push(Vote(userID, voteID, hasVoted, candidate));\r\n    // }\r\n    \r\n    // function removeVote (uint voteID) public{\r\n        \r\n    //     for (uint i=0; i<votes.length; i++) {\r\n    //         if (voteID == votes[i].voteID) {\r\n    //             delete votes[i];\r\n   \r\n    //     }}\r\n    // }\r\n    \r\n}",
  "sourcePath": "C:/Users/David/Desktop/yes/Blockchain-E-Voting/contracts/election.sol",
  "compiler": {
    "name": "solc",
    "version": "0.5.0+commit.1d4f565a.Emscripten.clang"
  },
  "schemaVersion": "3.0.1",
  "updatedAt": "2021-11-25T11:48:14.818Z",
  "devdoc": {
    "methods": {}
  },
  "userdoc": {
    "methods": {}
  }
}